:2000000000400020293B010001C9011001C9011001C9011001C9011001C9011001C90110F9
:1C00200001C9011001C9011001C9011001C9011001C9011001C901103FC9011089
:20003C002DE9F04F85B0804611F8010BDFF81028009008F1FD00009B182B08F1E70508F1EE
:20005C00660A08F20D1B08F5B07408F1860908F59C7608F5C67700F2E183DFE813F01900C7
:20007C006A0080018800DF03DF03F100BA0303011801F40000014701DF03DF039F01DF03DF
:20009C0082016A01C6030B030B035E02DF03A90211F8015B89F80050022208F1880000F0B9
:2000BC00D9FB0146022208F18A0000F0D3FB0146022208F18C0000F0CDFB0146022208F198
:2000DC008E0000F0C7FB99F80010B9F80220490089F800105200B9F80410A9F80220490053
:2000FC00A9F804100222B9F808100901A9F80810014608F1840000F0ADFBBAF81E10B8F893
:20011C000800091A89B247F6FF72914225DAB9F80600B9F80410B9F80820401C4900484358
:20013C00904228BF3B2080F06F8201208AF81C0018E0052208F1610000F08CFB0146022214
:20015C0008F1920000F086FBB9F80C10B8F80800091A89B247F6FF72914280F254820120BA
:20017C0089F80A000021A8F81E10307065E3AA7DD00709D4687B1A210128A97302D1FF22CF
:20019C000D213BE00D210DE200208AF8000001226A7408F1B000082200F05CFB01460222B5
:2001BC0008F1B80000F056FB08F1A80401460822204600F04FFB06460821204600F04EFB67
:2001DC0008F19C0404223146204600F043FB0421204600F043FB08F1A00000F043FB08F1C0
:2001FC00980000F043FBDFF85C06018841F080010180687B012807D1FF220421404605B0C3
:20021C00BDE8F04F0FF0FCBA9AF811500F2D18BF142D03D00E2D18BF0C2D0FD19AF8104002
:20023C00404612F0E5F90421404610F04DFC012C12BF29468AF81A50FD21B3E10421B1E186
:20025C000120E873F9E2002100208AF800108AF8060001216973287068700B21A2E1012092
:20027C002874EAE2541C00230932CD5CD65C3543CD54E65C3540C5545B1C082BF5DB9AF85C
:20029C00060000284BD0404610F0C0FCCBE2002302F10906CF5C16F803C04CEA0707CF5482
:2002BC0002F1010E1EF8039007EA0907C7545B1C082BEFDB02206875E97D080703D440F666
:2002DC004800A081E08150788106CAD520891B2804BF60891B2807D1A089B0F5A47F04BFE3
:2002FC00E089B0F5A47FBCD014215BE19BF80000012811D011F8012B8BF8032008F5897046
:20031C00022200F0A7FA0146022208F58A7000F0A1FA01218BF800109AF80600002800F0BA
:20033C00AF819BF8020000282AD140460FF028FE79E2A87DDFF81045C10609D412208BF809
:20035C000C00404612F0DEFA002819D120786DE2404612F0D7FE002812D1207866E2087854
:20037C0052E108782070497861709AF8100001280ED19AF811000F38012802D9C01F03D042
:20039C005BE20122727358E2387B40F0010043E205B0BDE8F04F002016F098BAA87DDFF8AC
:2003BC00A844820709D40F208BF80C00404612F0A9FA0028E7D1207838E208784A7800EB27
:2003DC0002203082CA78887800EB022070824A79087900EB0220B082CA79887900EB022018
:2003FC00F082087A30764A7A887A02EB00227283C87A0A7B00EB0220B0838A7B487B00EBC3
:20041C000220F0830A7CC87B00EB022030848A7C487C00EB022070840A7DC87C00EB0220FE
:20043C00B084487D897D00EB0120F084DFF81C0401788A0658BF1A2213D508F5AA7004903B
:20045C00718B0391307E0290B8F808100191F08A0090B38A728A318A40460FF00FFAA0B179
:20047C001E22A87D410709D40F208BF80C00404612F048FA00284DD12078D7E1404605B07D
:20049C00BDE8F04F0F2114F03DBB708AA9F804000022B18AA9F806100221F08AA9F8080037
:2004BC0089F80010A9F80220B8F83400C01DAAF81E00B8F83210B9F80400B0EB510F02BFE8
:2004DC00B9F80600B8F83410884202BFB9F80800B8F83610B0EB111F1DD09AF81000012898
:2004FC0004BF9AF811000F2807D09AF8150020B10F218AF81A10FE2154E0FC21404610F022
:20051C00E3FAF08A0090B38A728A318A98F8060000F0B0F991E1102144E0E87D10F0090F71
:20053C0003D116208BF80C007AE14A78087802F00702104008707A7B0240FA7211D0501EB4
:20055C0002420CD0520704D5B87B10B10421F97205E0F97A0220014219D14008FBD1F87A7C
:20057C0008B9B87AF872F87A042803D1404611F0C1FCA083F87A00F081F93871A28BB97B43
:20059C00012313F03FF9218B814202D208E0F872E5E7A28BB97B3879012313F033F90146D3
:2005BC0079801721404605B0BDE8F04F10F08CBA48780A78824207D100F0070010400870EC
:2005DC0033D0431E18420FD01E221821404614F099FA98F80610012301221E200CF0C6F8E7
:2005FC00387B40F0400017E1F87247F6FF728878C97800EB012038813989B8F80800091A09
:20061C0089B2914206DB282001218BF80B008BF80A1012E10120B871F97A042903D1404603
:20063C0011F068FCA083F87A0BE09AF81100162806D1BB7A98F806101A4600200CF096F81C
:20065C00B87A3871A28BB97B3879012313F0DAF8218B814206D3A28BB97B3879012313F017
:20067C00D1F8014679800121387B40F0400038733170E2E0142B04BF9AF80600002806D169
:20069C003D2101208BF80B108BF80A00D5E00A78487802EB002262828878CA7800EB02205B
:2006BC00E0824A79087900EB022020828879C97900EB0120A08208F5B07108F5B0708A8A09
:2006DC00C089B97A904288BF1046042905D140F691229042B8BF4FF42960E28BE083904270
:2006FC00B87A14BF01250025042805D1404611F001FCA28B90420AE008F5B07008F5B071E4
:20071C008089CA8AA18B904288BF1046884214BF01210021A0830D4308F5B07008F5B07137
:20073C0000894A8A218B904288BF1046884214BF012100210D432083A28BB97BB87A01239B
:20075C0013F060F8218B814206D3A28BB97BB87A012313F057F80146798008F5B07008F577
:20077C00B0724189108A628B814288BF01466183914298F8063014BF0120002005438A42F4
:20079C0033490A6802EB4311628B8041121DC00F0A7610B1404614F053FC009814280ED195
:2007BC0045B1E08B0090638BA28B218B98F8060000F068F8152140460EF0DCFB33E01DB10D
:2007DC00387840F008003870397841F02001397033E008780E280ED00F2809D0122804D0FC
:2007FC0014280BD0162811D027E00021317224E00120307321E0032169751EE0387840F033
:20081C000200387040F01000387016E0387B40F00200387340F0100038730EE08BF80C300C
:20083C00404612F06FF840B9074800784FF4804105B0BDE8F04F0BF061BD05B0BDE8F08F5E
:20085C008C230020524F00206E4F0020144E002034240020DFF800F0D1920010DFF800F014
:20087C00AD710110DFF800F00D720110DFF800F021720110DFF800F0E5BE0010DFF800F02A
:20089C00BD8F0010DFF800F065BF00102DE9F84F012014F023FC012819D1DFF8A0462078DC
:2008BC0000210BF03DF95FEA000804BF002016F00DF8002088F8080008F1040011F08EF85F
:2008DC0006F058FB050003D1812000F05FFB2EE301206871DFF86826DFF868064178491C1C
:2008FC004170A87988F80A0040202178117005F597740CF0A9FE2860D8F854104A78D8F810
:20091C005000D1061AD5806D01680A79032A1CBF002015F0DBFFD8F85000816D90F87C00B3
:20093C000A6802F1080601281CBF002015F0CEFFD8F85000D0F88410286846E0C06E016869
:20095C000A79032A1CBF002015F0C0FFD8F85000C16E90F898000A6802F1080601281CBF26
:20097C00002015F0B3FFD8F85000DFF8DC25D0F8A0102868DFF8D495C16096F82670138864
:20099C00032F22D8DFE807F00205101801F5B06101E001F53471C160B9F80000E087B9F8B5
:2009BC000010A5F8741113E0E3871188A5F87411C26802F5355206E0E3871188A5F874111E
:2009DC00C26802F6B872C26002E001F5B061C1603078DFF87C95DFF87CB5C0F38010207018
:2009FC000622B11C05F5947016F056F9042206F10E0105F1240016F04FF9D9F80000AF7906
:200A1C0000F10C03042206F10E0103EB471016F043F9D9F80000AB7900EB4317032206F1B1
:200A3C00120107F1100016F037F905F12C07707DB870022206F1160105F1300016F02CF988
:200A5C00022206F1180105F1320016F025F9022206F11A0105F1340016F01EF938896884D0
:200A7C00022206F11C0105F1360016F015F9B87879894000B8700901B88879814000B8808C
:200A9C0089B2F8884000F88003046A8C521CDB0B5A438A4201D280B250B99BF800008021CB
:200ABC000BF02CFC2846BDE8F44F3B2115F01DBC05F12E01284615F0FBFC0520A88128461C
:200ADC0015F02EFF052206F11E0105F1610016F0E3F896F823004009387015F00FFB6882B8
:200AFC00B8F82A10401AA08105F1610196F82300DFF8644400F01F00F873284613F09DF96C
:200B1C00D8F854104A78D8F85000D10647BF0022806D0022C06E1C2601680A7141F62102E7
:200B3C00A9792068714342520021AB7973430344001D5980AA7972438150D8F85420DFF8AB
:200B5C001C045178CA060DD5DFF814148A7851060AD5DFF81024138841F20A418B4208BFEF
:200B7C00DFF80404C5F89C01D5F89C11284688472268A97902F10E03714358540021AA7915
:200B9C002068DFF8E83372430244D173187878B1B88868B979730120288168812846D5F88C
:200BBC009C2190472168AA7901F10E0372439854A8792168704301F10E02135C7B73D8F8A9
:200BDC0054104A78D1061AD595F8960108B915F07DFEA97920687143014495F89601421E81
:200BFC000A74A879216870430844002141742268A97902F112007143002242522AE0D8F8E7
:200C1C005010236891F8402018440274A879216870430844D8F8501091F841204274D8F8C9
:200C3C0050002168AB79403001F1120273434188D15205F5CB710078012200F003008240FD
:200C5C000A70D8F8502092F84000800814BF012002200871A979D9F800002268DFF810A3D6
:200C7C0000EB411302F1140C71434CF80130A97971431144BF4A8A61DAF81410097895F8BA
:200C9C0006E0CA074CBF102200228B074CBF202300235FEA417C4CBF4FF0400C4FF0000C38
:200CBC0009074CBF8021002113434CEA030308304FEA4E1E0B4343F00F0300F80E30D9F832
:200CDC000010A87901EB40120B215172D9F80000AA7900EB421104208872D9F80020A97937
:200CFC0002EB4110A44A1378012B02D10121C17203E0DAF828104A78C272D9F80000A979F7
:200D1C0000EB41121F201076D9F80010AA7901EB421000214176A8790BF0FEFFA979D9F88E
:200D3C00002049015050A9794B01D05820B90721284615F0DAFAFAE09048026802EB011095
:200D5C0000F028F98D4AA8791368D9F8001003EB00120B1D40011A50081DAA7952018058CC
:200D7C00F863AA7952018858786404219BF800000BF0C4FAD8F8540042782168D00648BF15
:200D9C004FF0020B0BD4A87970430844027C02F00302022A14BF4FF0040B4FF0060B734B1C
:200DBC00BA881878934410B10AB9F888834498F80D2090070AD50521284615F096FA98F8B7
:200DDC000D0000F0FD0088F80D00B4E0688A00FB0BF04FF4C872B0FBF2F2521CC5F818B0F5
:200DFC006A6140F6C41CA8792B687043009001F1080ED8680CFB0B0B0098ABEB0202A2F5D1
:200E1C00A8624EF8002001F10802A87906FB00FB52F80B00986001F10C02A87970430C31CF
:200E3C00135C03F0EF030B54A8792168704301F10C020C31135C03F07F030B54A87921685C
:200E5C00704301F10C020C31135C03F0F00343F002030B54A8792168704301F10D020D31FE
:200E7C00135C03F0F00343F001030B542068A97900F10802714350582A6810616B69D9F8C2
:200E9C000000AA7997F802E05B0000F1140152010CFB0E3303F5F6638B5095F89611042919
:200EBC0007D1A979490100F11402535803F561635350A97900EB4110C27C02F0F00242F00F
:200EDC000402C274FB88D9F80010A879DAF8307001EB4012386843436427B3FBF7F30CFB35
:200EFC0003F0A0F59660D061A87901EB4010C17E01F0F00141F00401C176A97920682A6800
:200F1C004E438119516028460E210FF0DDFD1C4907200870404615F05EFFAA7900214046AD
:200F3C0011F0E2FA28681749174A41618261BDE8F14F04F0DDBABDE8F18F00BF70240020DA
:200F5C0072240020684E00206224002060240020342400206E4F002030240020BF2C0100EA
:200F7C008C230020504F002037210100784E0020989B01005C4D0020734F00208C4E0020AF
:200F9C006F4F0020D941010002048080DFF800F09D920010DFF800F051A5001081680A4A26
:200FBC001160C168094A11600169094A11604169084A11608169084A1160C169074A116083
:200FDC0000790749087070478C4F0020904F0020944F0020984F0020804F0020844F002017
:040FFC009C4F0020E6
:20100000B41200001810000015AB0110FDB301106DC00110FDAE011099B5011059BA0110D3
:0810200039BA01102D00000097
:20102800B01200003C100000B1C00110A9BF011067C0011069B80110B9B9011099B901104F
:041048003000000074
:20104C00B012000060100000BDC00110CDB30110D9BD01106DB301108DB80110D9B9011062
:04106C00310000004F
:2010700000000000E818002004000000000000000000000020000000E8C90110300000002A
:2010900028100000F01800200400000000000000000000000C000000D8CA01101800000005
:2010B0004C100000F818002004000000000000000000000024000000F0CA01101800000089
:2010D00000000000001900200400000000000000000000001000000018CA01102C00000094
:2010F0000010000010190020040000000000000000000000200000006CCA011024000000F8
:20111000FFFFFFFF181900200400000000000000000000002800000090CA011024000000B7
:20113000FFFFFFFF201900200400000000000000000000001400000008CB01101800000036
:20115000FFFFFFFF2819002004000000000000000000000058000000B4C901103400000004
:20117000FFFFFFFF301900200400000000000000000000001000000020CB011018000000D2
:20119000FFFFFFFF381900200400000000000000000000001C000000B4CA011024000000FF
:2011B000FFFFFFFF401900200400000000000000000000003800000044CA01102800000027
:2011D000FFFFFFFF481900200400000000000000000000005400000078C901103C0000009C
:0811F000010000007C8D0100EC
:0411F80001000000F2
:0411FC0000000E00E1
:0412000000000F00DB
:0412040032000000B4
:0412080001000000E1
:04120C000C1800209A
:0412100000020000D8
:0412140000000000D6
:0412180001C90110F7
:04121C0000000000CE
:0412200000000000CA
:0412240008000000BE
:0412280000002200A0
:04122C007416002014
:0412300000000000BA
:0412340000000000B6
:0412380008000000AA
:04123C00B4170020C3
:0412400000000000AA
:0412440000000000A6
:04124800080000009A
:04124C00000000009E
:04125000000000009A
:041254000000000096
:041258000000000092
:04125C00010000008D
:04126000DC16002078
:041264000600000080
:041268000100000081
:04126C0060150020E9
:04127000000000007A
:041274000000000076
:041278000002000070
:04127C00000000006E
:02128000290043
:02128200010069
:02128400250043
:02128600300036
:02128800310033
:02128A002D0035
:02128C0001005F
:01128E00015E
:0812900003000000108D0100B5
:0812980000000000000000004E
:0412A0000000010049
:0412A4000000030043
:0412A80013C401105A
:0412AC00616E01006E
:0412B000B812000070
:0412B400B81200006C
:0412B8000000000032
:0412BC00AC1800204A
:0412C0002970010090
:0412C4002000000006
:0412C800788C01001D
:0412CC00A88A0100EB
:0412D00029C101101F
:0412D4006B0D01009D
:0412D8007F1301007F
:0412DC00A1C7011095
:0412E000A3C701108F
:0412E4000000000006
:0412E800AF8C0100C6
:0412EC0078880100FD
:0412F00090880100E1
:0412F400608801000D
:0212F8000200F2
:0212FA000900E9
:0212FC000100EF
:0212FE000000EE
:0113000001EB
:04130400A56F0100D0
:04130800E14C0100B3
:04130C001562010065
:0413100095510100F2
:04131400194D01006E
:041318004139010056
:04131C0031EB0000B1
:041320000173010054
:041324008120010023
:0413280015C70110D4
:04132C0025C70110C0
:201330002DE9F04FC24CDFF8048320788B464FEADB31ADF1140DC9032AD1A0695FEADB017A
:2013500010D25FEA1B1038BF0020C0F07C82A07B012804D14146087808B90DF02FF88BF0E2
:20137000080B6EE288B115F08DFA071C0DD0F87A58B9384616F0D5F87A68B97A388907F094
:20139000D9FA786808B115F029FF8BF0040B58E20DF036FB0028039000F0518207460120C6
:2013B00004903878B03800F0D181401E00F0C5811F3840F03782B87866784FF0000A0A2852
:2013D0000FDC0A2800F08780002800F08581401F00F07681401E00F04481C01E00F02A81F9
:2013F000A8E10B386DD0C01E00F0A281401E0DD0401E40F09F81227815F044FA002800F005
:201410009781104604210AF07FFF91E1002E55D0B88812F039FE051C00F08C81B87A4008DB
:201430000FD36E796EB1012E0BD0F868800A08D206F00106A81D524631460DF001FC0028F3
:2014500037D1207A022802D1B87A000931D3BE886D790C2015F0B2FE07F10808071C00F076
:2014700067813E815146BD72B8F1000F39600846F87209D04046082115F09EFA786020B910
:20149000384615F0ABFE53E17960A369002B08BFA76103D01C4623684BB92760384616F02E
:2014B00040F842462946304607F044FA40E11C46F1E7B888032116F055FC3BE1B8880521AA
:2014D00006E015F02BFE002800F032817889049916F048FC2CE13D466878002840F02881C4
:2014F000A8794008C0F0248168465146082216F070F8B88812F0C8FD071C09D1227815F09E
:20151000C1F9002873D0104604210AF0FDFE6EE0686900284DD004465146062204F11100B3
:2015300015F0B6FAD046F0B12046062215F0B0FAA8B9207C5646113400F00109761C204622
:2015500049465246F6B226700DF07AFB10B9002EF4D104E01EB1B8F1010F02D006E0DDF8EF
:20157000108056466E61B8F1010F22D0686950B30646307C062206F1110100F001008DF842
:201590000600684615F08EFB787906F11104012805D107F10C00B91D062215F083FBB81DA3
:2015B0002146062215F07EFB307C40F00200787109E07879B91D062200F001008DF80600F3
:2015D000684615F06FFBA879C00839BF387900F0FD00387940F002003871A879000939BFB1
:2015F000387900F0DF00387940F020003871A8799DF80710C0F3800008438DF80700A879B9
:20161000000905D39DF8070040F008008DF807006846294605F0A0FD18B9A88812F068F867
:2016300086E0A88813F0AAFC82E0C0465A4F0020B8120020F978381D0DF1090201F001017E
:201650000DF0FEFA002873D19DF80910480007F10C0200EB810025300421C0B208F062FE6D
:2016700066E0B88813F08AFC16F078FB002861D1E07A012816D0207B01280ED0734C564612
:20169000354614F8010F012803D1284609F02CF926706D1C062DF4DB0DE00FF029FB56464D
:2016B000267308E015F092FB514604F120000622E17215F08EFF14F0DDFB11F0ADFF39E0AC
:2016D0007878002836D1F8787A893B7B391D00F0010009F08BFD2DE0787858BB16F03AFB9F
:2016F000814616F033FB804616F02CFB8DF8080010214A46022008F015FE03201021424695
:2017100008F010FE0499042002AA08F00BFE9DF80800012803D09DF8080003280AD104986D
:2017300013F056FE02460620014608F0FBFD01E0049EB2465646049674E03879002871D17D
:201750007888F9883A8910F07DFE6BE03D462879401E2BD0083802D0743856D05DE06878F1
:201770001A284ED06888804614F050FC801E0ED0401E52D1388901284FD1788903284CD1A3
:20179000F86882780421404611F097F845E02889012842D1688903283FD1E86880780028F6
:2017B0003BD16888049A10218046ECE7297A688805F108060829814623D114F027FC801E6D
:2017D00002D0401E18D01CE068891021002211F074F8484612F058FC98B141460F7847B9F9
:2017F000417901F00102811D1046049A15F036F907E00498A07304E070880421002211F0AB
:201810005CF8688811F074FF07E06C88204614F0FDFB0146204615F043F8297905F1080036
:2018300016F08CFA049838B909480078FF2806D0039914F093FE02E0039814F07FFE8BF40B
:20185000004B1FFA8BF005B0BDE8F08FD7120020811900202DE9F843040014D1002015F09E
:201870003BF810E0204611F053F8012808D063E08A0740F1628101F0FD0101700020B071F9
:20189000204610F0BBFE04F16605687D002853D0697CDFF8C894022904F1EC0704F59E784F
:2018B00004F5B07604F5C67035D0042947D005295DD0062900F08D800729D3D0092900F005
:2018D000FA800B2900F0C5800C2900F016810D2900F0D5800E2900F0F8800F2900F0358161
:2018F000102900F04F81112900F06781122900F01C81142900F09281162900F0668117296F
:2019100000F08181FC2917D0FD2900F0A081FE2900F0AD81A2E7287C012809D199F8030079
:20193000002813D01621204614F0E5FC012004E0204610F046F928740020BDE8F283287CE6
:20195000012840F0B08199F80200002800F0F5800021A971FF22FC2120460DF057FFA07982
:2019700004F1B80204F1B00116F0E4F98BE7287C012811D199F8020028B1012184F8941050
:20199000002038607860B87A01286BD1FF22062120460DF03BFF76E704F1E706307801281B
:2019B00009D1204612F045FF0128C5D10020B87201212974C0E770780028BDD004F1C702C7
:2019D00004F1A00104F1D70016F0B0F90120307059E7297C012940F06A8199F80200002840
:2019F00040D0608CE083204610F008FE01202870204612F007FA0121A971397A787C0129DD
:201A100010D1C00609D5002188F80510D8F8001098F8060049080FF0DDFBA079002116F09D
:201A300081F910E0C00609D5D8F80020DFF8300304F5A1735208214615F0F8FCA07901228B
:201A5000002116F06BF9002038723873F872B87219E7287C012806D1F87A012804BFFF22BF
:201A7000FC2195D069E020460FF04CFB012821D10020F87284F894000120287403E7287CDF
:201A9000012811D199F8020048B1002184F8941001202870204612F0B5F90121A97199F8C2
:201AB0000300002810D148E0204612F06DFB2874E88A288340E7287C012840F0FC8099F828
:201AD0000200D0B3608CE083DAE6287C012840F0F680387C022804F1FD0204D1A17900200E
:201AF00016F018F9CCE6032840F0F280A1791A2016F010F900203874C2E6287C012804F2A6
:201B10000D1140F0F0800878012804F5897240F0F0804878012807D15088009000201388D6
:201B3000CA78A17916F0F2F8AAE6287C012840F0EF8099F802000028F6D1288B401E28830F
:201B500080B20028B6D12221EDE6287C012840F0E38098F80900012802D131780F291BE0AD
:201B700098F80800012826D1002188F80810288D000900901A20AA8CEB8CA179520816F035
:201B9000C1F87DE6287C012840F0CA8098F80900012810D1317810291CBF002014F09CFEB4
:201BB000002088F80900298D09090091AA8CEB8CA1797078E2E7287F73E7287C01283FF49A
:201BD00061AF20460FF0E0FE71E7297C012940F0AB80017B4A061DD4CB0709D501F0FE01C3
:201BF00001730123A179707801220AF0C5FD47E68A0740F19E8001F0FD0101730123A179AE
:201C100001221A20F1E7297C012940F09F80017B4A0692D501F0BF01017331E6297C012923
:201C300040F0968001788A067FF522AE01F0DF010A0701700AD501F0F7010170F08B00906A
:201C5000738BB28B318BA079FEF722FE16E6A97EFF2220460DF0DAFD0EE7FF2220460DF058
:201C7000D5FD012067E6002014F036FE64E6A97E0C2918BF0E29F0D00F2902D01429ECD045
:201C9000F1E7FF22FC2120460DF0C0FDB8F812000090B8F81030B8F80E20B8F80C10A079F9
:201CB000FEF7EEFD48E620460CF0AFFCFFE6204611F068F9FBE620460EF0AEFFF7E6204617
:201CD0000EF074FF28740121E88A2883397433E6288B401E288380B20028F8D1A1792220A7
:201CF00016F018F82FE70120887020460EF04EF9DDE6288B401E288380B20028E7D150887B
:201D1000009022201388CA78A17915F0FFFF1AE7204611F0D6F9CAE620460BF0A5FBC6E653
:201D300020460BF0F3FBC2E6162120460BF054F9BDE6288B401E288380B20028C7D1A1794C
:201D50000123012222200AF017FDFCE61721ECE7142120460DF014F9A9E600BF5C4D002033
:201D700029FF00002DE9F04F0F46CC4C0168E16241688068ADF11C0DE060C448A160804751
:201D9000C348E16A0160A168DFF80CA34160E168DFF800938160CD49002FA346C1606FD02A
:201DB0003D68E8788DF80C0028798DF80D0003A815F0A4FFA86808B1C5490160E86808B1B6
:201DD000C4490160C44C2878207068786070A878BE68A0703178E170736863607269626109
:201DF000B168A160F168E16031692A6A21617B68A2632E69E6621868A06168692063A869C2
:201E10006063786886681EB9002014F065FD00E026627868C06818B9002014F05DFD00E025
:201E300060627868006918B9002014F055FD00E0A0627868406818B9002014F04DFD00E0B7
:201E5000E0612869E062F86881680E6806B9D14ECF494FF001084E60C66881F8018036B99C
:201E7000002014F039FD4D462E68F86801E04D462E6000685446FB68A0615868E06107E01F
:201E9000002014F029FD4D462E684FF001085446361DC6493668621C04F114035020B047EC
:201EB00010B1286880688047DBF808008047C14E002781463B46BE487770694620610422AF
:201ED0003370384613F0C4F90098B0F5801F0CD020B913F003FD07F003FF08E012F074F82E
:201EF00015F044F80420708001E013F0F7FC3846B94EA0602B68B760986980477060AE48E9
:201F100080F8008039464180142015F057F9FF211422A06215F05DFBE01CFF21022215F0F6
:201F300058FB142015F04AF9A44F386038680021142215F04EFB002002F024F9404612F03B
:201F50004DFB9F480188FF2906D1022101807822001D002115F03DFB032015F0CBFE0420EC
:201F700015F0C4FE052015F0BDFE062015F0B6FE07200FF093FA934E0820307006F12C0047
:201F900015F012FA3178062013F012F811F044FB263605200621324614F0CAFB38B1002012
:201FB000C0F10501401C06F8011B0628F8DB2B6885495E6809200DF10E02087001AB102031
:201FD0000021B047A06AE1690A260A309DF80E20761E00F8012BF9D1891EE161DBF80C10FE
:201FF0004846884704F120002B68626A059040461E69DFF8D88104F120034146B04710B1D7
:20201000286880688047B84613F020FF5FEA000903D00BF005FD4FF0FF39002642E00298D6
:20203000216910F8062CA0F10C07032A03D1002938D0884736E0A16A9DF810C00A223046FF
:20205000491E11F8013F9C4506D0521E00F10100F7D14FF0FF0A01E05FFA80FA2868BAF1A8
:20207000FF0F00F108001BD0387912F0C1FDB979012904D0022904BF0299887001E00299C0
:2020900008700299504614F069FA0BE041490010F84400205C1900203C1700209013002074
:2020B000006880472868C36904A902AA0DF10F0098470028B3D0D8F800007700C35B6BB9AC
:2020D000761CF6B20A2EF8DB2BE0C0467C7D0100C1580100F56B0100381600200A2E20DA85
:2020F000DBF808008047D8F80010002231F807A0CA53DBF80C108847354850F826202670E0
:202110005146304690470646FF202070DBF808008047D8F800107A5A16437E52DBF80C1062
:20213000884713F093FE0746B9451AD007B9294FE069B84238BF071CDBF8080080478146F9
:202150002868016A206A8847626A28681F49059B521C6262C6683846B047DBF80C10484665
:202170008847A768296860691431AFB9D8F800000A270026835B33B10969606988472968E6
:20219000D8F8000014317F1E06F10206F2D107E0B818002017F000000969884729681431C6
:2021B00009684FF0FF3088472EE7C046856101006D6C010058190020AC1500205824002077
:2021D0002C140020B812002075240020394C0100308A01008EC2F528D42300202DE9F84FCA
:2021F000DFF84044A178FF2904BF002014F074FBA07814F09DFE044604F1680604F5C97542
:202210003168086804F1900710B10021E18310E0B07B002804BFB07E00280AD139780029C2
:2022300004BF2878002804D1207F012804BF608CE0832189E08B4118491C6181204614F035
:202250007CF801281EBFDFF8E0030178012904D121890020491CE08361814FF6FF78B07E64
:2022700001280DD1B28B6189208915F033FD38B1218960894A1C93B298422CD0B08B20E00A
:20229000387801280DD17A886189208915F022FD38B1218960894A1C93B298421BD07888D2
:2022B0000FE02878012816D16A886189208915F011FD80B1218960894A1C93B298420AD0B4
:2022D000688892B2904206D04044608180B215F0FDFC4044E083287801280DD12189688855
:2022F000491C89B2884207D16A792A71002028701346A1790AF040FA04F59A71087920B159
:2023100020890021401CE183608104F12E07B07E01283ED12289B08B521C92B2904238D13F
:20233000608104F18601204614F0C8F8B08C608400212177E183E08961894118A181B08BC0
:20235000218915F0C3FC8046B988308C728C01FB0808F08C8A4204BF3989884202BFB38C9B
:20237000F9888B4207D000090090B38CA1795208002015F0C7FCB07F3870718CB980B08CAB
:20239000F8802046F18C398114F0D0FA0220B07601E0B7F80480E28BDFF890C2DFF890925F
:2023B000501C00FB08F040F6C41808FB00F100912368D3F80CE07144D960DCF800E09D494D
:2023D0009EF800A00B884FEA9A1ABAF1030F15D199F80FC05FEACC7E48BF00230ED45B1C1E
:2023F0001FFA83FCBCF1010F11BFB4F812C004F59A7EBEF806C00CF2DC5C01E0B4F812C008
:202410000CFB00FC4FF4C87EBCFBFEFCDFF828A20CF1010CC4F814C00B8084F820204FF0AE
:202430001C0BA379A0610BFB03F3DAF80010226801F1080001F1080EC0581061A379D2F86F
:202450000CC060690BFB03F3ACEB00004EF8030001F10803A0790BFB00FC53F80C0090609C
:2024700001F10C02A0790BFB00F00C31135C03F0F00343F002030B54DAF80000A179821C8A
:202490000BFB01F100235352287908B914F024FADAF80000A27900F1100128790BFB02F25E
:2024B00040088854A079DAF800100BFB00F00844002141742879042814D1A079DAF8001028
:2024D0000BFB00F001F110021031135C2A7A43EA82030B54A279DAF800000BFB02F2024460
:2024F00020205074DAF80000A27900F112010BFB02F200238B525149A2790968520101F172
:202510001403D4F814E053F802C00CEB4E0C43F802C0B27E022A08D1A27952019E583B782D
:2025300008FB036601F114039E5099F80F20D30749D5A2790BFB02F200F1080308309E5831
:20255000A6F5A8669E5001F11406A27923680BFB02F282589A600098121A1A6101F114020D
:20257000A0794001135803F5F66333502879042807D1A079400101F11405135803F5616381
:202590002B5001F11400A27952018058C4F834012B4ABE88176B3868A57946436420B6FBBA
:2025B000F0F601F11C036D0108FB06F0A0F596605851A07901EB401022490B78012B1CD11D
:2025D0000121C1721CE02879A37904280CBF4FF4AA504FF4E66001F114025B01D258BB884F
:2025F00008FB03F3101AA3F516739842D0D30821204613F080FE012011E0916A4A78C272F7
:20261000A179DAF800000BFB01F281182268516007200D490870204611F094FE0020BDE83E
:20263000F28F00BF684E0020784F0020084F00205C4D0020642400203024002034240020B9
:20265000989B0100734F00206F4F00202DE9F84F040004BF002014F03FF904F1500941F671
:202670002300D9F8006030800021718015F02AFB00F57A60B0600221822030737173B068C7
:20269000217E2061B1730020F073D9F80410087D022804BF002014F01FF9D9F80400007D7E
:2026B000012802D10020002104E083280CBF0620022020213074717404F1240BD9F8040068
:2026D000DFF878834178480615D5D8F83410486902689BF80500511C00EB4000095A718272
:2026F000607DC10604D5E07F40F04000E07702E040F04000607506F158050020287104F1FE
:2027100030009BF81A10890001F00401297128614FF01E0A607DC10644D506F1300030623D
:20273000D9F8040041788A060BD5617D01F0FE016175407810F0030F03D1E07F00F0FE00FC
:20275000E077607D12F06BFD0246A275521C307CC0F38001002392B200F0030011F07AFF4A
:20277000A0831E23A08BE27D00F5FA7100F5FA7090FBF3F34A430AFB13006283C0B208B176
:20279000C0F11E008018A183608380B2B168C03001EB8001A9600220E871E17F41F00801F5
:2027B000E17714E000203062607D40F001006075D9F804104A78510744BF40F0020060751F
:2027D000607D12F02CFDA0750020A860E871A07D217D60F3050106F188002175017003218D
:2027F000627D8170427006F128079BF81A10890001F0040141F0030181709BF81B20D2001F
:2028100002F00802114381700021C1708160BBF81C00C0F30B00ABF81C00D9F80410CA7DBC
:2028300040EA0230ABF81C000022617D01F0FE01204609F0AFFA40F61200B0830021F18365
:20285000A020706207213970607DC1064CBF00200220787041F62401E07D788039810020A1
:202870007881B168608B01EB800139610220822139757875002094F8211001F03F01B975A8
:20289000F875D9F80410887D012818BF022804D100F07F00401E002104E083280CBF062064
:2028B0000220202179763876D8F8340041690A689BF80510501C01EB4101405A78830021F0
:2028D0006961D9F80400417811F0030F1BD013F047F86861D8F818000078C1074CBF102123
:2028F000002182074CBF2022002243074CBF4023002300074CBF802000201143194301430E
:2029100041F00F01297600206876D9F80410887C00F0030068769BF81A10890001F00401D3
:20293000084368769BF81B10C90001F0080141F01001084368764249087838B1687E40F068
:2029500040006876287E00F0FE002876E07F12F066FC84F82000204609F074FCE07FC106C3
:202970003AD5D9F8040094F820204178521C88074EBFD21E9BF81F008218387EC0F38001AE
:202990000023D2B200F0030011F064FEABF80000BBF8000000F59671C1F11E0291FBFAF18F
:2029B0000AFB012A8BF804A0D9F8042051788A074CBF00214FF4FA710818ABF80000ABF821
:2029D0000200BBF800209BF8040039698218C03201EB8201022001E000210020E961E876F2
:2029F00004F13000A862D9F804104A78687E510747BF04F1380140F02000124900F0DF0005
:202A1000E9626876022294F82000A17F60F30501A17740F60B00B8840021F984F96229700D
:202A30006A7094F845006880D9F804104878810744BF012068800020BDE8F28F989B010040
:202A5000784E0020D04700202DE9F84F0E46700688B026D5DFF848231078002109F066F8AD
:202A700004001ED0DFF83C0301688847054614F09DFB6168884204BF40F2014015F01EF93A
:202A900000202072201D0EF0AFFFC7490A6828469047204614F0A5F9FF22432120460FF0D2
:202AB00029FDF0070BD514F081FB28B100218160BE48006800B1804786F001006CE1B0074D
:202AD0000FD500210023069105910491039302910191009101223C2015F0ECF886F00200D0
:202AF0005AE11E277007DFF8C88240F19F80B1480078002107918B4609F018F80446AE481A
:202B10008178FF2904BF002013F0E6FEA07A14F00FFA0546606D807A95F82E91022818BF34
:202B3000032805F5947A06D108F10D0015F0BEF808B908F1070B5146484615F0B3F888B3DE
:202B5000606D807C002818BF012804D14146504612F08AFD04E05246494640460EF0D4FB9B
:202B7000FF283ED007FB00F908EB090706225146F81D14F097F818F8090040F00209F81D42
:202B900007900622616DC87A00F0010085F82E0107F1010A606D00F10C0105F5947014F0E9
:202BB00081F81EE05146484614F031F9C8B15246494640460EF0A8FBFF2812D0474308EBEE
:202BD000070404F10D0015F071F840B904F10D0015F06CF8002804BF607F012801D149F008
:202BF000020905F12C004B46017806914289120905920122698C0491C0880799029140080A
:202C10000390CDF804B0CDF800A00020A97915F051F8D5F89C0169498842A8790CBF0021B0
:202C300001210CF069F986F00400B5E030060FD5002100230691059104910393029101911A
:202C5000009101223B2015F035F886F08000A3E0F0045BD55A490C6808F10D0015F026F846
:202C7000002842D108F1070108F10D0015F016F83BE0606D4178480704F13E0523D528782F
:202C900002281EBF0328687801282DD1697804F1380240460EF038FBFF2814D0784308EB6B
:202CB000000909F10D0015F001F860B909F1070109F10D0014F0F2FF062209F1070104F1C0
:202CD000380013F0EFFF2878022818BF03280BD108F10D0014F0EAFF30B9062208F107010E
:202CF00004F1300013F0DEFF2468002CC1D135484268354800784FF4805111F01DF810B16E
:202D10008E200CF045FD86F4805045E0B00505D514F001FB2D4901200860FEE7700504D587
:202D300009F0F1FA86F4806036E0700405D581200CF02EFD86F480402EE0B1042BD5244CAC
:202D5000206810B1002013F0C7FD4FF0FF3020600020204C0DF0F4FE216851F8202F6846FB
:202D700090471D49086B4A6B24681C4B0090019202936B46C86A1A4A0392ADF81000256815
:202D9000184A19491948A8471949086004F062FD86F4005000E0002009B0BDE8F08F00BF8C
:202DB00070240020981300209C130020204F00205420002072240020684E002037210100AD
:202DD0004C240020784E00206E4F0020FC002043044F0020F04E0020381600209D710100E3
:202DF000AD710100182300206818002088490020EC4E00202DE9F04FADF1240D14F04AFFED
:202E100010F0D4F9071C0CD013F00EFEC84C00258046062134F80C0F28B1491E05F101051E
:202E3000F8D114F0CAFB4FF6F87AA4F800A067600026A660BF4C25707868A060404613F001
:202E500083FF04F118052846314614F01FFFE5600FF0D0FFB84904F134001523324600904A
:202E7000102005F0DBF9B54910200223324605F0D5F9B348B34B0321102212F0C9FDB94D9E
:202E9000B14B0521102205F1080012F0C1FD11F071FFAE490246102005F0C0F911F06AFF18
:202EB000AB490246102005F0B9F9AA491020FB2240F6480305F0B2F9A749102005F0AEF9D2
:202ED00011F058FFB0460346A449CDF8008004221020CDF8048005F0A1F960683146324634
:202EF0006AA312F05BFE0AF1070AA946DFF870B2A06841464FF040424FF0FF3314F0C2FEE1
:202F1000071CF5D0CDF8088004A807A902AA0EF0CBFD002849D19DF810000DF1120111F0A5
:202F30005DFF00283ED1BDF81200ADF8100013F01DFCBDF81000102832D120789DF81C10FD
:202F500088422DD102990888824529D0087891381BD01F3802D020381FD021E00D466068EE
:202F70002A797E2A04D07F2A09D109894DA301E0297A50A300914246012112F00FFE2979BA
:202F900005F1080014F0DAFE0AE04878102807D10820414604F0A8FA02E0084602F0CEFB5D
:202FB000029810B1029814F0AAFAF80FA0D3E06814F064FE00289BD1E068054614F05AFEB9
:202FD000854208BF454602D0856811F0EDFE002DEDD02878C01E08D0401F4ED03D3845D0D6
:202FF000401E40D0401E16D042E06E68606837687F1E03D07F1E06D132A300E03BA3042114
:20301000424612F0CBFD3068B0F1004F30D0706811F0CAFE2CE0CDF80C804A46116803A814
:20303000016057684760039E05AA4046C100401C26FA01F1082802F8011BF7DB05A800905F
:20305000594681220823102005F0E8F8009601906068414601222EA312F0A0FD13F032FDB3
:2030700008F032FE02E013F02DFD01E013F076F9686838B111F098FE04E06868B0F8010009
:203090000FF0C6FC284611F08FFE90E73D3D3D3D3D3D3D3D3D3D3D3D3D3D3D3D3D3D3D3D28
:2030B00000C046C04D54552053697A653A20256400C046C046432056696F6C617465643AC5
:2030D000202564004164766572746973656D656E7473207375636365737366756C6C792004
:2030F0007475726E6564206F666600C04164766572746973656D656E747320737563636512
:20311000737366756C6C79207374617274656400534E562049442057524954453A20256C3C
:20313000752C207374617475733D256400C046C0D8130020D00A00206D1F0100C14F0100EB
:20315000600E0020808B0100B0890100518801103181011021B1001061E800003973000007
:2031700035A30000B01400202DE9FC47B44CB54D2678DFF8D482B54FB549002E4FF4A059F1
:2031900000F01F81072E14D0092E18BF0A2E00F01A810B2E18BF0C2E00F029810D2E00F096
:2031B000EC80112E5CD1AB4A1078002108F0BEFC002878D0C5F80080426D5378016DA64C50
:2031D000DFF89882DB065ED50B4641F2044EB3F802C0F4451FBF5E8B7645B3F832A0F24528
:2031F00006D041F20A4EF4451CBF7645F24502D1A7F800E04FE0002440F2FE364FF0180CEA
:203210000CFB04FC03F1020E3EF80CE0A7F800E0BEF1010FF2D0BEF1000F12D0AEF1020E22
:20323000BEF1010F0DD9BEEB060E1AD04FF48066BEEB060412D04FF44066A41B01D0A41E39
:20325000012C40F2DE80241FFBD040F2FA36A41B00F0F180641E00F0E680E11E00F0D980F1
:20327000A7E0B3F800C040F6010EF44540F0C980641C022CC2DD57E0981C20F80C900FE07A
:2032900001680A710CE0488E388041F20441401A01D0801F01D12C6046E041F206403880C9
:2032B000C5F8008040E06E498978FF2911D0C5F8008008461C226B4B50431A68941C235A1F
:2032D0003B8013F47F4FF4D040F204441B1B012B654976D94FF47F741B1B15D00A3B012BEF
:2032F00017D940F6F6341B1B032B84BF5B1F012B12D99B1E012B64D940F2FD341B1B0BD0A0
:203310005B1E012B05D909E0921C41F20143135202E0941C24F80090296005E0002013F0D8
:20333000DBFA8520FDF738FEBDE8FC474F480078012108F0E9BF4E4C4E4A25684E48006863
:203350000023CDE9002355F8089F4C4B0222C8474B49088035E0092E4ED14A490A6850893E
:20337000002849D0484908780FF074F90021002014F07CFC0020207023E04888388002285D
:203390000DD940F20442801A1BD040F6FC72801A05D0083815D04FF47F72801A2CD1887B34
:2033B000801CC2B2B52AA8BF662088730020488007E0002013F090FA8420BDE8F647FDF730
:2033D000EBBDBDE8F3874888388010F47F4FFAD040F20442801AF4D040F6FC72801ABAD054
:2033F0000838EED04FF47F72801AA4D004E04888388010F47F4FFAD0002013F06DFA852046
:20341000DBE7807B012818BF042801D0A7F8009046E7807B01287FF42FAF981C41F20241E7
:2034300020F80C103CE75278D00647BF0022886D0022C86E24E7002013F04EFA8320BCE754
:203450006F4F0020204F00204B750100504F00205C23002070240020A9080000F15F00001B
:20347000684E002030240020814600006E4F0020F04E002002000080EC4E00209121010061
:20349000424F00203C240020714F00202DE9F04F09AFADF13C0D08900A92388809911E4625
:2034B000ADF81800101C08BF002000F07581017800274FF0010B401C4FF0FF39B846DA466A
:2034D0000A9061E1252940F056810178401C0A902D2918BFADF8068004D10178ADF806B03B
:2034F000401C0A9030291CBF4246434604D10178401C5A465B460A902A29CDF800804D46D1
:2035100017D1049330680A9BCDF80890C01C20F00300001D306050F8044C1978002C0094FD
:2035300003F101000A9018D5ADF806A06442009413E044460AE0600000EBC4004018A0F11B
:2035500030040A9801780094401C0A90302901DB3A29F0DBCDF8089004932E2929D1017861
:20357000401C2A290A9011D13168CDF80880C91C21F00301091D316051F8045C002D48BF9C
:20359000454601782B46401C0A9011E0454643460AE0680000EBC5004018A0F130050A98E9
:2035B00001782B46401C0A90302901DB3A29F0DB02930AB1224604926C2904D04C2918BFB5
:2035D000ADF8048004D10178ADF804A0401C0A900BA8CDF80C800FAB07906429059300F0BB
:2035F000828069297FD0BDF818C075296DD0782969D06F2965D070294ED063293ED07329DC
:2036100022D00A98401E0A90099801281AD966490C68B5F1FF3F03D0A84288BF6D1C05D8E0
:203630006FF00041814294BF0D1C099D029508A80AA932466B46A04709993F18091A039834
:20365000099165E0454617E03068C01C20F00300001D306050F8040CBCF1010F014608B9A8
:203670004FA00146079113F08BFC0390B5F1FF3F4FD0A8424DD9039528464AE03068C01C98
:2036900020F00300001D306010F8040C8DF82C005D46039558463CE0082035680490E81C3F
:2036B00020F00300001D306050F8041C082210230FA80CF0BBFF401E0790402101700798A2
:2036D00023E0082302E0102300E00A233068C01C20F00300001D306050F8041CAA42BCBF87
:2036F0002A1C04920DE03068C01C20F00300001D306050F8041CAA42BCBF2A1C04926FF0B3
:2037100009030FA80CF092FF07900599081A0390009C241ABDF8065000945DB906E008A83A
:20373000202109AA12F00EFA7F1C009C641E0094F5D50398401EB0F1FF3F03900FD1BDF864
:20375000060001281CD10098401E009018D408A8202109AA12F0F6F900987F1CF4E7079889
:20377000017809AA08A812F0EDF90798401C079003987F1CDEE708A809AA12F0E3F97F1C0C
:203790000A980178401C0A9000297FF49BAE089808B14146017038460FB0BDE8F08FC0466B
:2037B000286E756C6C2900C0888D0100BB482DE9F84F0025BA4CB849056094F8E200002890
:2037D00000F06581012800F02F81B64E02283CD0032840F05C8151F8250CD4F8B810002991
:2037F000A0F5C060C4F8D400B8BF49420028B8BF4042814226DA4FF08057D7F8A401456857
:20381000B4F8BC0030214FF47F42082300903046A847D7F8A4014568B4F8C00004214FF4C6
:20383000F802122300903046A847D7F8A401B4F8D070456820214FF440620A2330460097E7
:20385000A847012584F8D8501CE151F8258C13F062FD2F4600B901273946934F38680028C7
:20387000FCD0B146012609F10409D9F82CA03E6009B113F056FDCAF30720C4F8BC0013F09D
:203890004AFDAA4600B9B2463B68002BFCD0D9F800B0BAF1000F3E6001D013F042FDCBF3EC
:2038B0008440C4F8C00013F036FDAA4600B9B2463B68002BFCD0D9F81C90BAF1000F3E6072
:2038D00001D013F02EFDC9F38120C4F8D000B8F5C061C4F8B81000F09C8094F8D80068B90D
:2038F000C4F8D410D4F8C000C4F8C800D4F8BC70C4F8C470D4F8D030C4F8CC30D4F8D400FC
:20391000D4F8BC30002854BF02226FF0010204F1C8010F6800EB40008018421000EB9272E5
:2039300007EBA2000860D4F8C810C4F8C43000291CDD1E293CDDD4F8CC0030B93429B4BF54
:2039500015391E21C4F8C81025E02A29BABFD4F8C8000B381E20C4F8C800D4F8C4003F28D5
:20397000B4BF401C3F20C4F8C4001FE0D4F8CC00032812D011F10B0FC6BFD4F8C8000B3075
:20399000301CC4F8C800D4F8C4000028C4BF401E051CC4F8C450032508E011F1150FC6BF02
:2039B000D4F8C8001530301CC4F8C800C4F8CC504FF08057D7F8A401B4F8C43030214FF4B8
:2039D0007F424568374800930823A847D7F8A40104214FF400321123456832480096A8474F
:2039F000B4F8C860D7F8A40104214FF4F802122345682C480096A847D7F8A40120214FF43A
:203A100040620A23B4F8CC60456826480096A84701E084F8D85040F2FF50404502D8801C4E
:203A300040452FD2082030E051F8251C1F4F4BF2F5204843060A3868C0F3814001280CD1B9
:203A50001B4800680068804710F0BAFC13F06FFC3111C010484306EBE03694F8E50030B93A
:203A70001448006820F07F403618760801E084F8E5501148310C0660012741600F4D87603D
:203A9000287808B90B2000E0052084F8E40004F0FDFABDE8F88FC0462D400C402C500C4087
:203AB000A411002000A00C4000800C40B43F0050EC010010102009403C600C401D8C01001E
:203AD000C2480278112A00D070472DE9F047C04A1078002108F02AF804000AD1002012F075
:203AF000FBFE002012F0F8FEBDE8F047FF20FDF753BA04F14C0898F8000008B90121E1729A
:203B1000451C88F80050E9B2E07DD8F80490814209F1400A24D299F80E00401C89F80E0081
:203B3000D8F808104A7AD9F80810520802F0010282F00102101889F80E00A08B01EB8001CD
:203B5000C9F80810627DD30609D5628B98F8003000FB1320C03001EB8001CAF8201032E1A9
:203B700004F1280609F174074ED1A07F3875E17F7975D8F808205278930710D5E27FD306E9
:203B900004D5C01E387501F0EF0179750020386089F873000022797D01F0FE010EE19106A8
:203BB00007D4F08B00B1F07EF875F08B00B1306AF861D8F808004178C8070BD5F18B00290F
:203BD0001CBF306A002805D0F861B07E884238BF0146F975E07FC1060CD5D9F838003178AD
:203BF00000EB8100C9F83800A18CC03100EB8100022101E000200021386089F873100022C3
:203C1000E17F01F0FC01D9E0D8F808104978CA0716D5787D397D00F0F700891E01F03F01BE
:203C300082075CBF891D40F00200420644BF491E00F0BF00787539750020F861F875C2E074
:203C5000A28C2D1AD9F838008907EDB200EB820075D5012D41D1C9F83800A07F00F03F0069
:203C7000A0773875801EE17F7975387501F0F7017975D8F8082053785A0704D5801F3875B7
:203C900001F0FD01797500233A7DF17E9AF8000002F03F028A18521CC0F3800192B200F0B1
:203CB000030010F0D7FC00F5FA70A0841E21A08C90FBF1F18AB2797D01F0FE01204608F043
:203CD00069F8002189F87310F08B00B1F07EF875F08B00B1306AF86175E0022DC9F83800AB
:203CF00026D1E07FC10706D5387D811F3975787D00F0FE00787500233A7DF17E9AF800000D
:203D100002F03F028A18521CC0F3800192B200F0030010F09FFC00F5FA70A0840022797DAF
:203D300001F0FE01204608F035F8707FAAF81A00707F401C451BE8B2012812DD07E0C9F848
:203D50003800E17F707F451BCA06E8B209D5A28CD9F83810C03201EB82013960022189F83F
:203D7000731080B3F969F27EE37FA57F0A445908FA614FEA410AD8F8081049784A0748BF96
:203D90002AF0020A890748BF2AF0080A012807D1307FF875002139602AF0100A89F873101B
:203DB000504611F03CFA05F0C00500F03F0005433D7587F815A000220AF0FC012046BDE8EB
:203DD000F04707F0E7BFBDE8F08700BF6F4F0020702400202DE9F84306460D4670780107B2
:203DF0001DD4D6F80310B44821F07F41203981423FBFD6F8061021F07F412039814228BF42
:203E1000112033D2B01DF11C88425CD3B07A002818BF012803D0022818BF032853D1B07CE8
:203E3000002818BF012803D0022818BF03284AD1307D012818BF022803D0832818BF0328D9
:203E500041D1707A10F0070070723CD03078012107F06CFE04000AD100200FF029FF0446C6
:203E700013F0ADFB844214BF07200D2021E104F1540100200E606072227A012A08BF0C2034
:203E9000F4D0E075727A012383401A4208D0E27D521CE275D2B2012A04BF00F125022276AC
:203EB000401C0328EEDB7078C20619D5317D012909D1102811D012280CD0132804D01528D7
:203ED00004D01D2804D09FE0002007E0042102E0012003E00221A17360E00320A0735DE06A
:203EF000FF22A273307D02281EBF727802F003000328E8D01307E6D408B19006E3D45207D3
:203F100007D516F10C00DED0F07A002818BF01287AD100206075E077707810F0030F26D1DA
:203F3000207D00F03F0020757078820605D44868002804BF8868002801D01821617570784C
:203F500081060DD4307D832818BF032804D1182001216075E17703E0607D40F0010060756D
:203F70007078410716D5E07F40F0020011E0217DC0074CBF0120022001F03F0141EA8011F4
:203F90002175182060750921E1777078410701D50B20E077207D00F0C000A07796F913005E
:203FB0007F2806BF454800780EF0D0FA04F12907387045B14248416B48693978026801EB07
:203FD0004101505C2870B07ADFF8F880DFF8F8903E4D002818BF012809D17875B07AC10707
:203FF00058BFC8460622414604F130002FE005F10D0013F05BFEB8B1B07AC10754BF49464D
:20401000414612F004FF08B9122052E0B07AC10754BF49464146062204F1300012F042FE35
:20403000B07A00F0010006E00622E91D04F1300012F038FE03207875B07A00F00100287021
:20405000B17AC80758BFC84606224146681C12F029FE7078410729D5B07A022818BF032851
:204070001BD1F17A06F10C0201F0010128460DF04BF9FF2811D01E214843054405F10D0014
:2040900013F014FE48B9E91D05F10D0013F006FE0120B8750622E91D04E0F07AB8750622CB
:2040B00006F10C0104F1380012F0FCFD012060720020BDE8F28300BFE0FFFF00714F00201A
:2040D000989B0100344E00202C4E00205420002010B54FF4DF622349234809F079FE2348D1
:2040F0000021017001220223027243760322204904230A70CB700521417707231D491E486B
:204110000B7008240C72062209210270017210BD2DE9F041194A1A493820136854689568CD
:20413000D6681769D2F814C0D2F818E0D2F81C800B604C608D60CE600F61C1F814C0C1F803
:2041500018E0C1F81C8020322031401EE5D1106853689468D26808604B608C60CA60BDE814
:20417000F0810000A09401004804002151030021C10300219803002174030021908D010050
:2041900000C000212DE9F047DFF8AC916B496C4E89F800000922002008600D2369484FF407
:2041B0008D7102704380818067480660B77E67480770FF2FF17E417008BFFF29327F82706B
:2041D000737FC370B57F0571F67F467114D1FF2A08BFFF2B10D1FF2D08BFFF2E0CD15C4952
:2041F0000A7802704B7843708A788270CB78C3700A7902714979417156490278564D574E10
:20421000DFF85C810A7043784B7082788A70C378CB700279534B0A7140794871FF202870C3
:204230006870A870E8702871687100204E490880776B4E49787808703A784D491A70B87892
:2042500008707A6910794B4A411E1170F8784A4988F80000B869086008B912F03DFBF8698D
:20427000464C206008B912F037FB2068DFF810A101688847226852F8041F504688474148FA
:204290004149CAF82000CAF82410386A3F49086008B912F021FB786A3D4C206008B912F08D
:2042B0001BFBB86A3B49086008B912F015FB04F097FA07280CD107F09BFE99F800004FF402
:2042D000804108F021F8BDE8F047002012F004BB31480168884722680746106880472168EF
:2042F00051F8042F00209047F16898F800000A882A4B2B4902431A8038460A6890470C2104
:20431000284813F0AFFC284800680E2112F02EFF284613F0A3FC13F09DFC4FF6FF7223486C
:204330008280002101604FF4005199F80000BDE8F04707F0E9BF00BF6E4F0020044F00203A
:20435000B63F0050604E0020084F00202C4E0020E81200503C4E0020344E0020989B01005F
:204370006C4F00207B4F00200C4F00206D4F00206B4F0020724F0020F04E0020F44E002096
:204390007C4B0020CD710100ED710100F84E0020FC4E00203824002098130020544F0020AE
:2043B0009C130020F84D0020502400200C2400202DE9F84FDFF8B4920F460446F80B80F049
:2043D0000981A54EDFF88482B80F80F0BA80B80880F0AE803809C0F02F81082012F0BAFF20
:2043F000002840F0A080802012F0B4FF002840F09A80684609F0B4FB012803D1009800285B
:2044100000F0918090480078002840F08C8000250124E8B212F078FD48B1837A3BB18472A4
:2044300090F9090004FA00F0C0B210F03FFD6D1C032DEED345460320287405F1AC0013F0D5
:2044500094F883480168002398461A46036050F8081C804940F8088C05F1340013F091F811
:20447000404606F052FE3068006B8047A968401A010BA869C1F1FF3282422CBF08444FF0F1
:20449000FF30A861287F20B1E868A969B1EBC02F25D911F0C3FF414600B12146081C1BD000
:2044B0006E4840F60901018043464380417B04F00F0221F00F010A434273017B03F00F06C1
:2044D00021F00F0146EA01020273436012F0FEFD418811F4406FFBD02C774346AB610FF0E4
:2044F0008DFF5F48444641460460022011F046FD022010F0A7FC112008F024F8287818B923
:204510006868383013F049F85648007810B90E2008F018F8687F18B16C77052010F092FCB4
:20453000514868612C740DF0DFF827F0080783E006F062F945467435286808B927F0020716
:204550007AE013F018F8B3468246DBF85400016804208847D8B1207CC8B1454608352868A4
:20457000A8B10646DBF80000E568006B8047801BE060000BE060A84202D240194008E0606F
:2045900040F6C41181422CBFB0F5FA7FE160504613F05CFB10F0C0F990B1A56920466FF432
:2045B000807100224FF00073A847464606F16C052868002808BF47F0020701D00DF094F82A
:2045D0002046646900214FF080630A46A04727F0005731E012F0CFFF49460E6846B306F1DA
:2045F000280106C90A234FF0E0450B40154008BF002B1DD106F1280191E8300006F12803B7
:2046100093E8060006F12803AA43A14383E8060013F01CFBB16869B1002D08BF002C09D05F
:2046300030692246B6F93C10B4682B46A04701E013F00CFB27F4804727B1484639465030C8
:2046500012F0B3FFBDE8F88F211B00208819002014100440FD1D01008C0100107823002072
:2046700000000460EE8C01009DB90000081A0020A2488078FF2800D170472DE9F84F12F0C3
:2046900057FC054605F217100178012908BF417800F0A78005F17400817B022903D105F1B9
:2046B00074010020887305F59274E18911B1207B07F02AFE6889DFF848C2DFF84892288148
:2046D0009CF807209CF80A009CF80C109CF80B709CF80D3000EB02088844B84405F58D7726
:2046F0009844BB885B1CBB803E8846443E80B7F802E08644A7F802E04FF01C0E2368E3B167
:20471000D9F8006095F806B006F10E0A0EFB0BFB0E361AF80BA033F81AB0C34423F81AB015
:2047300095F806A00EFB0AFA16F80AB003EB4B06B6F84AA08244A6F84AA0002A04BF9CF8BB
:204750000B20002A05D1002904BF9CF80D10002926D02989E88941180026A9812E74287F4D
:20477000012804BF688CE8839CF8010068B10121297705F174018878002804BF887B0028ED
:2047900003D1087F08B9688CE883207D002832D0022804BF9CF80B00002827D1002129E0F1
:2047B000EA8340B1297F012600200129287406D1688CE88303E0F888401C0226F880A88910
:2047D0002989814206D08842CED2081A41F2AB029042C9DA287C08B1052901D0082100E038
:2047F0003E212846BDE8F44F11F085BD9CF8090008B10221217544489CF80F20016828685A
:20481000D30709D5DCF81020C26001F11400A97949010022425010E0AA79143152018958F8
:204830002161D9F80020A97902F108030EFB01F15A58C2600020E8832877344841690A7834
:20485000900703D59CF80E00802800D1812005F1740A8AF800002846FCF7FCFF01284AD088
:20487000012128460BF07EF9284611F03EFBFDF7B5FC01283FD000F041FEDFF89490D9F8A6
:204890000000C0B3B9F80400AA7990421CBF4FF6FD7188422FD11F48007A12F097FC040019
:2048B00029D02670A879608095F83910217195F8960160719AF90010A171A4F80880788822
:2048D000608112F073FC050005D1FF204FF0FF312073216109E02878207313F0F3F90146A6
:2048F000A86813F0AFF9800820612046D9F80010BDE8F44F0847BDE8F18F00BF684E0020AC
:204910005C4D00203024002034240020989B01000C240020881800202DE9F84F050046D016
:20493000DFF8509299F80000092818BF0A2804D00B281CBF0C280D2801D1212018E1A8786C
:20495000002107F0F3F8040008BF4220F6D0A8788949087004F14807F868417801F0120186
:20497000022902BF786900280C2012D0607AF0B1A07B012804D1B5F8030008B1812816DA8E
:204990006878402813DA204609F070FAB86808B90720EDE0BD61287801281BD1A07B00281E
:2049B0001CBF0128042815D17448007808B91220DEE073494A78824208BF0920F8D004F1FD
:2049D000220004F13801427F802005F029FC08B10B20CDE0687808B91120C9E02878694E99
:2049F000DFF8A4A1DFF8A4B1012840F08980207A0021012821734FF00A0811D19BF80000BF
:204A1000402110F02DF9B5F8030008FB00F1402011F068FB0100E0D1B96968794871A6E0A3
:204A300001202072E172617308F014FE6060DAF800008047564A0146106802E0626842607C
:204A500000680028FAD1084631688847616851484861F8684178C80605D5204601F0CCFC4A
:204A700001000BD084E00020608412F077FB84F821002046FDF7EAFD010079D1F86841782C
:204A9000C8071CD504F14206B18800291CBF3868002814D032788A4211D20F2011F038FF60
:204AB00068B1F86801788DF80010B088ADF801000F2031788DF80310694611F0EFFC99F8E5
:204AD0000000002853D13449087800281EBFF868417811F0030F1CBF304811F08FF911203F
:204AF00089F8000001212172B5F8030008FB00F1402011F0F7FA01003AD100F0FFFC36E06D
:204B1000207AA8B3DAF80000804705469BF80000402110F0A5F80020207212F069FC0128D9
:204B300004D012F043FB6168884217D11C4A1D481368006853F8384F0021A04740F20140DB
:204B500013F0BCF818491948086001219BF8000007F0DAFB31682846884708E0204610F0BF
:204B70002BFF316828468847204612F03AF90020BDE8F28F6F4F0020712400207B4F0020C7
:204B9000684E00209C130020981300206E4F00204C240020D55D0000784E0020CC470020DD
:204BB000F04E0020EC4E0020204F0020F15F00002DE9F04F8246DAF80070DAF804600C4667
:204BD0005FEA0208ADF11C0D14BF00214FF0FF31DFF84092484612F00DFA002818BF0B20DE
:204BF00040F0158100258F488C4905708A48FC60524612F0C6FC317B272012F0C4FCB8F1B1
:204C1000010F07D06570022010F082FB062010F07FFB01E0012060702078012840F2AA809A
:204C3000801E012868D9801E012833D9801E012800F2DE8012F09FFC83464FF0805000F508
:204C5000EE77D0F8DC01A378466A009321782846062908BF0120019001200290A068228AC6
:204C7000E1686368B0478146584612F0EFFFB9F1000F40F0BF80B8F1000F02D011F0BEFF54
:204C900002E0504610F060F9002800F0A3803868806A2AE012F06FFC83464FF0805000F52A
:204CB000EE77D0F8DC01012306680093A168A27860682478AC46042C08BF9C466346B047C3
:204CD0008146584612F0C2FFB9F1000F40F09280B8F1000F02D011F091FF02E0504610F00E
:204CF00033F9002876D03868406880474C49C1F8B0510D6081467DE012F03DFC83464FF0D8
:204D1000805000F5EE77D0F8DC01E38A86690093E0680190208B0290A0780390207D0490D3
:204D30000121059122782846022A08BF081CE1786268A368B0478146584612F087FFB9F1D0
:204D5000000F57D1B8F1000F02D011F057FF02E0504610F0F9F800283CD03868006A8047BD
:204D70005FEA000946D1E078A168E28A23690AF04BF9BFE712F0FFFB83464FF0805000F5B4
:204D9000EE76D0F8DC01E38AC7680093E0680190208B0290A0780390207D29460490012049
:204DB0000590257805B9014608466268A368E178B8478146584612F049FFB9F1000F19D1DF
:204DD000B8F1000F02D011F019FF02E0504610F0BBF808B914201AE03068406980475FEAB5
:204DF000000907D1306802692169E078904781E74FF0FF39B8F1010F05D0022010F022F85D
:204E1000062010F01FF8034812F0C7FB484607B0BDE8F08F0C150020441500202D5C010089
:204E300050450240672400202DE9F24F054684B02868D0F80490D9F8080012F0FFFE00281E
:204E500005F59A7B40F0058128680169049812F0F9FE05F1820680463078002805F12E04B2
:204E700040F6C41A00F0878070882989401E80B212F02CFF0746307802280CBFBBF83000E3
:204E9000A088784300902868016900980AFB0011049812F0D3FE002868D07F1C039730783B
:204EB000009F039A02280CBFBBF83000A088C71900230AFB07F002920193009029680969EC
:204ED0004118049812F0BAFE90B100983189A8EB00080AFB01F0B8FBF0F200FB1288B8F11C
:204EF000000F18BF521C514301910399521802922989029841186981F18801983278CF195B
:204F1000C719012A48D105F18601284611F0D6FA7089688400212977E983E88969894118D3
:204F3000A9813289A188B0898A4204BF2389984202BF7189E388994207D000090090738998
:204F5000A9795208002012F0DDFEA088ABF83000317921703089A0807189E180B089208184
:204F7000284611F0E3FC0220307015E03178012918BF11F0B1FCA08829890AFB00F0B8FB42
:204F9000F0F700FB1788B8F1000F18BF7F1C79186981BFB2A08847432968344A08690AFB33
:204FB0000700C9F808000B78802B10D1C860D2F83080A388D8F8000043436420B3FBF0F3CA
:204FD000D9F814000AFB03F3A3F5966343610B78402B36D1AF614FF4C873688A4743B7FBFB
:204FF000F3F0401C6861D9F80830181AC9F808006B69DBF8000000EB4300D9F814305861F2
:205010001B4833780068022B0CD1AB795B0100F1140656F803C026780AFB06CC00F11406E4
:2050300046F803C0AB79126B00EB4316A388106843436420B3FBF0F30AFB03F0A0F59660B9
:20505000F061D9F8080088602846E17AA1720FF079F96989A88912F039FEE989814238BF59
:205070000120ABF82E0005B0BDE8F08F989B0100342400202DE9FE4F8A4C617811B90020AD
:2050900011F02AFC12F01EFE06464FF0000806F6C4160027844DDFF8149211E0384611F06D
:2050B00047FF417951B12A68817902F8081008F101015FFA81F83146FFF7B6FE7F1CFFB206
:2050D00099F800008742E9DB6178884505D0002011F002FC8220FBF75FFF6078012840F0E5
:2050F000C380002701E07F1CFFB299F80000874280F2B480384611F01BFF06467079002813
:20511000F1D02968B0790A7890421CBF002011F0E3FBB079A0E0286810F8090011F008FF84
:2051300000684268DAF808109068814204BF3E4609F1010900F0A680A8E0286890F800B0F7
:2051500001224FF4D0710FE0636803F5B176835C01FB03F901FB0BFE36F809C036F80E6050
:20517000B44538BF9B46521CFBB29A42ECDB4FF6FF700AF06FFD0646584611F0D9FE4C491F
:205190000068D0F804A00868D94630F8192060684FF4D07300F10E0103FB09F3C85AB2EB34
:2051B000D00F52D2720840F6C410424300920027404A0190029217E0584611F0B9FE0168B5
:2051D0000A78802A03D1DAF81430009A5A610978402908D1029980790A6802EB40110098B5
:2051F00000F5A060C8617F1C47452EDA2868C05D8345F8D001464FF4D073594363685A186F
:2052100003F5B173D289595A53088B4202D2521A9045E8DA11F08CFE01684A68019B91681A
:20523000DAF808207008A1F6C41103FB002012F005FD0028C0D01E48006830F81910491C22
:2052500020F81910286810F807B01948026800215B4622F813105846BDE8FE8F002011F0F3
:205270003BFB8220FBF798FE617828680CF019F82868007811F05CFE00260068D0F804A0EB
:205290004FF00109771CC145FFF645AFF6B2002E1CBFF8B200287FF450AF286890F800B076
:2052B00065E700BF684E0020004F00207B4F002044240020342400202DE9FE4F8648DFF89C
:2052D0001C920278002A41D0D21F012A4ED90A3A40F0FA80824C2078002106F027FC040086
:2052F0001EBF606D407810F00C0F2FD0C00603D5216D886D026802E0206DC16E0A6802F194
:2053100008050622A91C684611F0CCFC287800F00F0105291AD16946C0F3801012F0C2FCA1
:20533000002813D04946684610F09EF90546494604F1380010F098F985420DD0606D4178BC
:20535000C80604D440F2014012F0B8FCC2E0607B40F002006073BDE01E20454309EB050090
:2053700006226946C01D11F09DFCB3E0DFF874B19BF80200FF28F8D011F0DAFD804608F125
:205390006C06706812F056FC00900179032907D18068047814F0030403D1706812F046FCF2
:2053B00098E04578032C00F1020A08F2171706D198F8940000284AD0042D11DD1CE0A5B1A6
:2053D000307868B108F1F400017801290DD1424A1178072904D0082904BFC078012804D14B
:2053F0003D2179700120387074E03F490A78012A70D098F8940050B32D1FEDB253462A46A9
:205410002146404609F04AF938B93D20787001213970484610F03FF95CE03448016888479C
:20543000814698F80610DBF804204FF4D07041435018002280F8412108F59E700168807920
:2054500049080BF0C7FE2A490A684846904700990020032C886016D026484169087882070A
:2054700007D5C0074CBF0320002040191AF8000000E08120307223469BF802002A46514698
:2054900003F000FB18E09AF800001A2803D21A4A115C8D4205D0B870072140460BF01AFB12
:2054B00007E00D480178082903D051464046FAF7BDFD50460DF0D0FF706812F0B7FB0099D4
:2054D00040460FF0B5FA05E0002011F005FA8620FBF762FDBDE8F78F6F4F002054200020EF
:2054F00070240020684E0020794F0020981300209C130020989B0100D09B01002DE9F84F93
:20551000894E716884B0009121B905B0BDE8F04F12F088BB0978DFF81492DFF81482854F0F
:20553000DFF814B201291CBF0229042941F64C5A04D0402918BF802970D0EBE011F058FF64
:205550000028FAD00098007804F0AAFA054611F0C8FE04469BF80100002841D0FFF78AFDFB
:2055700011F0E6FC0290016800914968019194B1009928460BF086FB02280CD029780129D0
:20559000DBD118B912F09EFB5044A0600120B07011213970B8E00098017880290BD10820DD
:2055B0003870019998F800204869012A0BD0D9F828100A780DE007203870019998F80020A1
:2055D0004869012A02D10121C17203E0D9F828104A78C2720298817900988BF8021094E0A0
:2055F000002DAAD000992878A94208D1012802D1002C03D194E0002011F06EF984E0012872
:205610009BD1002CF6D012F05DFB00F5C241A068A83112F013FB002872D16DE09BF801008D
:20563000002859D0FFF726FD11F082FC04462068019045689BF8020011F07AFC039011F0C1
:20565000DDFE10F0070F21D0B07804F029FA009011F047FE0290C8B1019900980BF012FBFE
:20567000022813D000990A78012A0CD128B912F029FB82440298C0F808A011213970012027
:20569000B070009841E0002011F026F90398A04220D00199087880280DD10821397098F872
:2056B00000206869012A02D10121C1720FE0D9F828100A780AE00720387098F800106869F2
:2056D00001290EBF0122D9F828104A78C272A0798BF80200019818E011F090FE10F0070FCD
:2056F0001ED0B07804F0DCF9054611F0FAFD04462878012814D19CB112F0E4FA5044A060BF
:20571000112038700121B170284605B0BDE8F04F09F0E6B805B0BDE8F04F002011F0DCB871
:2057300005B0BDE8F08F00BFE0230020989B0100734F00206F4F0020684E0020F0B50146E8
:20575000844C88786568ADF1240D00282A466DD0401F5BD0401E4CD0401E1DD00A3840F037
:20577000AE804F898888ADF8080067B9ADF80E70C888ADF80A000E89ADF80C608D89ADF8B1
:205790001050012000E0002073498DF8130002AA102002F043FD97E0704B8A880D4610204F
:2057B000194602AB02F03AFDE87838B966680DF10A000DF057F945A3009008E066680DF104
:2057D0000A000DF04FF9A978009146A3019030460221002210F0E2F904F1100010F047FD5F
:2057F000041C71D020890DF013F920460FF0DCFA6AE028460121002243A310F0CFF9584801
:205810000078002860D010F0A9FD5DE04F78002F5AD1081D0DF026F900900121002240A3AC
:20583000284610F0BBF911F04DF94DE00D466878002849D1104601213FA3002210F0AEF92A
:205850004849CCC902A8CCC00EC9671C80E80E0002AB10204449454A009702F0DFFCC6B237
:205870000EB111F0EAFA06F02FFA0EB111F0E5FA102604F1240000963E49019062780123BB
:20589000304602F0CBFCC0B208B111F0D6FA384962783046922302F0C1FCC0B208B111F06C
:2058B000CCFA6468A81D0DF0DDF829A10091002224A306210190204610F070F904E0284692
:2058D0000121022211F01BFD09B0F0BD4C696E6B20506172616D20557064617465643A2013
:2058F000257300C04C696E6B20506172616D20557064617465204661696C656420307825CC
:20591000783A20257300C04644657669636520446973636F6E6E65637465642100C046C0DD
:20593000436F6E6E656374656420746F206465766963653A20257300496E697469616C690C
:205950007A656400257320416464723A2025730044657600D00A0020D9C300009137010051
:20597000580E00209C8B0100057F0000D55E0100A132010021A000002DE9FE4F05467B48AB
:20599000002400680094C00905D37948007810B920200FF0C3FB012D40F0E280DFF800920E
:2059B000D9F8DC00012840F0D8800220C9F8DC0011F0ACF801200FF0B1FB5FEA000805D023
:2059D0000120C9F8DC0011F0ADF8CBE011F0E9FDA34602906748684DC0F800B0A86A0168FF
:2059F00001208847012804D158460AF065FF012000906248624FC0F800B03868112011F067
:205A1000A3FC00B10124102011F09EFC08B144F002040F2011F098FC08B144F004040B205F
:205A300011F092FC20B12868564E016B308888470A2011F089FC20B12868534E016B3088F9
:205A500088475248012606602868816944F0200088474F48066011F071FC00F001010191B4
:205A7000400814D2286A81684A4888478246BAF1040FF7D0BAF1010F04D1286A4268454866
:205A9000032190474449086820F003000860584600F088F82B683868986B804701980128B6
:205AB0000CD0BAF1010F04D1286A42683948314690473949086840F0030008602F480660F5
:205AD00028684169204688470B2011F03DFC20B128682C4BC16A188888470A2011F034FC15
:205AF00020B12868284BC16A18888847274806600322C9F8DC20264BC3F800B02868416B59
:205B1000204688470128F9D1386804200FF006FB0446184806603868144800688009FBD3BE
:205B30000098012802D130460AF0C6FE11F0F9FB08200FF0F3FA07460298C9F8DC6012F09E
:205B50006DF8164800880AF0EBFB10F0EBFF57EA040018BF4FF0FF3804E06FF0040801E05E
:205B70006FF001084046BDE8FE8FC046141009408C1200200C400940B801001000022243FF
:205B90002C200940428801003E88010028200860800104430040034024220840188C0100A0
:205BB000A41100202DE9F84FDFF804B20746ABF13500DFF8F0810068800880F0E280754831
:205BD0000068006880477E490831D1F8009000254FEA29715FEA995201F101010AD2C0F118
:205BF0003E0210F10A0F4FEAE202D8BF08229142B8BF111C684BD3F87C21C2F30462162A70
:205C1000A8BF203A1B68C3F30443162BA8BF203B9A465218162A05DA12F10A0FB8BF6FF0D5
:205C3000090200E015225D4B5D4E02F01F0141F4F8511980316811F0030F18BF0125C9083C
:205C500028BF45F002050FB145F00405434693F90710411A052904DA9979A94208BF99889B
:205C70006FD0DFF844E10F28A0F10F0829DB08EB0011A1F1F0084FEA28210091072984BFE2
:205C900007210091062988BF06215EF821600424774604EB81043C594FEA950CA41BEE084A
:205CB00004F0FF0124BFC4F3072631446F08AE0824BFC4F3074631446E0828BF01EB14615D
:205CD00004E000214FEA950C6F080091009C5EF824E05FEA5C060EF0FF0424BFCEF307265A
:205CF00034447E0824BFCEF3074634446E0828BF04EB1E64009E89B2A8EB06267143803162
:205D100004EB1124AAEB02010029D8BF0121342209F0FF074A4391B24FF6FF727943B1FB92
:205D3000F4F18A4238BF111C802889B205DA10F1800FB8BF6FF07F0000E07F209980D871F6
:205D50009D711A4800681F2918604FF0000008D340F2FF128A4206D24908401C8A42FBD353
:205D700001E01F219980134F0F39090940EAC10047EA0001CBF8FB1F0026CBF8FF6FBDE827
:205D9000F88F0D490D4F434608200F609B1D1870BDE8F88FEC0100103C1100506E6208407C
:205DB00024220840142400209C130050082009403500094000E7A48030100940FDFDA400CD
:205DD000AC3F00502DE9F84F824A83461078002105F0ACFE9BF80010044601291CBF00202C
:205DF00010F07AFD14B9002010F076FD04F14C064FF47A67B0684178D6F804A0C8064FF001
:205E10000B0841F64C592CD50AF17800002101808170C17001714171C18001818172C1723E
:205E3000C160A07B01281BD011F04CFF0AF108054844296811F002FF002811D011F042FF44
:205E50004844286011F0E6FE0B2290FBF2F2296808FB12081FFA88F007FB00172F6027612E
:205E700083E00AF174010020088400220AF19600027042708270C2708280C280027242722C
:205E9000CAF8A0200AF1080511F01CFF2968484411F0D4FE88B111F015FF4844286011F0F9
:205EB000B9FE0B2290FBF2F2296808FB12081FFA88F007FB00172F6027610AF14007607DF1
:205ED000C1064FD5287AA27D521CC0F38001002392B200F003000EF0BDFBA0831E20A28BC6
:205EF00002F5FA731E2193FBF0F001FB1030C0B208B1C0F11E009BB28C46801893FBFCFC0E
:205F100000F5FA7002F5FA7201FB1C316083A283C9B209B1C1F11E018A18A28380B2E17D01
:205F3000491E92B202FB01026283608B2A68C03002EB800139620220F877618B02EB81025E
:205F50002A63287A18B9397809B120322A63A18C286BC03100EB8100CAF8740002208AF8F0
:205F7000730002E000213962F977616870681A4A8A614860B2685078C3065CBF1020886119
:205F90005078830703D5886940F4002088615078430704D5886940F40000886188610F4B5D
:205FB000187800281CBF507810F0030F03D0886940F4802088610020B1683070087E10F084
:205FD000300F04D05846BDE8F24F0DF045BCBDE8F18F00BF7024002002000080784E00201C
:205FF0002DE9F84FDFF8F4A19AF80000002105F09DFD040004F1500602D110F06DFCDEE03D
:20601000207A30B920460FF0D7FC204610F0E9FE1EE0207BDFF8C881401C20730121E1724B
:2060300030694079C0B1217B814215D198F8000040210EF015FE0020207220460FF0BCFC77
:20605000204610F0CEFEFF22432120460CF052FABDE8F14FFFF752BA04F14509002089F800
:20607000070011F0D7FDD6F804C027690146DCF803004FF00B0E20F07F4040F6C41391FB34
:20609000FEFE0B2203FB007702FB1E1189B24FF47A604143306889B200F10805C91929600E
:2060B000216104F122079CF80110CA0618D5A17B01290AD10020207220460FF07DFC98F88D
:2060D0000000022106F020F965E090F8731001F0E00141F0860180F87310424941675AE03C
:2060F00080460020A8F8020008F1600B217EA971607DC10606D5618B2868C03100EB810093
:20611000CBF8000008F18800217D01700021627D4270C17081603888401C388080B211F051
:206130001DF884F821000022617D01F0FE01204605F030FE0020E882E17D6984688508F169
:206150003E0094F8211001F03F0101702A68618B02EB81022A630022028299F800108183CC
:20617000726851788A0709D5B98879800121A27F02F03F0242F08002A2778183E07FC10656
:2061900009D57988286BC03100EB8100CBF8140002208BF813001449087880B1387F0228A2
:2061B00018BF03280BD1114F07F10D0011F07EFD28B90622F91D04F1300010F073FDFFF766
:2061D0009DF94CB17068017E480605D55146BDE8F44F032010F062B9BDE8F18F7024002007
:2061F0006E4F002000204E00784E002054200020F8B57F4F04463868C16E0025002940F0B8
:20621000F380102010F0DAFF39680028C86600F0E9808E6E1022214610F044FD39680878AB
:20623000002840F09080C86E00F10C02D6F8980092F800C000F001030CF0010C634518BF85
:206250000023400843EA4000C6F89800C0F34003D2F800C0CCF3400C634506BF430803F0CA
:206270000103002320F0020040EA4300C6F89800C0F38003D2F800C0CCF3800C634506BF9A
:20629000830803F00103002320F0040040EA8300C6F89800C0F3C003D2F800C0CCF3C00CA7
:2062B000634506BFC30803F00103002320F0080040EAC300C6F89800C0F30023D2F800C0C1
:2062D000CCF3002C634506BF030A03F00103002320F4807040EA0320C6F89800C0F3402372
:2062F000D2F800C0CCF3402C634506BF430A03F00103002320F4007040EA4320C6F898009E
:20631000C0F38023D2F800C0CCF3802C634506BF830A03F00103002320F4806040EA83204D
:20633000C6F89800C0F3C0231268C2F3C022934206BFC20A02F00102002220F4006040EA35
:20635000C220C6F898008A6E92F89500030718D5C86E4368C3F3C00098B1C87840F00800CF
:20637000C870D6F8981023480140C6F898103A68D06EC16821F48071C16049084900C16062
:2063900003E092F8330001282AD0607800281CBF7178002908D13968CA78130708D5002862
:2063B00004BF7078002803D03868052101711CE06068C0F3800040B996F8950010F00400D8
:2063D00002D10120087110E00AD00878002819BF307821783178207811F018FC054604E030
:2063F000182502E0132500E011252846F2BD00BF304F0020FEFEFFFF2DE9F0475FEA000A0B
:2064100004BF002010F068FA0AF1500700243E68DFF8C881DFF8C89179684A7A182060433B
:2064300001233518A3401A420AD09AF80E1039F811002880002118F80420AA73E97302E078
:2064500040F6010028800021698005F118006860287B00F0EF00287340F0800028739AF873
:206470000E1001290ED141F28830A860297B01F0F00141F005012973687B00F0F00040F0A6
:20649000020017E0002C0CBF0221002100F0F0000843287324B911F015FC00F57A6000E054
:2064B0000020A860022C697B0CBF0120022001F0F00108436873641C06F15800286106F12D
:2064D0007801022C6961A7DD9AF80E0001280EBF766300207063B068CAF810000FF040FA32
:2064F000B065404881690878C2074CBF1022002281074CBF2023002341074CBF4024002489
:2065100000074CBF802000201A43224306F15C01024342F00F020A70002048707A68907CBB
:2065300000F0030048700AF13E004B78027862F382034B701A46407860F3C3024A7042F079
:20655000100000228A70CA704A608A6048700AF138020A619AF80E00012818BF042813D02A
:20657000B86830B1B0F803008870BA68D2F805004860F86830B1B0F80300C870FA68D2F87E
:2065900005008860184808610AF13002C87D174BCA6000F0EF00C87540F08000C87500F03E
:2065B000F00040F00600C875114A8A61187838B148780A7840F0400002F0FE0248700A70D3
:2065D0000C4A937848785A064CBF40F0200000F0DF0048700020BDE8F08700BF409A011062
:2065F000109A0110989B0100D0470020784E002000204E008C2300202DE9FE4F0E468246C3
:20661000307AC10693461F464FF000090CD5584611F0F8FA030000F0E8800A22314650466D
:2066300098475FEA00094DD130780C9D0D9CDDF8388002281AD170680178407801EB002149
:2066500089B24FF42052891A012910D9891E3AD0491E14D0FD397AD0491E00F08180491E49
:206670006DD0491E73D0491E00F09580ABE0002C2AD1F068017829800278416887E0002CD5
:2066900022D101202880F1680A783A7000217089401C80B211F0B2FA298860B10278921C6A
:2066B00051182980418979704289120ABA7041680278F81C6CE0091D298004220021781CC7
:2066D00010F087FF93E0002C66D1F0680688042129803E70320A7A700DF10201304611F04E
:2066F0008DFA040021D0D4F80C80BDF802204FF6FF766B46314611F07DFA40B92378626827
:206710003C48022111F072FA08B9ADF8006098F8000002280BD1D8F804100222381D10F09C
:20673000C1FA2888801C288001E0ADF80060BDF80000B870BDF80010090AF97057E0002C33
:206750002AD1F0680168504610F077FC02E01CBBF0680088022129803870000A787046E03F
:20677000F06810F038FF80B2A042B8BF4FF007093DDB844208BF002205D008EB0402824247
:20679000B4BF4246021B2A8092B2F0680119384610F088FA2BE014B14FF00B0927E0F068EF
