:20000000004000207136010001C9011001C9011001C9011001C9011001C9011001C90110B6
:1C00200001C9011001C9011001C9011001C9011001C9011001C901103FC9011089
:20003C002DE9F04F85B0804611F8010BDFF81028009008F1FD00009B182B08F1E70508F1EE
:20005C00660A08F20D1B08F5B07408F1860908F59C7608F5C67700F2E183DFE813F01900C7
:20007C006A0080018800DF03DF03F100BA0303011801F40000014701DF03DF039F01DF03DF
:20009C0082016A01C6030B030B035E02DF03A90211F8015B89F80050022208F1880000F0B9
:2000BC00D9FB0146022208F18A0000F0D3FB0146022208F18C0000F0CDFB0146022208F198
:2000DC008E0000F0C7FB99F80010B9F80220490089F800105200B9F80410A9F80220490053
:2000FC00A9F804100222B9F808100901A9F80810014608F1840000F0ADFBBAF81E10B8F893
:20011C000800091A89B247F6FF72914225DAB9F80600B9F80410B9F80820401C4900484358
:20013C00904228BF3B2080F06F8201208AF81C0018E0052208F1610000F08CFB0146022214
:20015C0008F1920000F086FBB9F80C10B8F80800091A89B247F6FF72914280F254820120BA
:20017C0089F80A000021A8F81E10307065E3AA7DD00709D4687B1A210128A97302D1FF22CF
:20019C000D213BE00D210DE200208AF8000001226A7408F1B000082200F05CFB01460222B5
:2001BC0008F1B80000F056FB08F1A80401460822204600F04FFB06460821204600F04EFB67
:2001DC0008F19C0404223146204600F043FB0421204600F043FB08F1A00000F043FB08F1C0
:2001FC00980000F043FBDFF85C06018841F080010180687B012807D1FF220421404605B0C3
:20021C00BDE8F04F0FF044B99AF811500F2D18BF142D03D00E2D18BF0C2D0FD19AF81040BB
:20023C00404611F091FF0421404610F059FA012C12BF29468AF81A50FD21B3E10421B1E1CB
:20025C000120E873F9E2002100208AF800108AF8060001216973287068700B21A2E1012092
:20027C002874EAE2541C00230932CD5CD65C3543CD54E65C3540C5545B1C082BF5DB9AF85C
:20029C00060000284BD0404610F0CCFACBE2002302F10906CF5C16F803C04CEA0707CF5478
:2002BC0002F1010E1EF8039007EA0907C7545B1C082BEFDB02206875E97D080703D440F666
:2002DC004800A081E08150788106CAD520891B2804BF60891B2807D1A089B0F5A47F04BFE3
:2002FC00E089B0F5A47FBCD014215BE19BF80000012811D011F8012B8BF8032008F5897046
:20031C00022200F0A7FA0146022208F58A7000F0A1FA01218BF800109AF80600002800F0BA
:20033C00AF819BF8020000282AD140460FF034FC79E2A87DDFF81045C10609D412208BF8FF
:20035C000C00404612F08AF8002819D120786DE2404612F031FC002812D1207866E2087852
:20037C0052E108782070497861709AF8100001280ED19AF811000F38012802D9C01F03D042
:20039C005BE20122727358E2387B40F0010043E205B0BDE8F04F002015F0F8BFA87DDFF848
:2003BC00A844820709D40F208BF80C00404612F055F80028E7D1207838E208784A7800EB7D
:2003DC0002203082CA78887800EB022070824A79087900EB0220B082CA79887900EB022018
:2003FC00F082087A30764A7A887A02EB00227283C87A0A7B00EB0220B0838A7B487B00EBC3
:20041C000220F0830A7CC87B00EB022030848A7C487C00EB022070840A7DC87C00EB0220FE
:20043C00B084487D897D00EB0120F084DFF81C0401788A0658BF1A2213D508F5AA7004903B
:20045C00718B0391307E0290B8F808100191F08A0090B38A728A318A40460FF057F8A0B133
:20047C001E22A87D410709D40F208BF80C00404611F0F4FF00284DD12078D7E1404605B0CD
:20049C00BDE8F04F0F2114F0C1B8708AA9F804000022B18AA9F806100221F08AA9F80800B6
:2004BC0089F80010A9F80220B8F83400C01DAAF81E00B8F83210B9F80400B0EB510F02BFE8
:2004DC00B9F80600B8F83410884202BFB9F80800B8F83610B0EB111F1DD09AF81000012898
:2004FC0004BF9AF811000F2807D09AF8150020B10F218AF81A10FE2154E0FC21404610F022
:20051C00EFF8F08A0090B38A728A318A98F8060000F0B0F991E1102144E0E87D10F0090F67
:20053C0003D116208BF80C007AE14A78087802F00702104008707A7B0240FA7211D0501EB4
:20055C0002420CD0520704D5B87B10B10421F97205E0F97A0220014219D14008FBD1F87A7C
:20057C0008B9B87AF872F87A042803D1404611F06DFAA083F87A00F081F93871A28BB97B99
:20059C00012312F0E3FE218B814202D208E0F872E5E7A28BB97B3879012312F0D7FE014683
:2005BC0079801721404605B0BDE8F04F10F098B848780A78824207D100F0070010400870E2
:2005DC0033D0431E18420FD01E221821404614F01DF898F80610012301221E200BF0AAFF7B
:2005FC00387B40F0400017E1F87247F6FF728878C97800EB012038813989B8F80800091A09
:20061C0089B2914206DB282001218BF80B008BF80A1012E10120B871F97A042903D1404603
:20063C0011F014FAA083F87A0BE09AF81100162806D1BB7A98F806101A4600200BF07AFF88
:20065C00B87A3871A28BB97B3879012312F07EFE218B814206D3A28BB97B3879012312F06F
:20067C0075FE014679800121387B40F0400038733170E2E0142B04BF9AF80600002806D1BF
:20069C003D2101208BF80B108BF80A00D5E00A78487802EB002262828878CA7800EB02205B
:2006BC00E0824A79087900EB022020828879C97900EB0120A08208F5B07108F5B0708A8A09
:2006DC00C089B97A904288BF1046042905D140F691229042B8BF4FF42960E28BE083904270
:2006FC00B87A14BF01250025042805D1404611F0ADF9A28B90420AE008F5B07008F5B0713B
:20071C008089CA8AA18B904288BF1046884214BF01210021A0830D4308F5B07008F5B07137
:20073C0000894A8A218B904288BF1046884214BF012100210D432083A28BB97BB87A01239B
:20075C0012F004FE218B814206D3A28BB97BB87A012312F0FBFD0146798008F5B07008F526
:20077C00B0724189108A628B814288BF01466183914298F8063014BF0120002005438A42F4
:20079C0033490A6802EB4311628B8041121DC00F0A7610B1404614F0BBF9009814280ED130
:2007BC0045B1E08B0090638BA28B218B98F8060000F068F8152140460EF062FA33E01DB188
:2007DC00387840F008003870397841F02001397033E008780E280ED00F2809D0122804D0FC
:2007FC0014280BD0162811D027E00021317224E00120307321E0032169751EE0387840F033
:20081C000200387040F01000387016E0387B40F00200387340F0100038730EE08BF80C300C
:20083C00404611F01BFE40B9074800784FF4804105B0BDE8F04F0BF045BC05B0BDE8F08FCA
:20085C0014210020524F00206E4F0020144E0020B0210020DFF800F0D1920010DFF800F015
:20087C00AD710110DFF800F00D720110DFF800F021720110DFF800F0E5BE0010DFF800F02A
:20089C00BD8F0010DFF800F065BF00102DE9F84F012014F08BF9012819D1DFF8A046207877
:2008BC0000210BF085F85FEA000804BF002015F06DFD002088F8080008F1040010F03AFE03
:2008DC0006F0D0FC050003D1812000F05FFB2EE301206871DFF86826DFF868064178491CA3
:2008FC004170A87988F80A0040202178117005F597740CF03BFD2860D8F854104A78D8F87F
:20091C005000D1061AD5806D01680A79032A1CBF002015F03BFDD8F85000816D90F87C0055
:20093C000A6802F1080601281CBF002015F02EFDD8F85000D0F88410286846E0C06E01680B
:20095C000A79032A1CBF002015F020FDD8F85000C16E90F898000A6802F1080601281CBFC8
:20097C00002015F013FDD8F85000DFF8DC25D0F8A0102868DFF8D495C16096F82670138806
:20099C00032F22D8DFE807F00205101801F5B06101E001F53471C160B9F80000E087B9F8B5
:2009BC000010A5F8741113E0E3871188A5F87411C26802F5355206E0E3871188A5F874111E
:2009DC00C26802F6B872C26002E001F5B061C1603078DFF87C95DFF87CB5C0F38010207018
:2009FC000622B11C05F5947015F0B6FE042206F10E0105F1240015F0AFFED9F80000AF793E
:200A1C0000F10C03042206F10E0103EB471015F0A3FED9F80000AB7900EB4317032206F14D
:200A3C00120107F1100015F097FE05F12C07707DB870022206F1160105F1300015F08CFEC0
:200A5C00022206F1180105F1320015F085FE022206F11A0105F1340015F07EFE3889688408
:200A7C00022206F11C0105F1360015F075FEB87879894000B8700901B88879814000B88028
:200A9C0089B2F8884000F88003046A8C521CDB0B5A438A4201D280B250B99BF800008021CB
:200ABC000BF010FB2846BDE8F44F3B2115F09AB905F12E01284615F069FA0520A881284653
:200ADC0015F08EFC052206F11E0105F1610015F043FE96F823004009387015F08DF868827B
:200AFC00B8F82A10401AA08105F1610196F82300DFF8644400F01F00F873284612F01FFFE5
:200B1C00D8F854104A78D8F85000D10647BF0022806D0022C06E1C2601680A7141F62102E7
:200B3C00A9792068714342520021AB7973430344001D5980AA7972438150D8F85420DFF8AB
:200B5C001C045178CA060DD5DFF814148A7851060AD5DFF81024138841F20A418B4208BFEF
:200B7C00DFF80404C5F89C01D5F89C11284688472268A97902F10E03714358540021AA7915
:200B9C002068DFF8E83372430244D173187878B1B88868B979730120288168812846D5F88C
:200BBC009C2190472168AA7901F10E0372439854A8792168704301F10E02135C7B73D8F8A9
:200BDC0054104A78D1061AD595F8960108B915F0DDFBA97920687143014495F89601421E24
:200BFC000A74A879216870430844002141742268A97902F112007143002242522AE0D8F8E7
:200C1C005010236891F8402018440274A879216870430844D8F8501091F841204274D8F8C9
:200C3C0050002168AB79403001F1120273434188D15205F5CB710078012200F003008240FD
:200C5C000A70D8F8502092F84000800814BF012002200871A979D9F800002268DFF810A3D6
:200C7C0000EB411302F1140C71434CF80130A97971431144BF4A8A61DAF81410097895F8BA
:200C9C0006E0CA074CBF102200228B074CBF202300235FEA417C4CBF4FF0400C4FF0000C38
:200CBC0009074CBF8021002113434CEA030308304FEA4E1E0B4343F00F0300F80E30D9F832
:200CDC000010A87901EB40120B215172D9F80000AA7900EB421104208872D9F80020A97937
:200CFC0002EB4110A44A1378012B02D10121C17203E0DAF828104A78C272D9F80000A979F7
:200D1C0000EB41121F201076D9F80010AA7901EB421000214176A8790BF0E2FEA979D9F8AB
:200D3C00002049015050A9794B01D05820B90721284615F057F8FAE09048026802EB01101A
:200D5C0000F028F98D4AA8791368D9F8001003EB00120B1D40011A50081DAA7952018058CC
:200D7C00F863AA7952018858786404219BF800000BF0A8F9D8F8540042782168D00648BF32
:200D9C004FF0020B0BD4A87970430844027C02F00302022A14BF4FF0040B4FF0060B734B1C
:200DBC00BA881878934410B10AB9F888834498F80D2090070AD50521284615F013F898F83C
:200DDC000D0000F0FD0088F80D00B4E0688A00FB0BF04FF4C872B0FBF2F2521CC5F818B0F5
:200DFC006A6140F6C41CA8792B687043009001F1080ED8680CFB0B0B0098ABEB0202A2F5D1
:200E1C00A8624EF8002001F10802A87906FB00FB52F80B00986001F10C02A87970430C31CF
:200E3C00135C03F0EF030B54A8792168704301F10C020C31135C03F07F030B54A87921685C
:200E5C00704301F10C020C31135C03F0F00343F002030B54A8792168704301F10D020D31FE
:200E7C00135C03F0F00343F001030B542068A97900F10802714350582A6810616B69D9F8C2
:200E9C000000AA7997F802E05B0000F1140152010CFB0E3303F5F6638B5095F89611042919
:200EBC0007D1A979490100F11402535803F561635350A97900EB4110C27C02F0F00242F00F
:200EDC000402C274FB88D9F80010A879DAF8307001EB4012386843436427B3FBF7F30CFB35
:200EFC0003F0A0F59660D061A87901EB4010C17E01F0F00141F00401C176A97920682A6800
:200F1C004E438119516028460E210FF0E9FB1C4907200870404615F0BEFCAA790021404646
:200F3C0011F08EF828681749174A41618261BDE8F14F04F073BDBDE8F18F00BFEC2100201E
:200F5C00EE210020684E0020DE210020DC210020B02100206E4F0020AC210020C32701008E
:200F7C0014210020504F00208F1C0100784E0020089601005C4D0020734F00208C4E00206B
:200F9C006F4F0020DD3C010002048080DFF800F09D920010DFF800F051A5001081680A4A27
:200FBC001160C168094A11600169094A11604169084A11608169084A1160C169074A116083
:200FDC0000790749087070478C4F0020904F0020944F0020984F0020804F0020844F002017
:040FFC009C4F0020E6
:20100000B41200001810000015AB0110FDB301106DC00110FDAE011099B5011059BA0110D3
:0810200039BA01102D00000097
:20102800B01200003C100000B1C00110A9BF011067C0011069B80110B9B9011099B901104F
:041048003000000074
:20104C00B012000060100000BDC00110CDB30110D9BD01106DB301108DB80110D9B9011062
:04106C00310000004F
:20107000000000002412002004000000000000000000000020000000E8C9011030000000F4
:20109000281000002C1200200400000000000000000000000C000000D8CA011018000000CF
:2010B0004C1000003412002004000000000000000000000024000000F0CA01101800000053
:2010D000000000003C1200200400000000000000000000001000000018CA01102C0000005F
:2010F000001000004C120020040000000000000000000000200000006CCA011024000000C3
:20111000FFFFFFFF541200200400000000000000000000002800000090CA01102400000082
:20113000FFFFFFFF5C1200200400000000000000000000001400000008CB01101800000001
:20115000FFFFFFFF6412002004000000000000000000000058000000B4C9011034000000CF
:20117000FFFFFFFF6C1200200400000000000000000000001000000020CB0110180000009D
:20119000FFFFFFFF741200200400000000000000000000001C000000B4CA011024000000CA
:2011B000FFFFFFFF7C1200200400000000000000000000003800000044CA011028000000F2
:2011D000FFFFFFFF841200200400000000000000000000005400000078C901103C00000067
:0811F00001000000D48701009A
:0411F80001000000F2
:0411FC0000000E00E1
:0412000000000F00DB
:0412040032000000B4
:0412080001000000E1
:04120C003C11002071
:0412100000020000D8
:0412140000000000D6
:0412180001C90110F7
:04121C0000000000CE
:0412200000000000CA
:0412240008000000BE
:0412280000002200A0
:04122C00A40F0020EB
:0412300000000000BA
:0412340000000000B6
:0412380008000000AA
:04123C00E41000209A
:0412400000000000AA
:0412440000000000A6
:04124800080000009A
:04124C00000000009E
:04125000000000009A
:041254000000000096
:041258000000000092
:04125C00010000008D
:041260000C1000204E
:041264000600000080
:041268000100000081
:04126C00900E0020C0
:04127000000000007A
:041274000000000076
:041278000002000070
:04127C00000000006E
:02128000290043
:02128200010069
:02128400250043
:02128600300036
:02128800310033
:02128A002D0035
:02128C0001005F
:01128E00015E
:08129000030000006887010063
:0812980000000000000000004E
:0412A0000000010049
:0412A4000000030043
:0412A80013C401105A
:0412AC0021690100B3
:0412B000B812000070
:0412B400B81200006C
:0412B8000000000032
:0412BC00DC11002021
:0412C000C36A0100FC
:0412C4002000000006
:0412C800D4860100C7
:0412CC003485010064
:0412D00029C101101F
:0412D4008309010089
:0412D800970F01006B
:0412DC00A1C7011095
:0412E000A3C701108F
:0412E4000000000006
:0412E800FB86010080
:0412EC000883010072
:0412F0002083010056
:0412F400F082010083
:0212F8000200F2
:0212FA000900E9
:0212FC000100EF
:0212FE000000EE
:0113000001EB
:04130400516A010029
:04130800B1470100E8
:04130C00ED5C010093
:04131000654C010027
:04131400E9470100A4
:041318008934010013
:04131C00B5E7000031
:04132000996D0100C2
:04132400D91B0100D0
:0413280015C70110D4
:04132C0025C70110C0
:201330002DE9F04FC24CDFF8048320788B464FEADB31ADF1140DC9032AD1A0695FEADB017A
:2013500010D25FEA1B1038BF0020C0F07C82A07B012804D14146087808B90CF071FE8BF09B
:20137000080B6EE288B114F0EDFF071C0DD0F87A58B9384615F021FE7A68B97A388907F0DF
:2013900051FC786808B115F075FC8BF0040B58E20DF078F90028039000F0518207460120C3
:2013B00004903878B03800F0D181401E00F0C5811F3840F03782B87866784FF0000A0A2852
:2013D0000FDC0A2800F08780002800F08581401F00F07681401E00F04481C01E00F02A81F9
:2013F000A8E10B386DD0C01E00F0A281401E0DD0401E40F09F81227814F0A4FF002800F0A1
:201410009781104604210AF063FE91E1002E55D0B88812F0DBFB051C00F08C81B87A400859
:201430000FD36E796EB1012E0BD0F868800A08D206F00106A81D524631460DF043FA0028B3
:2014500037D1207A022802D1B87A000931D3BE886D790C2015F0FEFB07F10808071C00F02D
:2014700067813E815146BD72B8F1000F39600846F87209D04046082114F0FEFF786020B9AC
:20149000384615F0F7FB53E17960A369002B08BFA76103D01C4623684BB92760384615F0E6
:2014B0008CFD42462946304607F0BCFB40E11C46F1E7B888032116F09DF93BE1B88805219B
:2014D00006E015F077FB002800F032817889049916F090F92CE13D466878002840F0288136
:2014F000A8794008C0F0248168465146082215F0BCFDB88812F06AFB071C09D1227814F0AF
:2015100021FF002873D0104604210AF0E1FD6EE0686900284DD004465146062204F111006A
:2015300015F016F8D046F0B12046062215F010F8A8B9207C5646113400F00109761C204666
:2015500049465246F6B226700DF0BCF910B9002EF4D104E01EB1B8F1010F02D006E0DDF8AF
:20157000108056466E61B8F1010F22D0686950B30646307C062206F1110100F001008DF842
:201590000600684615F0EEF8787906F11104012805D107F10C00B91D062215F0E3F8B81DE9
:2015B0002146062215F0DEF8307C40F00200787109E07879B91D062200F001008DF8060096
:2015D000684615F0CFF8A879C00839BF387900F0FD00387940F002003871A879000939BF54
:2015F000387900F0DF00387940F020003871A8799DF80710C0F3800008438DF80700A879B9
:20161000000905D39DF8070040F008008DF807006846294605F018FF18B9A88811F00CFE44
:2016300086E0A88813F012FA82E0C0465A4F0020B80A0020F978381D0DF1090201F0010120
:201650000DF040F9002873D19DF80910480007F10C0200EB810025300421C0B209F084F80F
:2016700066E0B88813F0F2F916F0C0F8002861D1E07A012816D0207B01280ED0734C564668
:20169000354614F8010F012803D1284609F0E4F826706D1C062DF4DB0DE00FF035F956468C
:2016B000267308E015F0F2F8514604F120000622E17215F0DAFC14F05BF911F051FD39E0E8
:2016D0007878002836D1F8787A893B7B391D00F0010009F0D3FC2DE0787858BB16F082F813
:2016F000814616F07BF8804616F074F88DF8080010214A46022009F037F8032010214246EE
:2017100009F032F80499042002AA09F02DF89DF80800012803D09DF8080003280AD1049833
:2017300013F0BEFB02460620014609F01DF801E0049EB2465646049674E03879002871D1FA
:201750007888F9883A8910F029FC6BE03D462879401E2BD0083802D0743856D05DE0687847
:201770001A284ED06888804614F0CEF9801E0ED0401E52D1388901284FD1788903284CD128
:20179000F86882780421404610F043FE45E02889012842D1688903283FD1E8688078002845
:2017B0003BD16888049A10218046ECE7297A688805F108060829814623D114F0A5F9801EF2
:2017D00002D0401E18D01CE068891021002210F020FE484612F0FAF998B141460F7847B9A9
:2017F000417901F00102811D1046049A14F096FE07E00498A07304E070880421002210F048
:2018100008FE688811F018FD07E06C88204614F07BF90146204614F0A3FD297905F1080002
:2018300015F0D4FF049838B909480078FF2806D0039914F001FC02E0039814F0EDFB8BF4E8
:20185000004B1FFA8BF005B0BDE8F08FD70A0020B81200202DE9F843040014D1002014F077
:201870009BFD10E0204610F0FFFD012808D063E08A0740F1628101F0FD0101700020B071E4
:20189000204610F067FC04F16605687D002853D0697CDFF8C894022904F1EC0704F59E78A5
:2018B00004F5B07604F5C67035D0042947D005295DD0062900F08D800729D3D0092900F005
:2018D000FA800B2900F0C5800C2900F016810D2900F0D5800E2900F0F8800F2900F0358161
:2018F000102900F04F81112900F06781122900F01C81142900F09281162900F0668117296F
:2019100000F08181FC2917D0FD2900F0A081FE2900F0AD81A2E7287C012809D199F8030079
:20193000002813D01621204614F062FA012004E020460FF0F2FE28740020BDE8F283287CBB
:20195000012840F0B08199F80200002800F0F5800021A971FF22FC2120460DF09FFDA0793C
:2019700004F1B80204F1B00115F02CFF8BE7287C012811D199F8020028B1012184F8941003
:20199000002038607860B87A01286BD1FF22062120460DF083FD76E704F1E70630780128D5
:2019B00009D1204612F0C9FC0128C5D10020B87201212974C0E770780028BDD004F1C70246
:2019D00004F1A00104F1D70015F0F8FE0120307059E7297C012940F06A8199F802000028F4
:2019F00040D0608CE083204610F0B4FB01202870204611F089FF0121A971397A787C0129AE
:201A100010D1C00609D5002188F80510D8F8001098F8060049080FF0E9F9A079002115F094
:201A3000C9FE10E0C00609D5D8F80020DFF8300304F5A1735208214615F044FAA0790122F4
:201A5000002115F0B3FE002038723873F872B87219E7287C012806D1F87A012804BFFF2273
:201A7000FC2195D069E020460FF058F9012821D10020F87284F894000120287403E7287CD5
:201A9000012811D199F8020048B1002184F8941001202870204611F037FF0121A97199F83B
:201AB0000300002810D148E0204612F0EFF82874E88A288340E7287C012840F0FC8099F8A9
:201AD0000200D0B3608CE083DAE6287C012840F0F680387C022804F1FD0204D1A17900200E
:201AF00015F060FECCE6032840F0F280A1791A2015F058FE00203874C2E6287C012804F20E
:201B10000D1140F0F0800878012804F5897240F0F0804878012807D15088009000201388D6
:201B3000CA78A17915F03AFEAAE6287C012840F0EF8099F802000028F6D1288B401E2883C2
:201B500080B20028B6D12221EDE6287C012840F0E38098F80900012802D131780F291BE0AD
:201B700098F80800012826D1002188F80810288D000900901A20AA8CEB8CA179520815F036
:201B900009FE7DE6287C012840F0CA8098F80900012810D1317810291CBF002014F0FCFB09
:201BB000002088F80900298D09090091AA8CEB8CA1797078E2E7287F73E7287C01283FF49A
:201BD00061AF20460FF08CFC71E7297C012940F0AB80017B4A061DD4CB0709D501F0FE0119
:201BF00001730123A179707801220AF0A9FC47E68A0740F19E8001F0FD0101730123A179CB
:201C100001221A20F1E7297C012940F09F80017B4A0692D501F0BF01017331E6297C012923
:201C300040F0968001788A067FF522AE01F0DF010A0701700AD501F0F7010170F08B00906A
:201C5000738BB28B318BA079FEF722FE16E6A97EFF2220460DF022FC0EE7FF2220460DF011
:201C70001DFC012067E6002014F096FB64E6A97E0C2918BF0E29F0D00F2902D01429ECD0A1
:201C9000F1E7FF22FC2120460DF008FCB8F812000090B8F81030B8F80E20B8F80C10A079B2
:201CB000FEF7EEFD48E620460CF0F1FAFFE6204610F0C2FEFBE620460EF0BAFDF7E620466F
:201CD0000EF080FD28740121E88A2883397433E6288B401E288380B20028F8D1A17922209D
:201CF00015F060FD2FE70120887020460DF05AFFDDE6288B401E288380B20028E7D150881E
:201D1000009022201388CA78A17915F047FD1AE7204610F030FFCAE620460BF037FAC6E61D
:201D300020460BF085FAC2E6162120460BF038F8BDE6288B401E288380B20028C7D1A179D8
:201D50000123012222200AF0FBFBFCE61721ECE7142120460CF09AFFA9E600BF5C4D0020C6
:201D700041FB00002DE9F04FADF1140D15F00EFD10F076FF071C0CD014F0B6FBBD4C00269B
:201D90008146062134F80C0F28B1491E06F10106F8D115F05EF94FF6F875258067604FF03E
:201DB0000008C4F80880B44C26707868A060484614F02AFD04F124063046414615F0E2FC99
:201DD000AE4B41F28831424604F17C00E66010F093FFAB4904F130001523424600901020A4
:201DF00006F094FBA74910200223424606F08EFB4FF0100BA548A44ECDF800B01123A44933
:201E10000190321D584606F081FB04F11000306012F018FD9F490246584606F077FB12F0DE
:201E300011FD9D490246584606F070FB9B495846FB2240F6480306F069FB9949584606F067
:201E500065FB681D11F068F912F0FCFCCDF80080034604229349CDF80480584606F056FB73
:201E70004FF0FF3041460FF0B5FC41468FA360600A4613F011FCC14604F1480705F1070A82
:201E9000DFF82482A06849464FF040424FF0FF3315F074FC061CF5D0CDF8089003A804A9DB
:201EB00002AA0FF0ADFB002849D19DF80C000DF10E0112F0FBFC00283ED1BDF80E00ADF837
:201ED0000C0014F0C1F9BDF80C00102832D120789DF8101088422DD102990888824529D02C
:201EF000087891381BD01F3802D020381FD021E00D4660682A797E2A04D07F2A09D10989DE
:201F100070A301E0297A73A300914A46012113F0C3FB297905F1080015F058FC0AE048785D
:201F3000102807D10820494605F056FC02E0084600F0DEFF029810B1029815F02CF8F00F69
:201F5000A0D3E06815F016FC00289BD1E068054615F00CFC854208BF4D4602D0856812F089
:201F70008BFC002DEDD02878401E6AD0801E46D0401E24D0401E1BD0C01E72D0401E6BD19F
:201F900068684388184614F045FB0646606866B9F00000EB0610C019C07D01285CD19A4981
:201FB0001A46584606F0B2FA56E001214DA350E06868467A002E4FD0032156A346E06A6807
:201FD000117960681278C2B1521E0FD0521E07D0521E41D111B953A303213AE056A30AE0A9
:201FF000002908BF5AA3F7D05EA304E0002908BF62A3F1D065A30091EEE769A3ECE76E685F
:2020100060683168491E0CD0491E08D00E3910D171680A780092498865A3019105E06DA358
:2020300000E071A371680978009104214A4613F033FB3068B0F1004F0ED0706812F01CFC73
:202050000AE0686806783EB901216CA3CDF8008060684A4613F020FB686838B112F00CFC92
:2020700004E06868B0F801000AF050F9284612F003FC66E7680D002008020020B71200204C
:20209000C51A0100914A010090080020508701001D550100518801103181011021B10010E2
:2020B000E5E400002976000040E201003D3D3D3D3D3D3D3D3D3D3D3D3D3D3D3D3D3D3D3DC1
:2020D00000C046C04D54552053697A653A20256400C046C046432056696F6C617465643AB5
:2020F00020256400436F6E6E656374696F6E2068616E646C65206973206E6F7420696E2007
:2021100074686520636F6E6E4C6973742021212100C046C050617373636F64653A202564A6
:2021300000C046C0426F6E642073617665207375636365737300C046426F6E64207361766B
:2021500065206661696C65643A20256400C046C0456E6372797074696F6E2073756363657E
:20217000737300C0456E6372797074696F6E206661696C65643A20256400C0465061697284
:20219000696E6720737563636573730050616972696E67206661696C3A20256400C046C0A9
:2021B00050616972696E6720737461727465640041647620536574202564206469736162FB
:2021D0006C656420616674657220636F6E6E20256400C04641647620536574202564204497
:2021F000697361626C6564004164762053657420256420456E61626C656400C043686172E2
:2022100020313A20256400C025AB00102DE9F04F0F46CC4C0168E16241688068ADF11C0D14
:20223000E060C448A1608047C348E16A0160A168DFF80CA34160E168DFF800938160CD49E9
:20225000002FA346C1606FD03D68E8788DF80C0028798DF80D0003A815F084FAA86808B136
:20227000C5490160E86808B1C4490160C44C2878207068786070A878BE68A0703178E17028
:202290007368636072696261B168A160F168E16031692A6A21617B68A2632E69E662186847
:2022B000A06168692063A8696063786886681EB9002014F071F800E026627868C06818B972
:2022D000002014F069F800E060627868006918B9002014F061F800E0A0627868406818B9F5
:2022F000002014F059F800E0E0612869E062F86881680E6806B9D14ECF494FF001084E60BA
:20231000C66881F8018036B9002014F045F84D462E68F86801E04D462E6000685446FB6845
:20233000A0615868E06107E0002014F035F84D462E684FF001085446361DC6493668621CCA
:2023500004F114035020B04710B1286880688047DBF808008047C14E002781463B46BE48D4
:2023700077706946206104223370384612F0D8FC0098B0F5801F0CD020B913F02DF807F069
:20239000EBFC08E011F0A2FB14F046FB0420708001E013F021F83846B94EA0602B68B7603B
:2023B000986980477060AE4880F8008039464180142014F04FFCFF211422A06214F055FE15
:2023D000E01CFF21022214F050FE142014F042FCA44F386038680021142214F046FE0020FB
:2023F00002F066F9404611F07DFE9F480188FF2906D1022101807822001D002114F035FE58
:20241000032015F0ABF9042015F0A4F9052015F09DF9062015F096F907200EF04BFE934E51
:202430000820307006F12C0014F00AFD3178062012F026FB10F094FE2636052006213246F2
:2024500013F0E4FE38B10020C0F10501401C06F8011B0628F8DB2B6885495E6809200DF102
:202470000E02087001AB10200021B047A06AE1690A260A309DF80E20761E00F8012BF9D1CD
:20249000891EE161DBF80C104846884704F120002B68626A059040461E69DFF8D88104F1BC
:2024B00020034146B04710B1286880688047B84613F04AFA5FEA000903D00BF0F3F84FF0DC
:2024D000FF39002642E00298216910F8062CA0F10C07032A03D1002938D0884736E0A16A48
:2024F0009DF810C00A223046491E11F8013F9C4506D0521E00F10100F7D14FF0FF0A01E00B
:202510005FFA80FA2868BAF1FF0F00F108001BD0387912F0F1F8B979012904D0022904BFF1
:202530000299887001E0029908700299504613F083FD0BE041490010F844002098120020A5
:202550006C100020200D0020006880472868C36904A902AA0DF10F0098470028B3D0D8F8D7
:2025700000007700C35B6BB9761CF6B20A2EF8DB2BE0C0460C780100BD530100B56601008A
:20259000680F00200A2E20DADBF808008047D8F80010002231F807A0CA53DBF80C10884713
:2025B000354850F8262026705146304690470646FF202070DBF808008047D8F800107A5A35
:2025D00016437E52DBF80C10884713F0BDF90746B9451AD007B9294FE069B84238BF071C81
:2025F000DBF80800804781462868016A206A8847626A28681F49059B521C6262C6683846CC
:20261000B047DBF80C1048468847A768296860691431AFB9D8F800000A270026835B33B168
:202630000969606988472968D8F8000014317F1E06F10206F2D107E0F4110020BBF00000C4
:20265000096988472968143109684FF0FF3088472EE7C046815C01002D6701009412002051
:20267000DC0E0020D4210020BC0D0020B80A0020F121002041470100BC8401008EC2F528F7
:202690005C2100202DE9F84FDFF84044A178FF2904BF002013F080FEA07814F09FF9044632
:2026B00004F1680604F5C9753168086804F1900710B10021E18310E0B07B002804BFB07E61
:2026D00000280AD13978002904BF2878002804D1207F012804BF608CE0832189E08B411865
:2026F000491C6181204613F0A5FB01281EBFDFF8E0030178012904D121890020491CE083B0
:2027100061814FF6FF78B07E01280DD1B28B6189208915F013F838B1218960894A1C93B2CF
:2027300098422CD0B08B20E0387801280DD17A886189208915F002F838B1218960894A1C4B
:2027500093B298421BD078880FE02878012816D16A886189208914F0F1FF80B12189608983
:202770004A1C93B298420AD0688892B2904206D04044608180B214F0DDFF4044E083287810
:2027900001280DD121896888491C89B2884207D16A792A71002028701346A17909F0D0FED6
:2027B00004F59A71087920B120890021401CE183608104F12E07B07E01283ED12289B08BD2
:2027D000521C92B2904238D1608104F18601204613F0E2FBB08C608400212177E183E08913
:2027F00061894118A181B08B218914F0A3FF8046B988308C728C01FB0808F08C8A4204BF01
:202810003989884202BFB38CF9888B4207D000090090B38CA1795208002014F0BBFFB07F9E
:202830003870718CB980B08CF8802046F18C398113F0DCFD0220B07601E0B7F80480E28BB4
:20285000DFF890C2DFF89092501C00FB08F040F6C41808FB00F100912368D3F80CE0714459
:20287000D960DCF800E09D499EF800A00B884FEA9A1ABAF1030F15D199F80FC05FEACC7E29
:2028900048BF00230ED45B1C1FFA83FCBCF1010F11BFB4F812C004F59A7EBEF806C00CF277
:2028B000DC5C01E0B4F812C00CFB00FC4FF4C87EBCFBFEFCDFF828A20CF1010CC4F814C0F9
:2028D0000B8084F820204FF01C0BA379A0610BFB03F3DAF80010226801F1080001F1080EB4
:2028F000C0581061A379D2F80CC060690BFB03F3ACEB00004EF8030001F10803A0790BFBCC
:2029100000FC53F80C00906001F10C02A0790BFB00F00C31135C03F0F00343F002030B542C
:20293000DAF80000A179821C0BFB01F100235352287908B913F030FDDAF80000A27900F1CD
:20295000100128790BFB02F240088854A079DAF800100BFB00F008440021417428790428B7
:2029700014D1A079DAF800100BFB00F001F110021031135C2A7A43EA82030B54A279DAF81B
:2029900000000BFB02F2024420205074DAF80000A27900F112010BFB02F200238B5251495E
:2029B000A2790968520101F11403D4F814E053F802C00CEB4E0C43F802C0B27E022A08D1CF
:2029D000A27952019E583B7808FB036601F114039E5099F80F20D30749D5A2790BFB02F2A0
:2029F00000F1080308309E58A6F5A8669E5001F11406A27923680BFB02F282589A600098EE
:202A1000121A1A6101F11402A0794001135803F5F66333502879042807D1A079400101F16D
:202A30001405135803F561632B5001F11400A27952018058C4F834012B4ABE88176B3868B1
:202A5000A57946436420B6FBF0F601F11C036D0108FB06F0A0F596605851A07901EB4010A3
:202A700022490B78012B1CD10121C1721CE02879A37904280CBF4FF4AA504FF4E66001F182
:202A900014025B01D258BB8808FB03F3101AA3F516739842D0D30821204613F0A9F9012031
:202AB00011E0916A4A78C272A179DAF800000BFB01F281182268516007200D490870204610
:202AD00011F0E2F90020BDE8F28F00BF684E0020784F0020084F00205C4D0020E0210020E7
:202AF000AC210020B021002008960100734F00206F4F00202DE9F84F040004BF002013F042
:202B10004BFC04F1500941F62300D9F8006030800021718014F00AFE00F57A60B0600221B5
:202B3000822030737173B068217E2061B1730020F073D9F80410087D022804BF002013F003
:202B50002BFCD9F80400007D012802D10020002104E083280CBF0620022020213074717443
:202B700004F1240BD9F80400DFF878834178480615D5D8F83410486902689BF80500511C55
:202B900000EB4000095A7182607DC10604D5E07F40F04000E07702E040F04000607506F1E3
:202BB00058050020287104F130009BF81A10890001F00401297128614FF01E0A607DC10660
:202BD00044D506F130003062D9F8040041788A060BD5617D01F0FE016175407810F0030FA7
:202BF00003D1E07F00F0FE00E077607D12F07FF80246A275521C307CC0F38001002392B2E3
:202C100000F0030011F0AAFAA0831E23A08BE27D00F5FA7100F5FA7090FBF3F34A430AFB5C
:202C300013006283C0B208B1C0F11E008018A183608380B2B168C03001EB8001A960022020
:202C5000E871E17F41F00801E17714E000203062607D40F001006075D9F804104A78510791
:202C700044BF40F002006075607D12F040F8A0750020A860E871A07D217D60F3050106F182
:202C90008800217501700321627D8170427006F128079BF81A10890001F0040141F0030158
:202CB00081709BF81B20D20002F00802114381700021C1708160BBF81C00C0F30B00ABF8CF
:202CD0001C00D9F80410CA7D40EA0230ABF81C000022617D01F0FE01204608F03DFF40F6C1
:202CF0001200B0830021F183A020706207213970607DC1064CBF00200220787041F6240152
:202D1000E07D7880398100207881B168608B01EB800139610220822139757875002094F864
:202D3000211001F03F01B975F875D9F80410887D012818BF022804D100F07F00401E0021AF
:202D500004E083280CBF06200220202179763876D8F8340041690A689BF80510501C01EBC3
:202D70004101405A788300216961D9F80400417811F0030F1BD012F071FB6861D8F81800D6
:202D90000078C1074CBF1021002182074CBF2022002243074CBF4023002300074CBF802001
:202DB000002011431943014341F00F01297600206876D9F80410887C00F0030068769BF8C4
:202DD0001A10890001F00401084368769BF81B10C90001F0080141F010010843687642499A
:202DF000087838B1687E40F040006876287E00F0FE002876E07F11F07AFF84F82000204619
:202E100009F004F9E07FC1063AD5D9F8040094F820204178521C88074EBFD21E9BF81F0071
:202E30008218387EC0F380010023D2B200F0030011F094F9ABF80000BBF8000000F5967184
:202E5000C1F11E0291FBFAF10AFB012A8BF804A0D9F8042051788A074CBF00214FF4FA7199
:202E70000818ABF80000ABF80200BBF800209BF8040039698218C03201EB8201022001E0D0
:202E900000210020E961E87604F13000A862D9F804104A78687E510747BF04F1380140F0C1
:202EB0002000124900F0DF00E9626876022294F82000A17F60F30501A17740F60B00B884B1
:202ED0000021F984F96229706A7094F845006880D9F804104878810744BF01206880002064
:202EF000BDE8F28F08960100784E0020D04700202DE9F0470546C84CDFF82483A9786068CD
:202F1000ADF1300D002900F00E81C44A491FC9A700F0A580491E48D0491E1BD00A3940F0DF
:202F30008181A888ADF80800688960B9ADF80E00A889ADF81000E988ADF80A102F89ADF872
:202F50000C70012000E00020BE498DF8130002AA0D46E3E0BC49AA88102002AB05F0D6FA8A
:202F70006668E87830B90DF10A000FF0FDFAB7A3009007E00DF10A000FF0F6FAA9780091B2
:202F9000B8A3019030460221002212F085FB04F11C0012F0D8FE041C00F04881208909F094
:202FB000B5F9204611F068FC40E11146102005F0ADFAC6B2606801210022B3A312F06CFB01
:202FD00000966068022100223B4612F065FBA888814613F01FFB012829D0C50005EB00155B
:202FF0002D194835A868071C0ED014F044F810B1384614F02CF8384614F094FB384611F0B6
:203010003BFC686811F038FC04F11C0007684D4657B182463889854203D15046394612F00E
:20303000F5FC3F68002FF5D1284610F075F81EB904F17C0014F00BF80025009562784146AE
:2030500010202B4605F062FA0095A278414610202B4605F05BFA606803212A46E4E01146D6
:20307000102005F053FA5FFA80F9CDF800906068022100223B4612F00FFB6878002833D101
:2030900004F148066F8930884FF6FF7181421CD13780032013F0C5FF7060A0B1082101706C
:2030B0007068A0F80170242013F0BBFFB06018B9706811F0E1FB06E0B068736841F270719B
:2030D00001220FF019FE012030756668281D0FF04BFA00900121002271A3304612F0DCFA54
:2030F00004F17C0013F0B1FFA278B9F1000F0FD1002500956278414610202B4605F006FA38
:203110002B460093A2784146102005F0FFF98DE06E4D1020294605F0F9F9627829461020B6
:2031300005F0F4F982E0697800297FD1EF798DF809702B7A8DF80A30EA7A8DF80F200026D9
:203150008DF80C60A9798DF80B60AF7A8DF808106B7A8DF80E705E4A8DF80D3002AF3B68F0
:2031700013607968516052A30121324612F094FA5849B1E88C1004A8A0E88C100EC9671C1B
:2031900080E80E0004AB10205349544A009705F0BDF9C0B208B113F0B0FB072004F1140342
:2031B00000904F4F0193627839461020334605F0ADF9C0B208B113F0A0FB1B20009004F117
:2031D00060030193627839461020012305F09EF9C0B208B113F091FB4249627810209223AB
:2031F00005F094F90096627841461020334605F08DF9C0B208B113F080FB6468A81D0FF0E9
:20321000B3F931A1009132462CA306210190204612F042FA0AE0C046080200209D3B0100F9
:203230009DC900000121022213F0B5FD0CB0BDE8F087C0464E756D20436F6E6E733A20256F
:203250006400C046A1C10000D93201004C696E6B20506172616D20557064617465643A20A6
:20327000257300C04C696E6B20506172616D20557064617465204661696C65642030782572
:20329000783A20257300C04644657669636520446973636F6E6E65637465642100C046C084
:2032B000436F6E6E656374656420746F20257300496E697469616C697A6564002573204141
:2032D0006464723A20257300446576007D400100B70500200C860100F5810000D1590100C5
:2032F00099A00000A12D01002DE9F84F0E46700688B026D5DFF848231078002108F05EFB20
:2033100004001ED0DFF83C0301688847054613F099FC6168884204BF40F2014014F0FEF9B6
:2033300000202072201D0EF00BF9C7490A6828469047204613F0B5FAFF22432120460EF0C4
:2033500085FEF0070BD513F07DFC28B100218160BE48006800B1804786F001006CE1B0074B
:203370000FD500210023069105910491039302910191009101223C2014F0CCF986F0020047
:203390005AE11E277007DFF8C88240F19F80B1480078002107918B4608F010FB0446AE4877
:2033B0008178FF2904BF002012F0F6FFA07A13F015FB0546606D807A95F82E91022818BF76
:2033D000032805F5947A06D108F10D0014F09EF908B908F1070B5146484614F093F988B376
:2033F000606D807C002818BF012804D14146504611F0A2FE04E05246494640460DF090FD1E
:20341000FF283ED007FB00F908EB090706225146F81D13F0A7F918F8090040F00209F81D89
:2034300007900622616DC87A00F0010085F82E0107F1010A606D00F10C0105F5947013F041
:2034500091F91EE05146484613F041FAC8B15246494640460DF064FDFF2812D0474308EB67
:20347000070404F10D0014F051F940B904F10D0014F04CF9002804BF607F012801D149F09F
:20349000020905F12C004B46017806914289120905920122698C0491C08807990291400861
:2034B0000390CDF804B0CDF800A00020A97914F031F9D5F89C0169498842A8790CBF002128
:2034D00001210BF05BFB86F00400B5E030060FD5002100230691059104910393029101917F
:2034F000009101223B2014F015F986F08000A3E0F0045BD55A490C6808F10D0014F006F9DE
:20351000002842D108F1070108F10D0014F0F6F83BE0606D4178480704F13E0523D52878A7
:2035300002281EBF0328687801282DD1697804F1380240460DF0F4FCFF2814D0784308EB06
:20355000000909F10D0014F0E1F860B909F1070109F10D0014F0D2F8062209F1070104F15F
:20357000380013F0FFF82878022818BF03280BD108F10D0014F0CAF830B9062208F1070183
:2035900004F1300013F0EEF82468002CC1D135484268354800784FF4805110F04FF910B18A
:2035B0008E200BF03DFF86F4805045E0B00505D513F0FDFB2D4901200860FEE7700504D5EB
:2035D00008F045FE86F4806036E0700405D581200BF026FF86F480402EE0B1042BD5244CB4
:2035F000206810B1002012F0D7FE4FF0FF3020600020204C0DF0B0F8216851F8202F68468D
:2036100090471D49086B4A6B24681C4B0090019202936B46C86A1A4A0392ADF8100025686C
:20363000184A19491948A8471949086004F08AFA86F4005000E0002009B0BDE8F08F00BFBE
:20365000EC210020280D00202C0D0020204F0020DC1D0020EE210020684E00208F1C010026
:20367000C8210020784E00206E4F0020FC002043044F0020F04E0020680F0020356C010005
:20369000456C0100A02000209811002088490020EC4E00202DE9FC47B44CB54D2678DFF8A4
:2036B000D482B54FB549002E4FF4A05900F01F81072E14D0092E18BF0A2E00F01A810B2E85
:2036D00018BF0C2E00F029810D2E00F0EC80112E5CD1AB4A1078002108F070F9002878D0BD
:2036F000C5F80080426D5378016DA64CDFF89882DB065ED50B4641F2044EB3F802C0F44522
:203710001FBF5E8B7645B3F832A0F24506D041F20A4EF4451CBF7645F24502D1A7F800E0AA
:203730004FE0002440F2FE364FF0180C0CFB04FC03F1020E3EF80CE0A7F800E0BEF1010FF2
:20375000F2D0BEF1000F12D0AEF1020EBEF1010F0DD9BEEB060E1AD04FF48066BEEB060420
:2037700012D04FF44066A41B01D0A41E012C40F2DE80241FFBD040F2FA36A41B00F0F180CF
:20379000641E00F0E680E11E00F0D980A7E0B3F800C040F6010EF44540F0C980641C022C62
:2037B000C2DD57E0981C20F80C900FE001680A710CE0488E388041F20441401A01D0801F2C
:2037D00001D12C6046E041F206403880C5F8008040E06E498978FF2911D0C5F8008008467B
:2037F0001C226B4B50431A68941C235A3B8013F47F4FF4D040F204441B1B012B654976D956
:203810004FF47F741B1B15D00A3B012B17D940F6F6341B1B032B84BF5B1F012B12D99B1E95
:20383000012B64D940F2FD341B1B0BD05B1E012B05D909E0921C41F20143135202E0941C13
:2038500024F80090296005E0002012F0A5FD8520FDF7A2FBBDE8FC474F480078012108F033
:2038700037BC4E4C4E4A25684E4800680023CDE9002355F8089F4C4B0222C8474B490880B2
:2038900035E0092E4ED14A490A685089002849D0484908780EF08AFC0021002013F02AFF8C
:2038B0000020207023E04888388002280DD940F20442801A1BD040F6FC72801A05D008385D
:2038D00015D04FF47F72801A2CD1887B801CC2B2B52AA8BF662088730020488007E000205F
:2038F00012F05AFD8420BDE8F647FDF755BBBDE8F3874888388010F47F4FFAD040F204421A
:20391000801AF4D040F6FC72801ABAD00838EED04FF47F72801AA4D004E04888388010F4C1
:203930007F4FFAD0002012F037FD8520DBE7807B012818BF042801D0A7F8009046E7807BD3
:2039500001287FF42FAF981C41F2024120F80C103CE75278D00647BF0022886D0022C86E47
:2039700024E7002012F018FD8320BCE76F4F0020204F0020E36F0100504F0020E42000200C
:20399000EC210020A9080000E1620000684E0020AC210020AD4B00006E4F0020F04E002000
:2039B00002000080EC4E0020E91C0100424F0020B8210020714F00202DE9F04F09AFADF1E0
:2039D0003C0D08900A92388809911E46ADF81800101C08BF002000F07581017800274FF007
:2039F000010B401C4FF0FF39B846DA460A9061E1252940F056810178401C0A902D2918BFED
:203A1000ADF8068004D10178ADF806B0401C0A9030291CBF4246434604D10178401C5A463D
:203A30005B460A902A29CDF800804D4617D1049330680A9BCDF80890C01C20F00300001DEB
:203A5000306050F8044C1978002C009403F101000A9018D5ADF806A06442009413E044465F
:203A70000AE0600000EBC4004018A0F130040A9801780094401C0A90302901DB3A29F0DB18
:203A9000CDF8089004932E2929D10178401C2A290A9011D13168CDF80880C91C21F003014D
:203AB000091D316051F8045C002D48BF454601782B46401C0A9011E0454643460AE06800A0
:203AD00000EBC5004018A0F130050A9801782B46401C0A90302901DB3A29F0DB02930AB1D3
:203AF000224604926C2904D04C2918BFADF8048004D10178ADF804A0401C0A900BA8CDF8D5
:203B10000C800FAB07906429059300F0828069297FD0BDF818C075296DD0782969D06F29E6
:203B300065D070294ED063293ED0732922D00A98401E0A90099801281AD966490C68B5F141
:203B5000FF3F03D0A84288BF6D1C05D86FF00041814294BF0D1C099D029508A80AA93246B6
:203B70006B46A04709993F18091A0398099165E0454617E03068C01C20F00300001D306051
:203B900050F8040CBCF1010F014608B94FA00146079112F04BFF0390B5F1FF3F4FD0A8425E
:203BB0004DD9039528464AE03068C01C20F00300001D306010F8040C8DF82C005D46039567
:203BD00058463CE0082035680490E81C20F00300001D306050F8041C082210230FA80CF086
:203BF00031FB401E079040210170079823E0082302E0102300E00A233068C01C20F003004C
:203C1000001D306050F8041CAA42BCBF2A1C04920DE03068C01C20F00300001D306050F8D3
:203C3000041CAA42BCBF2A1C04926FF009030FA80CF008FB07900599081A0390009C241A2C
:203C5000BDF8065000945DB906E008A8202109AA11F0F6FC7F1C009C641E0094F5D5039870
:203C7000401EB0F1FF3F03900FD1BDF8060001281CD10098401E009018D408A8202109AA9D
:203C900011F0DEFC00987F1CF4E70798017809AA08A811F0D5FC0798401C079003987F1C16
:203CB000DEE708A809AA11F0CBFC7F1C0A980178401C0A9000297FF49BAE089808B1414693
:203CD000017038460FB0BDE8F08FC046286E756C6C2900C0E0870100BB482DE9F84F002543
:203CF000BA4CB849056094F8E200002800F06581012800F02F81B64E02283CD0032840F07E
:203D10005C8151F8250CD4F8B8100029A0F5C060C4F8D400B8BF49420028B8BF4042814254
:203D300026DA4FF08057D7F8A4014568B4F8BC0030214FF47F42082300903046A847D7F890
:203D5000A4014568B4F8C00004214FF4F802122300903046A847D7F8A401B4F8D0704568FC
:203D700020214FF440620A2330460097A847012584F8D8501CE151F8258C13F018F82F469B
:203D900000B901273946934F38680028FCD0B146012609F10409D9F82CA03E6009B113F020
:203DB0000CF8CAF30720C4F8BC0013F000F8AA4600B9B2463B68002BFCD0D9F800B0BAF131
:203DD000000F3E6001D012F0F8FFCBF38440C4F8C00012F0ECFFAA4600B9B2463B68002B02
:203DF000FCD0D9F81C90BAF1000F3E6001D012F0E4FFC9F38120C4F8D000B8F5C061C4F8E9
:203E1000B81000F09C8094F8D80068B9C4F8D410D4F8C000C4F8C800D4F8BC70C4F8C470A1
:203E3000D4F8D030C4F8CC30D4F8D400D4F8BC30002854BF02226FF0010204F1C8010F68A0
:203E500000EB40008018421000EB927207EBA2000860D4F8C810C4F8C43000291CDD1E2995
:203E70003CDDD4F8CC0030B93429B4BF15391E21C4F8C81025E02A29BABFD4F8C8000B38FF
:203E90001E20C4F8C800D4F8C4003F28B4BF401C3F20C4F8C4001FE0D4F8CC00032812D007
:203EB00011F10B0FC6BFD4F8C8000B30301CC4F8C800D4F8C4000028C4BF401E051CC4F83C
:203ED000C450032508E011F1150FC6BFD4F8C8001530301CC4F8C800C4F8CC504FF080576C
:203EF000D7F8A401B4F8C43030214FF47F424568374800930823A847D7F8A40104214FF494
:203F100000321123456832480096A847B4F8C860D7F8A40104214FF4F802122345682C487F
:203F30000096A847D7F8A40120214FF440620A23B4F8CC60456826480096A84701E084F850
:203F5000D85040F2FF50404502D8801C40452FD2082030E051F8251C1F4F4BF2F52048431A
:203F7000060A3868C0F3814001280CD11B480068006880470FF0A8FF12F025FF3111C0102F
:203F9000484306EBE03694F8E50030B91448006820F07F403618760801E084F8E5501148DB
:203FB000310C0660012741600F4D8760287808B90B2000E0052084F8E40004F0DFF9BDE8E0
:203FD000F88FC0462D400C402C500C40A409002000A00C4000800C40B43F0050EC010010FE
:203FF000102009403C600C408D860100C2480278112A00D070472DE9F047C04A10780021F6
:2040100007F0DCFC04000AD1002012F0C5F9002012F0C2F9BDE8F047FF20FCF7BDBF04F1C6
:204030004C0898F8000008B90121E172451C88F80050E9B2E07DD8F80490814209F1400AC2
:2040500024D299F80E00401C89F80E00D8F808104A7AD9F80810520802F0010282F0010277
:20407000101889F80E00A08B01EB8001C9F80810627DD30609D5628B98F8003000FB132097
:20409000C03001EB8001CAF8201032E104F1280609F174074ED1A07F3875E17F7975D8F80D
:2040B00008205278930710D5E27FD30604D5C01E387501F0EF0179750020386089F8730066
:2040D0000022797D01F0FE010EE1910607D4F08B00B1F07EF875F08B00B1306AF861D8F871
:2040F00008004178C8070BD5F18B00291CBF306A002805D0F861B07E884238BF0146F9752C
:20411000E07FC1060CD5D9F83800317800EB8100C9F83800A18CC03100EB8100022101E0E3
:2041300000200021386089F873100022E17F01F0FC01D9E0D8F808104978CA0716D5787D0F
:20415000397D00F0F700891E01F03F0182075CBF891D40F00200420644BF491E00F0BF00FD
:20417000787539750020F861F875C2E0A28C2D1AD9F838008907EDB200EB820075D5012D7A
:2041900041D1C9F83800A07F00F03F00A0773875801EE17F7975387501F0F7017975D8F8B2
:2041B000082053785A0704D5801F387501F0FD01797500233A7DF17E9AF8000002F03F028B
:2041D0008A18521CC0F3800192B200F003000FF0C5FF00F5FA70A0841E21A08C90FBF1F136
:2041F0008AB2797D01F0FE01204607F0B5FC002189F87310F08B00B1F07EF875F08B00B127
:20421000306AF86175E0022DC9F8380026D1E07FC10706D5387D811F3975787D00F0FE003F
:20423000787500233A7DF17E9AF8000002F03F028A18521CC0F3800192B200F003000FF0F9
:204250008DFF00F5FA70A0840022797D01F0FE01204607F081FC707FAAF81A00707F401C67
:20427000451BE8B2012812DD07E0C9F83800E17F707F451BCA06E8B209D5A28CD9F83810FE
:20429000C03201EB82013960022189F8731080B3F969F27EE37FA57F0A445908FA614FEA1F
:2042B000410AD8F8081049784A0748BF2AF0020A890748BF2AF0080A012807D1307FF8759C
:2042D000002139602AF0100A89F87310504610F00EFD05F0C00500F03F0005433D7587F8D9
:2042F00015A000220AF0FC012046BDE8F04707F033BCBDE8F08700BF6F4F0020EC210020D2
:204310002DE9F84306460D46707801071DD4D6F80310B44821F07F41203981423FBFD6F826
:20433000061021F07F412039814228BF112033D2B01DF11C88425CD3B07A002818BF012828
:2043500003D0022818BF032853D1B07C002818BF012803D0022818BF03284AD1307D0128E6
:2043700018BF022803D0832818BF032841D1707A10F0070070723CD03078012107F01EFBE1
:2043900004000AD100200FF015FA044612F063FE844214BF07200D2021E104F154010020FA
:2043B0000E606072227A012A08BF0C20F4D0E075727A012383401A4208D0E27D521CE275AF
:2043D000D2B2012A04BF00F125022276401C0328EEDB7078C20619D5317D012909D11028D3
:2043F00011D012280CD0132804D0152804D01D2804D09FE0002007E0042102E0012003E0EC
:204410000221A17360E00320A0735DE0FF22A273307D02281EBF727802F003000328E8D0F6
:204430001307E6D408B19006E3D4520707D516F10C00DED0F07A002818BF01287AD100209F
:204450006075E077707810F0030F26D1207D00F03F0020757078820605D44868002804BFEA
:204470008868002801D018216175707881060DD4307D832818BF032804D118200121607586
:20449000E17703E0607D40F0010060757078410716D5E07F40F0020011E0217DC0074CBFE1
:2044B0000120022001F03F0141EA80112175182060750921E1777078410701D50B20E0770F
:2044D000207D00F0C000A07796F913007F2806BF454800780DF0E6FD04F12907387045B1B2
:2044F0004248416B48693978026801EB4101505C2870B07ADFF8F880DFF8F8903E4D0028AD
:2045100018BF012809D17875B07AC10758BFC8460622414604F130002FE005F10D0013F0C4
:20453000F5F8B8B1B07AC10754BF4946414612F0CEF908B9122052E0B07AC10754BF494678
:204550004146062204F1300012F00CF9B07A00F0010006E00622E91D04F1300012F002F91F
:2045700003207875B07A00F001002870B17AC80758BFC84606224146681C12F0F3F8707841
:20459000410729D5B07A022818BF03281BD1F17A06F10C0201F0010128460CF0C1FCFF28D2
:2045B00011D01E214843054405F10D0013F0AEF848B9E91D05F10D0013F0A0F80120B87558
:2045D0000622E91D04E0F07AB875062206F10C0104F1380012F0C6F8012060720020BDE851
:2045F000F28300BFE0FFFF00714F002008960100344E00202C4E0020DC1D002010B54FF4BD
:20461000DF622349234809F025FA23480021017001220223027243760322204904230A70B9
:20463000CB700521417707231D491E480B7008240C72062209210270017210BD2DE9F041EB
:20465000194A1A493820136854689568D6681769D2F814C0D2F818E0D2F81C800B604C605D
:204670008D60CE600F61C1F814C0C1F818E0C1F81C8020322031401EE5D110685368946826
:20469000D26808604B608C60CA60BDE8F0810000108F01004804002151030021C10300212A
:2046B00098030021740300210088010000C000212DE9F047DFF8AC916B496C4E89F80000DC
:2046D0000922002008600D2369484FF48D7102704380818067480660B77E67480770FF2F21
:2046F000F17E417008BFFF29327F8270737FC370B57F0571F67F467114D1FF2A08BFFF2BFE
:2047100010D1FF2D08BFFF2E0CD15C490A7802704B7843708A788270CB78C3700A7902713C
:204730004979417156490278564D574EDFF85C810A7043784B7082788A70C378CB7002790B
:20475000534B0A7140794871FF2028706870A870E8702871687100204E490880776B4E4995
:20477000787808703A784D491A70B87808707A6910794B4A411E1170F8784A4988F80000E3
:20479000B869086008B911F007FEF869464C206008B911F001FE2068DFF810A1016888473D
:2047B000226852F8041F5046884741484149CAF82000CAF82410386A3F49086008B911F04E
:2047D000EBFD786A3D4C206008B911F0E5FDB86A3B49086008B911F0DFFD04F079F9072811
:2047F0000CD107F0E9FA99F800004FF4804107F06FFCBDE8F047002011F0CEBD3148016891
:2048100088472268074610688047216851F8042F00209047F16898F800000A882A4B2B4943
:2048300002431A8038460A6890470C21284812F05DFF284800680E2112F0E4F9284612F071
:2048500051FF12F04BFF4FF6FF7223488280002101604FF4005199F80000BDE8F04707F00F
:2048700037BC00BF6E4F0020044F0020B63F0050604E0020084F00202C4E0020E8120050B8
:204890003C4E0020344E0020089601006C4F00207B4F00200C4F00206D4F00206B4F002027
:2048B000724F0020F04E0020F44E00207C4B0020656C0100856C0100F84E0020FC4E0020CC
:2048D000B4210020280D0020544F00202C0D0020F84D0020CC210020882100202DE9F84FCA
:2048F000DFF8B4920F460446F80B80F00981A54EDFF88482B80F80F0BA80B80880F0AE8050
:204910003809C0F02F81082012F070FA002840F0A080802012F06AFA002840F09A806846B4
:2049300008F060FF012803D10098002800F0918090480078002840F08C8000250124E8B2BA
:2049500012F038F848B1837A3BB1847290F9090004FA00F0C0B210F011F86D1C032DEED3C8
:2049700045460320287405F1AC0012F04AFB83480168002398461A46036050F8081C8049C7
:2049900040F8088C05F1340012F047FB404607F09EFB3068006B8047A968401A010BA86965
:2049B000C1F1FF3282422CBF08444FF0FF30A861287F20B1E868A969B1EBC02F25D911F02E
:2049D0009BFA414600B12146081C1BD06E4840F60901018043464380417B04F00F0221F0EF
:2049F0000F010A434273017B03F00F0621F00F0146EA01020273436012F0B4F8418811F429
:204A1000406FFBD02C774346AB610FF07BFA5F48444641460460022011F02EF802200FF0DA
:204A300079FF112007F014FC287818B96868383012F0FDFA5648007810B90E2007F008FC0C
:204A5000687F18B16C7705200FF064FF514868612C740CF055FC27F0080783E005F00CFE55
:204A700045467435286808B927F002077AE012F0CEFAB3468246DBF8540001680420884719
:204A9000D8B1207CC8B1454608352868A8B10646DBF80000E568006B8047801BE060000B33
:204AB000E060A84202D240194008E06040F6C41181422CBFB0F5FA7FE160504612F00AFE4F
:204AD0000FF0AEFC90B1A56920466FF4807100224FF00073A847464606F16C0528680028A5
:204AF00008BF47F0020701D00CF00AFC2046646900214FF080630A46A04727F0005731E0A0
:204B100012F085FA49460E6846B306F1280106C90A234FF0E0450B40154008BF002B1DD106
:204B300006F1280191E8300006F1280393E8060006F12803AA43A14383E8060012F0CAFDCC
:204B5000B16869B1002D08BF002C09D030692246B6F93C10B4682B46A04701E012F0BAFD0F
:204B700027F4804727B148463946503012F067FABDE8F88FA91800201017002014100440BF
:204B9000551901008C01001000210020000004603A8701002DB8000090170020A248807804
:204BB000FF2800D170472DE9F84F11F017FF054605F217100178012908BF417800F0A7801F
:204BD00005F17400817B022903D105F174010020887305F59274E18911B1207B07F078FAAA
:204BF0006889DFF848C2DFF8489228819CF807209CF80A009CF80C109CF80B709CF80D3090
:204C100000EB02088844B84405F58D779844BB885B1CBB803E8846443E80B7F802E086448F
:204C3000A7F802E04FF01C0E2368E3B1D9F8006095F806B006F10E0A0EFB0BFB0E361AF873
:204C50000BA033F81AB0C34423F81AB095F806A00EFB0AFA16F80AB003EB4B06B6F84AA0D9
:204C70008244A6F84AA0002A04BF9CF80B20002A05D1002904BF9CF80D10002926D02989BC
:204C9000E88941180026A9812E74287F012804BF688CE8839CF8010068B10121297705F1F0
:204CB00074018878002804BF887B002803D1087F08B9688CE883207D002832D0022804BF2A
:204CD0009CF80B00002827D1002129E0EA8340B1297F012600200129287406D1688CE88392
:204CF00003E0F888401C0226F880A8892989814206D08842CED2081A41F2AB029042C9DAE8
:204D1000287C08B1052901D0082100E03E212846BDE8F44F11F06CB89CF8090008B10221CB
:204D3000217544489CF80F2001682868D30709D5DCF81020C26001F11400A9794901002213
:204D5000425010E0AA791431520189582161D9F80020A97902F108030EFB01F15A58C260C3
:204D70000020E8832877344841690A78900703D59CF80E00802800D1812005F1740A8AF830
:204D900000002846FCF766FD01284AD0012128460AF0F4FC284610F026FEFDF773FC012864
:204DB0003FD000F041FEDFF89490D9F80000C0B3B9F80400AA7990421CBF4FF6FD71884264
:204DD0002FD11F48007A11F04DFF040029D02670A879608095F83910217195F896016071A4
:204DF0009AF90010A171A4F808807888608111F029FF050005D1FF204FF0FF312073216142
:204E100009E02878207312F091FC0146A86812F05DFC800820612046D9F80010BDE8F44FED
:204E30000847BDE8F18F00BF684E00205C4D0020AC210020B021002008960100882100204A
:204E5000B81100202DE9F84F050046D0DFF8509299F80000092818BF0A2804D00B281CBF7B
:204E70000C280D2801D1212018E1A878002106F0A5FD040008BF4220F6D0A8788949087077
:204E900004F14807F868417801F01201022902BF786900280C2012D0607AF0B1A07B0128DF
:204EB00004D1B5F8030008B1812816DA6878402813DA204608F01CFEB86808B90720EDE089
:204ED000BD61287801281BD1A07B00281CBF0128042815D17448007808B91220DEE07349F5
:204EF0004A78824208BF0920F8D004F1220004F13801427F802005F0CFF908B10B20CDE070
:204F1000687808B91120C9E02878694EDFF8A4A1DFF8A4B1012840F08980207A0021012821
:204F300021734FF00A0811D19BF8000040210FF01BFCB5F8030008FB00F1402010F050FE3E
:204F50000100E0D1B96968794871A6E001202072E172617308F010FA6060DAF80000804718
:204F7000564A0146106802E06268426000680028FAD1084631688847616851484861F868F8
:204F90004178C80605D5204601F0AEFB01000BD084E00020608411F02DFE84F8210020462D
:204FB000FDF7A8FD010079D1F8684178C8071CD504F14206B18800291CBF3868002814D0FE
:204FD00032788A4211D20F2011F002FA68B1F86801788DF80010B088ADF801000F203178FF
:204FF0008DF80310694610F0C7FF99F80000002853D13449087800281EBFF868417811F09B
:20501000030F1CBF304810F077FC112089F8000001212172B5F8030008FB00F1402010F03D
:20503000DFFD01003AD100F0FFFC36E0207AA8B3DAF80000804705469BF8000040210FF0AB
:2050500093FB0020207211F01FFF012804D011F0F9FD6168884217D11C4A1D4813680068C4
:2050700053F8384F0021A04740F2014012F056FB18491948086001219BF8000007F028F88A
:2050900031682846884708E0204610F013FA316828468847204611F004FC0020BDE8F28F4C
:2050B0006F4F0020ED2100207B4F0020684E00202C0D0020280D00206E4F0020C821002080
:2050D000C5600000784E0020CC470020F04E0020EC4E0020204F0020E16200002DE9F04FA3
:2050F0008246DAF80070DAF804600C465FEA0208ADF11C0D14BF00214FF0FF31DFF84092E8
:20511000484611F0C4FC002818BF0B2040F0158100258F488C4905708A48FC60524611F033
:205130007CFF317B272011F07AFFB8F1010F07D0657002200FF054FE06200FF051FE01E04A
:20515000012060702078012840F2AA80801E012868D9801E012833D9801E012800F2DE803F
:2051700011F055FF83464FF0805000F5EE77D0F8DC01A378466A009321782846062908BF98
:205190000120019001200290A068228AE1686368B0478146584612F09DFAB9F1000F40F0F4
:2051B000BF80B8F1000F02D011F088FA02E050460FF032FC002800F0A3803868806A2AE01F
:2051D00011F025FF83464FF0805000F5EE77D0F8DC01012306680093A168A2786068247817
:2051F000AC46042C08BF9C466346B0478146584612F070FAB9F1000F40F09280B8F1000FB0
:2052100002D011F05BFA02E050460FF005FC002876D03868406880474C49C1F8B0510D60A5
:2052300081467DE011F0F3FE83464FF0805000F5EE77D0F8DC01E38A86690093E0680190A9
:20525000208B0290A0780390207D04900121059122782846022A08BF081CE1786268A36820
:20527000B0478146584612F035FAB9F1000F57D1B8F1000F02D011F021FA02E050460FF093
:20529000CBFB00283CD03868006A80475FEA000946D1E078A168E28A236909F03BFDBFE79A
:2052B00011F0B5FE83464FF0805000F5EE76D0F8DC01E38AC7680093E0680190208B02900F
:2052D000A0780390207D2946049001200590257805B9014608466268A368E178B8478146D9
:2052F000584612F0F7F9B9F1000F19D1B8F1000F02D011F0E3F902E050460FF08DFB08B944
:2053100014201AE03068406980475FEA000907D1306802692169E078904781E74FF0FF3982
:20533000B8F1010F05D002200FF0F4FA06200FF0F1FA034811F07BFE484607B0BDE8F08F82
:205350003C0E0020740E00202957010050450240E32100202DE9F24F054684B02868D0F887
:205370000490D9F8080012F0ADF9002805F59A7B40F0058128680169049812F0A7F905F1ED
:20539000820680463078002805F12E0440F6C41A00F0878070882989401E80B212F0CAF9AD
:2053B0000746307802280CBFBBF83000A088784300902868016900980AFB0011049812F057
:2053D00081F9002868D07F1C03973078009F039A02280CBFBBF83000A088C71900230AFBC2
:2053F00007F0029201930090296809694118049812F068F990B100983189A8EB00080AFB60
:2054100001F0B8FBF0F200FB1288B8F1000F18BF521C514301910399521802922989029858
:2054300041186981F18801983278CF19C719012A48D105F18601284610F0AEFD70896884D6
:2054500000212977E983E88969894118A9813289A188B0898A4204BF2389984202BF71893C
:20547000E388994207D0000900907389A9795208002012F08FF9A088ABF83000317921700E
:205490003089A0807189E180B0892081284610F0ADFF0220307015E03178012918BF10F073
:2054B0007BFFA08829890AFB00F0B8FBF0F700FB1788B8F1000F18BF7F1C79186981BFB249
:2054D000A08847432968344A08690AFB0700C9F808000B78802B10D1C860D2F83080A388D9
:2054F000D8F8000043436420B3FBF0F3D9F814000AFB03F3A3F5966343610B78402B36D127
:20551000AF614FF4C873688A4743B7FBF3F0401C6861D9F80830181AC9F808006B69DBF80C
:20553000000000EB4300D9F8143058611B4833780068022B0CD1AB795B0100F1140656F806
:2055500003C026780AFB06CC00F1140646F803C0AB79126B00EB4316A38810684343642065
:20557000B3FBF0F30AFB03F0A0F59660F061D9F8080088602846E17AA1720EF085FC6989A8
:20559000A88912F0D7F8E989814238BF0120ABF82E0005B0BDE8F08F08960100B021002072
:2055B0002DE9FE4F8A4C617811B9002010F0F4FE12F0BCF806464FF0000806F6C4160027A7
:2055D000844DDFF8149211E0384611F007FA417951B12A68817902F8081008F101015FFA4E
:2055F00081F83146FFF7B6FE7F1CFFB299F800008742E9DB6178884505D0002010F0CCFE32
:205610008220FBF7C9FC6078012840F0C380002701E07F1CFFB299F80000874280F2B48059
:20563000384611F0DBF9064670790028F1D02968B0790A7890421CBF002010F0ADFEB0790C
:20565000A0E0286810F8090011F0C8F900684268DAF808109068814204BF3E4609F1010955
:2056700000F0A680A8E0286890F800B001224FF4D0710FE0636803F5B176835C01FB03F95D
:2056900001FB0BFE36F809C036F80E60B44538BF9B46521CFBB29A42ECDB4FF6FF700AF025
:2056B000E5F80646584611F099F94C490068D0F804A00868D94630F8192060684FF4D073D9
:2056D00000F10E0103FB09F3C85AB2EBD00F52D2720840F6C410424300920027404A019021
:2056F000029217E0584611F079F901680A78802A03D1DAF81430009A5A610978402908D167
:20571000029980790A6802EB4011009800F5A060C8617F1C47452EDA2868C05D8345F8D013
:2057300001464FF4D073594363685A1803F5B173D289595A53088B4202D2521A9045E8DA8A
:2057500011F04CF901684A68019B9168DAF808207008A1F6C41103FB002011F0B3FF00286C
:20577000C0D01E48006830F81910491C20F81910286810F807B01948026800215B4622F8CE
:2057900013105846BDE8FE8F002010F005FE8220FBF702FC617828680BF08FFB286800785B
:2057B00011F01CF900260068D0F804A04FF00109771CC145FFF645AFF6B2002E1CBFF8B2A3
:2057D00000287FF450AF286890F800B065E700BF684E0020004F00207B4F0020C02100201C
:2057F000B02100202DE9FE4F8648DFF81C920278002A41D0D21F012A4ED90A3A40F0FA800C
:20581000824C2078002106F0D9F804001EBF606D407810F00C0F2FD0C00603D5216D886D89
:20583000026802E0206DC16E0A6802F108050622A91C684610F096FF287800F00F010529E0
:205850001AD16946C0F3801011F05CFF002813D0494668460FF070FC0546494604F1380045
:205870000FF06AFC85420DD0606D4178C80604D440F2014011F052FFC2E0607B40F002006F
:205890006073BDE01E20454309EB050006226946C01D10F067FFB3E0DFF874B19BF802008B
:2058B000FF28F8D011F09AF8804608F16C06706811F004FF00900179032907D180680478D7
:2058D00014F0030403D1706811F0F4FE98E04578032C00F1020A08F2171706D198F894008A
:2058F00000284AD0042D11DD1CE0A5B1307868B108F1F400017801290DD1424A1178072971
:2059100004D0082904BFC078012804D13D2179700120387074E03F490A78012A70D098F810
:20593000940050B32D1FEDB253462A462146404608F0F6FC38B93D20787001213970484666
:205950000FF011FC5CE0344801688847814698F80610DBF804204FF4D07041435018002246
:2059700080F8412108F59E700168807949080BF03DFA2A490A684846904700990020032C1B
:20599000886016D0264841690878820707D5C0074CBF0320002040191AF8000000E081202B
:2059B000307223469BF802002A46514603F0E2F918E09AF800001A2803D21A4A115C8D4221
:2059D00005D0B870072140460AF090FE07E00D480178082903D051464046FAF727FB504605
:2059F0000DF0BAFA706811F065FE009940460EF0A3FD05E0002010F0CFFC8620FBF7CCFABF
:205A1000BDE8F78F6F4F0020DC1D0020EC210020684E0020794F0020280D00202C0D0020BB
:205A300008960100409601002DE9F84F894E716884B0009121B905B0BDE8F04F11F036BEA6
:205A50000978DFF81492DFF81482854FDFF814B201291CBF0229042941F64C5A04D04029E3
:205A700018BF802970D0EBE011F00EFA0028FAD00098007804F050F8054611F07EF9044637
:205A90009BF80100002841D0FFF78AFD10F0A6FF0290016800914968019194B100992846EC
:205AB0000AF0FCFE02280CD029780129DBD118B911F03CFE5044A0600120B07011213970A9
:205AD000B8E00098017880290BD108203870019998F800204869012A0BD0D9F828100A782C
:205AF0000DE007203870019998F800204869012A02D10121C17203E0D9F828104A78C272AA
:205B10000298817900988BF8021094E0002DAAD000992878A94208D1012802D1002C03D1A0
:205B300094E0002010F038FC84E001289BD1002CF6D011F0FBFD00F5C241A068A83111F0CF
:205B5000C1FD002872D16DE09BF80100002859D0FFF726FD10F042FF044620680190456870
:205B70009BF8020010F03AFF039011F093F910F0070F21D0B07803F0CFFF009011F0FDF8B1
:205B90000290C8B1019900980AF088FE022813D000990A78012A0CD128B911F0C7FD82449C
:205BB0000298C0F808A0112139700120B070009841E0002010F0F0FB0398A04220D00199F4
:205BD000087880280DD10821397098F800206869012A02D10121C1720FE0D9F828100A788F
:205BF0000AE00720387098F80010686901290EBF0122D9F828104A78C272A0798BF80200B4
:205C1000019818E011F046F910F0070F1ED0B07803F082FF054611F0B0F8044628780128FC
:205C300014D19CB111F082FD5044A060112038700121B170284605B0BDE8F04F08F092BCA5
:205C500005B0BDE8F04F002010F0A6BB05B0BDE8F08F00BF6821002008960100734F002058
:205C70006F4F0020684E00202DE9FE4F05467B48002400680094C00905D37948007810B92C
:205C900020200EF0B3FF012D40F0E280DFF80092D9F8DC00012840F0D8800220C9F8DC00BE
:205CB00010F088FC01200EF0A1FF5FEA000805D00120C9F8DC0010F089FCCBE011F0BBF9C8
:205CD000A34602906748684DC0F800B0A86A016801208847012804D158460AF0F9FB012057
:205CF00000906248624FC0F800B03868112011F077F800B10124102011F072F808B144F0A2
:205D100002040F2011F06CF808B144F004040B2011F066F820B12868564E016B3088884762
:205D30000A2011F05DF820B12868534E016B308888475248012606602868816944F02000E9
:205D500088474F48066011F045F800F001010191400814D2286A81684A4888478246BAF128
:205D7000040FF7D0BAF1010F04D1286A42684548032190474449086820F0030008605846CF
:205D900000F088F82B683868986B8047019801280CD0BAF1010F04D1286A42683948314624
:205DB00090473949086840F0030008602F48066028684169204688470B2011F011F820B11D
:205DD00028682C4BC16A188888470A2011F008F820B12868284BC16A1888884727480660A4
:205DF0000322C9F8DC20264BC3F800B02868416B204688470128F9D1386804200EF0F6FEBB
:205E10000446184806603868144800688009FBD30098012802D130460AF05AFB10F0CDFF82
:205E300008200EF0E3FE07460298C9F8DC6011F039FC164800880AF07FF810F0C7FB57EAD7
:205E5000040018BF4FF0FF3804E06FF0040801E06FF001084046BDE8FE8FC046141009401E
:205E70008C0A00200C400940B8010010000222432C200940D2820100CE82010028200860AC
:205E900080010443004003402422084088860100A40900202DE9F84FDFF804B20746ABF16A
:205EB0003500DFF8F0810068800880F0E28075480068006880477E490831D1F800900025C1
:205ED0004FEA29715FEA995201F101010AD2C0F13E0210F10A0F4FEAE202D8BF082291421F
:205EF000B8BF111C684BD3F87C21C2F30462162AA8BF203A1B68C3F30443162BA8BF203B34
:205F10009A465218162A05DA12F10A0FB8BF6FF0090200E015225D4B5D4E02F01F0141F45A
:205F3000F8511980316811F0030F18BF0125C90828BF45F002050FB145F00405434693F9BF
:205F50000710411A052904DA9979A94208BF99886FD0DFF844E10F28A0F10F0829DB08EBBD
:205F70000011A1F1F0084FEA28210091072984BF07210091062988BF06215EF8216004249B
:205F9000774604EB81043C594FEA950CA41BEE0804F0FF0124BFC4F3072631446F08AE083F
:205FB00024BFC4F3074631446E0828BF01EB146104E000214FEA950C6F080091009C5EF8DE
:205FD00024E05FEA5C060EF0FF0424BFCEF3072634447E0824BFCEF3074634446E0828BF6C
:205FF00004EB1E64009E89B2A8EB06267143803104EB1124AAEB02010029D8BF012134222F
:2060100009F0FF074A4391B24FF6FF727943B1FBF4F18A4238BF111C802889B205DA10F1EB
:20603000800FB8BF6FF07F0000E07F209980D8719D711A4800681F2918604FF0000008D3D9
:2060500040F2FF128A4206D24908401C8A42FBD301E01F219980134F0F39090940EAC10021
:2060700047EA0001CBF8FB1F0026CBF8FF6FBDE8F88F0D490D4F434608200F609B1D18706C
:20609000BDE8F88FEC0100103C1100506E62084024220840902100209C1300500820094043
:2060B0003500094000E7A48030100940FDFDA400AC3F00502DE9F84F824A8346107800214A
:2060D00005F07CFC9BF80010044601291CBF002010F062F914B9002010F05EF904F14C064B
:2060F0004FF47A67B0684178D6F804A0C8064FF00B0841F64C592CD50AF178000021018017
:206110008170C17001714171C18001818172C172C160A07B01281BD011F008FB0AF10805E4
:206130004844296811F0CEFA002811D011F0FEFA4844286011F0B2FA0B2290FBF2F2296879
:2061500008FB12081FFA88F007FB00172F60276183E00AF174010020088400220AF196001F
:20617000027042708270C2708280C28002724272CAF8A0200AF1080511F0D8FA29684844E1
:2061900011F0A0FA88B111F0D1FA4844286011F085FA0B2290FBF2F2296808FB12081FFA58
:2061B00088F007FB00172F6027610AF14007607DC1064FD5287AA27D521CC0F38001002397
:2061D00092B200F003000DF0C9FFA0831E20A28B02F5FA731E2193FBF0F001FB1030C0B266
:2061F00008B1C0F11E009BB28C46801893FBFCFC00F5FA7002F5FA7201FB1C316083A283B7
:20621000C9B209B1C1F11E018A18A28380B2E17D491E92B202FB01026283608B2A68C03014
:2062300002EB800139620220F877618B02EB81022A63287A18B9397809B120322A63A18CE1
:20625000286BC03100EB8100CAF8740002208AF8730002E000213962F977616870681A4ADE
:206270008A614860B2685078C3065CBF102088615078830703D5886940F40020886150787C
:20629000430704D5886940F40000886188610F4B187800281CBF507810F0030F03D0886949
:2062B00040F4802088610020B1683070087E10F0300F04D05846BDE8F24F0DF071B8BDE850
:2062D000F18F00BFEC21002002000080784E00202DE9F84FDFF8F4A19AF80000002105F069
:2062F0006DFB040004F1500602D110F055F8DEE0207A30B920460FF0DDF8204610F0D1FA0B
:206310001EE0207BDFF8C881401C20730121E17230694079C0B1217B814215D198F80000B8
:2063300040210EF021FA0020207220460FF0C2F8204610F0B6FAFF22432120460BF086FE82
:20635000BDE8F14FFFF770BB04F14509002089F8070011F0A3F9D6F804C027690146DCF862
:2063700003004FF00B0E20F07F4040F6C41391FBFEFE0B2203FB007702FB1E1189B24FF402
:206390007A604143306889B200F10805C9192960216104F122079CF80110CA0618D5A17B35
:2063B00001290AD10020207220460FF083F898F80000022105F08CFE65E090F8731001F0C3
:2063D000E00141F0860180F87310424941675AE080460020A8F8020008F1600B217EA97107
:2063F000607DC10606D5618B2868C03100EB8100CBF8000008F18800217D01700021627DE2
:206410004270C17081603888401C388080B210F0F1FB84F821000022617D01F0FE012046C3
:2064300005F09AFB0020E882E17D6984688508F13E0094F8211001F03F0101702A68618BEC
:2064500002EB81022A630022028299F800108183726851788A0709D5B98879800121A27F55
:2064700002F03F0242F08002A2778183E07FC10609D57988286BC03100EB8100CBF814003C
:2064900002208BF813001449087880B1387F022818BF03280BD1114F07F10D0011F036F9D2
:2064B00028B90622F91D04F1300010F05BF9FFF7BBFA4CB17068017E480605D55146BDE8D1
:2064D000F44F03200FF058BDBDE8F18FEC2100206E4F002000204E00784E0020DC1D002096
:2064F000F8B57F4F04463868C16E0025002940F0F380102010F0AEFB39680028C86600F047
:20651000E9808E6E1022214610F02CF939680878002840F09080C86E00F10C02D6F8980024
:2065300092F800C000F001030CF0010C634518BF0023400843EA4000C6F89800C0F3400361
:20655000D2F800C0CCF3400C634506BF430803F00103002320F0020040EA4300C6F89800EF
:20657000C0F38003D2F800C0CCF3800C634506BF830803F00103002320F0040040EA83002D
:20659000C6F89800C0F3C003D2F800C0CCF3C00C634506BFC30803F00103002320F00800A0
:2065B00040EAC300C6F89800C0F30023D2F800C0CCF3002C634506BF030A03F001030023A9
:2065D00020F4807040EA0320C6F89800C0F34023D2F800C0CCF3402C634506BF430A03F08C
:2065F0000103002320F4007040EA4320C6F89800C0F38023D2F800C0CCF3802C634506BF45
:20661000830A03F00103002320F4806040EA8320C6F89800C0F3C0231268C2F3C022934230
:2066300006BFC20A02F00102002220F4006040EAC220C6F898008A6E92F89500030718D5BE
:20665000C86E4368C3F3C00098B1C87840F00800C870D6F8981023480140C6F898103A68B0
:20667000D06EC16821F48071C16049084900C16003E092F8330001282AD0607800281CBF23
:206690007178002908D13968CA78130708D5002804BF7078002803D03868052101711CE023
:2066B0006068C0F3800040B996F8950010F0040002D10120087110E00AD00878002819BFF8
:2066D000307821783178207810F0E4FF054604E0182502E0132500E011252846F2BD00BFCD
:2066F000304F0020FEFEFFFF2DE9F0475FEA000A04BF00200FF050FE0AF1500700243E6805
:20671000DFF8C881DFF8C89179684A7A1820604301233518A3401A420AD09AF80E1039F82E
:2067300011002880002118F80420AA73E97302E040F6010028800021698005F11800686021
:20675000287B00F0EF00287340F0800028739AF80E1001290ED141F28830A860297B01F080
:20677000F00141F005012973687B00F0F00040F0020017E0002C0CBF0221002100F0F0003E
:206790000843287324B910F0D1FF00F57A6000E00020A860022C697B0CBF0120022001F06E
