:2000000000400020613A010001C9011001C9011001C9011001C9011001C9011001C90110C2
:1C00200001C9011001C9011001C9011001C9011001C9011001C901103FC9011089
:20003C002DE9F04F85B0804611F8010BDFF81028009008F1FD00009B182B08F1E70508F1EE
:20005C00660A08F20D1B08F5B07408F1860908F59C7608F5C67700F2E183DFE813F01900C7
:20007C006A0080018800DF03DF03F100BA0303011801F40000014701DF03DF039F01DF03DF
:20009C0082016A01C6030B030B035E02DF03A90211F8015B89F80050022208F1880000F0B9
:2000BC00D9FB0146022208F18A0000F0D3FB0146022208F18C0000F0CDFB0146022208F198
:2000DC008E0000F0C7FB99F80010B9F80220490089F800105200B9F80410A9F80220490053
:2000FC00A9F804100222B9F808100901A9F80810014608F1840000F0ADFBBAF81E10B8F893
:20011C000800091A89B247F6FF72914225DAB9F80600B9F80410B9F80820401C4900484358
:20013C00904228BF3B2080F06F8201208AF81C0018E0052208F1610000F08CFB0146022214
:20015C0008F1920000F086FBB9F80C10B8F80800091A89B247F6FF72914280F254820120BA
:20017C0089F80A000021A8F81E10307065E3AA7DD00709D4687B1A210128A97302D1FF22CF
:20019C000D213BE00D210DE200208AF8000001226A7408F1B000082200F05CFB01460222B5
:2001BC0008F1B80000F056FB08F1A80401460822204600F04FFB06460821204600F04EFB67
:2001DC0008F19C0404223146204600F043FB0421204600F043FB08F1A00000F043FB08F1C0
:2001FC00980000F043FBDFF85C06018841F080010180687B012807D1FF220421404605B0C3
:20021C00BDE8F04F0FF060BA9AF811500F2D18BF142D03D00E2D18BF0C2D0FD19AF810409E
:20023C00404612F081F90421404610F0E9FB012C12BF29468AF81A50FD21B3E10421B1E14F
:20025C000120E873F9E2002100208AF800108AF8060001216973287068700B21A2E1012092
:20027C002874EAE2541C00230932CD5CD65C3543CD54E65C3540C5545B1C082BF5DB9AF85C
:20029C00060000284BD0404610F05CFCCBE2002302F10906CF5C16F803C04CEA0707CF54E6
:2002BC0002F1010E1EF8039007EA0907C7545B1C082BEFDB02206875E97D080703D440F666
:2002DC004800A081E08150788106CAD520891B2804BF60891B2807D1A089B0F5A47F04BFE3
:2002FC00E089B0F5A47FBCD014215BE19BF80000012811D011F8012B8BF8032008F5897046
:20031C00022200F0A7FA0146022208F58A7000F0A1FA01218BF800109AF80600002800F0BA
:20033C00AF819BF8020000282AD140460FF08CFD79E2A87DDFF81045C10609D412208BF8A6
:20035C000C00404612F07AFA002819D120786DE2404612F073FE002812D1207866E208781C
:20037C0052E108782070497861709AF8100001280ED19AF811000F38012802D9C01F03D042
:20039C005BE20122727358E2387B40F0010043E205B0BDE8F04F002016F034BAA87DDFF810
:2003BC00A844820709D40F208BF80C00404612F045FA0028E7D1207838E208784A7800EB8B
:2003DC0002203082CA78887800EB022070824A79087900EB0220B082CA79887900EB022018
:2003FC00F082087A30764A7A887A02EB00227283C87A0A7B00EB0220B0838A7B487B00EBC3
:20041C000220F0830A7CC87B00EB022030848A7C487C00EB022070840A7DC87C00EB0220FE
:20043C00B084487D897D00EB0120F084DFF81C0401788A0658BF1A2213D508F5AA7004903B
:20045C00718B0391307E0290B8F808100191F08A0090B38A728A318A40460FF073F9A0B116
:20047C001E22A87D410709D40F208BF80C00404612F0E4F900284DD12078D7E1404605B0E2
:20049C00BDE8F04F0F2114F0D9BA708AA9F804000022B18AA9F806100221F08AA9F808009C
:2004BC0089F80010A9F80220B8F83400C01DAAF81E00B8F83210B9F80400B0EB510F02BFE8
:2004DC00B9F80600B8F83410884202BFB9F80800B8F83610B0EB111F1DD09AF81000012898
:2004FC0004BF9AF811000F2807D09AF8150020B10F218AF81A10FE2154E0FC21404610F022
:20051C007FFAF08A0090B38A728A318A98F8060000F0B0F991E1102144E0E87D10F0090FD5
:20053C0003D116208BF80C007AE14A78087802F00702104008707A7B0240FA7211D0501EB4
:20055C0002420CD0520704D5B87B10B10421F97205E0F97A0220014219D14008FBD1F87A7C
:20057C0008B9B87AF872F87A042803D1404611F05DFCA083F87A00F081F93871A28BB97BA7
:20059C00012313F0DBF8218B814202D208E0F872E5E7A28BB97B3879012313F0CFF801469D
:2005BC0079801721404605B0BDE8F04F10F028BA48780A78824207D100F007001040087050
:2005DC0033D0431E18420FD01E221821404614F035FA98F80610012301221E200CF022F8EF
:2005FC00387B40F0400017E1F87247F6FF728878C97800EB012038813989B8F80800091A09
:20061C0089B2914206DB282001218BF80B008BF80A1012E10120B871F97A042903D1404603
:20063C0011F004FCA083F87A0BE09AF81100162806D1BB7A98F806101A4600200BF0F2FF1E
:20065C00B87A3871A28BB97B3879012313F076F8218B814206D3A28BB97B3879012313F07B
:20067C006DF8014679800121387B40F0400038733170E2E0142B04BF9AF80600002806D1CD
:20069C003D2101208BF80B108BF80A00D5E00A78487802EB002262828878CA7800EB02205B
:2006BC00E0824A79087900EB022020828879C97900EB0120A08208F5B07108F5B0708A8A09
:2006DC00C089B97A904288BF1046042905D140F691229042B8BF4FF42960E28BE083904270
:2006FC00B87A14BF01250025042805D1404611F09DFBA28B90420AE008F5B07008F5B07149
:20071C008089CA8AA18B904288BF1046884214BF01210021A0830D4308F5B07008F5B07137
:20073C0000894A8A218B904288BF1046884214BF012100210D432083A28BB97BB87A01239B
:20075C0012F0FCFF218B814206D3A28BB97BB87A012312F0F3FF0146798008F5B07008F533
:20077C00B0724189108A628B814288BF01466183914298F8063014BF0120002005438A42F4
:20079C0033490A6802EB4311628B8041121DC00F0A7610B1404614F0EFFB009814280ED1FA
:2007BC0045B1E08B0090638BA28B218B98F8060000F068F8152140460EF07EFB33E01DB16B
:2007DC00387840F008003870397841F02001397033E008780E280ED00F2809D0122804D0FC
:2007FC0014280BD0162811D027E00021317224E00120307321E0032169751EE0387840F033
:20081C000200387040F01000387016E0387B40F00200387340F0100038730EE08BF80C300C
:20083C00404612F00BF840B9074800784FF4804105B0BDE8F04F0BF0BDBC05B0BDE8F08F67
:20085C008C230020524F00206E4F0020144E002034240020DFF800F0D1920010DFF800F014
:20087C00AD710110DFF800F00D720110DFF800F021720110DFF800F0E5BE0010DFF800F02A
:20089C00BD8F0010DFF800F065BF00102DE9F84F012014F0BFFB012819D1DFF8A046207841
:2008BC0000210BF0FFF85FEA000804BF002015F0A9FF002088F8080008F1040011F02AF860
:2008DC0006F020FB050003D1812000F05FFB2EE301206871DFF86826DFF868064178491C54
:2008FC004170A87988F80A0040202178117005F597740CF005FE2860D8F854104A78D8F8B4
:20091C005000D1061AD5806D01680A79032A1CBF002015F077FFD8F85000816D90F87C0017
:20093C000A6802F1080601281CBF002015F06AFFD8F85000D0F88410286846E0C06E0168CD
:20095C000A79032A1CBF002015F05CFFD8F85000C16E90F898000A6802F1080601281CBF8A
:20097C00002015F04FFFD8F85000DFF8DC25D0F8A0102868DFF8D495C16096F826701388C8
:20099C00032F22D8DFE807F00205101801F5B06101E001F53471C160B9F80000E087B9F8B5
:2009BC000010A5F8741113E0E3871188A5F87411C26802F5355206E0E3871188A5F874111E
:2009DC00C26802F6B872C26002E001F5B061C1603078DFF87C95DFF87CB5C0F38010207018
:2009FC000622B11C05F5947016F0F2F8042206F10E0105F1240016F0EBF8D9F80000AF79D0
:200A1C0000F10C03042206F10E0103EB471016F0DFF8D9F80000AB7900EB4317032206F116
:200A3C00120107F1100016F0D3F805F12C07707DB870022206F1160105F1300016F0C8F852
:200A5C00022206F1180105F1320016F0C1F8022206F11A0105F1340016F0BAF8388968849A
:200A7C00022206F11C0105F1360016F0B1F8B87879894000B8700901B88879814000B880F1
:200A9C0089B2F8884000F88003046A8C521CDB0B5A438A4201D280B250B99BF800008021CB
:200ABC000BF088FB2846BDE8F44F3B2115F0B9BB05F12E01284615F097FC0520A88128468A
:200ADC0015F0CAFE052206F11E0105F1610016F07FF896F823004009387015F0ABFA6882E6
:200AFC00B8F82A10401AA08105F1610196F82300DFF8644400F01F00F873284613F039F9D0
:200B1C00D8F854104A78D8F85000D10647BF0022806D0022C06E1C2601680A7141F62102E7
:200B3C00A9792068714342520021AB7973430344001D5980AA7972438150D8F85420DFF8AB
:200B5C001C045178CA060DD5DFF814148A7851060AD5DFF81024138841F20A418B4208BFEF
:200B7C00DFF80404C5F89C01D5F89C11284688472268A97902F10E03714358540021AA7915
:200B9C002068DFF8E83372430244D173187878B1B88868B979730120288168812846D5F88C
:200BBC009C2190472168AA7901F10E0372439854A8792168704301F10E02135C7B73D8F8A9
:200BDC0054104A78D1061AD595F8960108B915F019FEA97920687143014495F89601421EE5
:200BFC000A74A879216870430844002141742268A97902F112007143002242522AE0D8F8E7
:200C1C005010236891F8402018440274A879216870430844D8F8501091F841204274D8F8C9
:200C3C0050002168AB79403001F1120273434188D15205F5CB710078012200F003008240FD
:200C5C000A70D8F8502092F84000800814BF012002200871A979D9F800002268DFF810A3D6
:200C7C0000EB411302F1140C71434CF80130A97971431144BF4A8A61DAF81410097895F8BA
:200C9C0006E0CA074CBF102200228B074CBF202300235FEA417C4CBF4FF0400C4FF0000C38
:200CBC0009074CBF8021002113434CEA030308304FEA4E1E0B4343F00F0300F80E30D9F832
:200CDC000010A87901EB40120B215172D9F80000AA7900EB421104208872D9F80020A97937
:200CFC0002EB4110A44A1378012B02D10121C17203E0DAF828104A78C272D9F80000A979F7
:200D1C0000EB41121F201076D9F80010AA7901EB421000214176A8790BF05AFFA979D9F832
:200D3C00002049015050A9794B01D05820B90721284615F076FAFAE09048026802EB0110F9
:200D5C0000F028F98D4AA8791368D9F8001003EB00120B1D40011A50081DAA7952018058CC
:200D7C00F863AA7952018858786404219BF800000BF020FAD8F8540042782168D00648BFB9
:200D9C004FF0020B0BD4A87970430844027C02F00302022A14BF4FF0040B4FF0060B734B1C
:200DBC00BA881878934410B10AB9F888834498F80D2090070AD50521284615F032FA98F81B
:200DDC000D0000F0FD0088F80D00B4E0688A00FB0BF04FF4C872B0FBF2F2521CC5F818B0F5
:200DFC006A6140F6C41CA8792B687043009001F1080ED8680CFB0B0B0098ABEB0202A2F5D1
:200E1C00A8624EF8002001F10802A87906FB00FB52F80B00986001F10C02A87970430C31CF
:200E3C00135C03F0EF030B54A8792168704301F10C020C31135C03F07F030B54A87921685C
:200E5C00704301F10C020C31135C03F0F00343F002030B54A8792168704301F10D020D31FE
:200E7C00135C03F0F00343F001030B542068A97900F10802714350582A6810616B69D9F8C2
:200E9C000000AA7997F802E05B0000F1140152010CFB0E3303F5F6638B5095F89611042919
:200EBC0007D1A979490100F11402535803F561635350A97900EB4110C27C02F0F00242F00F
:200EDC000402C274FB88D9F80010A879DAF8307001EB4012386843436427B3FBF7F30CFB35
:200EFC0003F0A0F59660D061A87901EB4010C17E01F0F00141F00401C176A97920682A6800
:200F1C004E438119516028460E210FF079FD1C4907200870404615F0FAFEAA790021404676
:200F3C0011F07EFA28681749174A41618261BDE8F14F04F0A5BABDE8F18F00BF7024002076
:200F5C0072240020684E00206224002060240020342400206E4F002030240020F72B0100B3
:200F7C008C230020504F00206F200100784E0020D09A01005C4D0020734F00208C4E002041
:200F9C006F4F00201141010002048080DFF800F09D920010DFF800F051A5001081680A4AEE
:200FBC001160C168094A11600169094A11604169084A11608169084A1160C169074A116083
:200FDC0000790749087070478C4F0020904F0020944F0020984F0020804F0020844F002017
:040FFC009C4F0020E6
:20100000B41200001810000015AB0110FDB301106DC00110FDAE011099B5011059BA0110D3
:0810200039BA01102D00000097
:20102800B01200003C100000B1C00110A9BF011067C0011069B80110B9B9011099B901104F
:041048003000000074
:20104C00B012000060100000BDC00110CDB30110D9BD01106DB301108DB80110D9B9011062
:04106C00310000004F
:2010700000000000E818002004000000000000000000000020000000E8C90110300000002A
:2010900028100000F01800200400000000000000000000000C000000D8CA01101800000005
:2010B0004C100000F818002004000000000000000000000024000000F0CA01101800000089
:2010D00000000000001900200400000000000000000000001000000018CA01102C00000094
:2010F0000010000010190020040000000000000000000000200000006CCA011024000000F8
:20111000FFFFFFFF181900200400000000000000000000002800000090CA011024000000B7
:20113000FFFFFFFF201900200400000000000000000000001400000008CB01101800000036
:20115000FFFFFFFF2819002004000000000000000000000058000000B4C901103400000004
:20117000FFFFFFFF301900200400000000000000000000001000000020CB011018000000D2
:20119000FFFFFFFF381900200400000000000000000000001C000000B4CA011024000000FF
:2011B000FFFFFFFF401900200400000000000000000000003800000044CA01102800000027
:2011D000FFFFFFFF481900200400000000000000000000005400000078C901103C0000009C
:0811F00001000000B48C0100B5
:0411F80001000000F2
:0411FC0000000E00E1
:0412000000000F00DB
:0412040032000000B4
:0412080001000000E1
:04120C000C1800209A
:0412100000020000D8
:0412140000000000D6
:0412180001C90110F7
:04121C0000000000CE
:0412200000000000CA
:0412240008000000BE
:0412280000002200A0
:04122C007416002014
:0412300000000000BA
:0412340000000000B6
:0412380008000000AA
:04123C00B4170020C3
:0412400000000000AA
:0412440000000000A6
:04124800080000009A
:04124C00000000009E
:04125000000000009A
:041254000000000096
:041258000000000092
:04125C00010000008D
:04126000DC16002078
:041264000600000080
:041268000100000081
:04126C0060150020E9
:04127000000000007A
:041274000000000076
:041278000002000070
:04127C00000000006E
:02128000290043
:02128200010069
:02128400250043
:02128600300036
:02128800310033
:02128A002D0035
:02128C0001005F
:01128E00015E
:0812900003000000488C01007E
:0812980000000000000000004E
:0412A0000000010049
:0412A4000000030043
:0412A80013C401105A
:0412AC00996D010037
:0412B000B812000070
:0412B400B81200006C
:0412B8000000000032
:0412BC00AC1800204A
:0412C000616F010059
:0412C4002000000006
:0412C800B08B0100E6
:0412CC00E0890100B4
:0412D00029C101101F
:0412D400A30C010066
:0412D800B712010048
:0412DC00A1C7011095
:0412E000A3C701108F
:0412E4000000000006
:0412E800E78B01008F
:0412EC00B0870100C6
:0412F000C8870100AA
:0412F40098870100D6
:0212F8000200F2
:0212FA000900E9
:0212FC000100EF
:0212FE000000EE
:0113000001EB
:04130400DD6E010099
:04130800194C01007B
:04130C004D6101002E
:04131000CD500100BB
:04131400514C010037
:04131800793801001F
:04131C00E9E90000FB
:04132000397201001D
:04132400B91F0100EC
:0413280015C70110D4
:04132C0025C70110C0
:201330002DE9F04FC24CDFF8048320788B464FEADB31ADF1140DC9032AD1A0695FEADB017A
:2013500010D25FEA1B1038BF0020C0F07C82A07B012804D14146087808B90CF08BFF8BF080
:20137000080B6EE288B115F029FA071C0DD0F87A58B9384616F071F87A68B97A388907F05C
:20139000A1FA786808B115F0C5FE8BF0040B58E20DF092FA0028039000F051820746012008
:2013B00004903878B03800F0D181401E00F0C5811F3840F03782B87866784FF0000A0A2852
:2013D0000FDC0A2800F08780002800F08581401F00F07681401E00F04481C01E00F02A81F9
:2013F000A8E10B386DD0C01E00F0A281401E0DD0401E40F09F81227815F0E0F9002800F06A
:201410009781104604210AF0DBFE91E1002E55D0B88812F0D5FD051C00F08C81B87A4008E5
:201430000FD36E796EB1012E0BD0F868800A08D206F00106A81D524631460DF05DFB002898
:2014500037D1207A022802D1B87A000931D3BE886D790C2015F04EFE07F10808071C00F0DA
:2014700067813E815146BD72B8F1000F39600846F87209D04046082115F03AFA786020B974
:20149000384615F047FE53E17960A369002B08BFA76103D01C4623684BB92760384615F093
:2014B000DCFF42462946304607F00CFA40E11C46F1E7B888032116F0F1FB3BE1B8880521A4
:2014D00006E015F0C7FD002800F032817889049916F0E4FB2CE13D466878002840F028818E
:2014F000A8794008C0F0248168465146082216F00CF8B88812F064FD071C09D1227815F066
:201510005DF9002873D0104604210AF059FE6EE0686900284DD004465146062204F11100BB
:2015300015F052FAD046F0B12046062215F04CFAA8B9207C5646113400F00109761C2046EA
:2015500049465246F6B226700DF0D6FA10B9002EF4D104E01EB1B8F1010F02D006E0DDF894
:20157000108056466E61B8F1010F22D0686950B30646307C062206F1110100F001008DF842
:201590000600684615F02AFB787906F11104012805D107F10C00B91D062215F01FFBB81D6B
:2015B0002146062215F01AFB307C40F00200787109E07879B91D062200F001008DF8060057
:2015D000684615F00BFBA879C00839BF387900F0FD00387940F002003871A879000939BF15
:2015F000387900F0DF00387940F020003871A8799DF80710C0F3800008438DF80700A879B9
:20161000000905D39DF8070040F008008DF807006846294605F068FD18B9A88812F004F803
:2016300086E0A88813F046FC82E0C0465A4F0020B8120020F978381D0DF1090201F00101E2
:201650000DF05AFA002873D19DF80910480007F10C0200EB810025300421C0B209F08EF8EA
:2016700066E0B88813F026FC16F014FB002861D1E07A012816D0207B01280ED0734C5646DA
:20169000354614F8010F012803D1284609F0EEF826706D1C062DF4DB0DE00FF0C5FA5646F1
:2016B000267308E015F02EFB514604F120000622E17215F02AFF14F079FB11F049FF39E03C
:2016D0007878002836D1F8787A893B7B391D00F0010009F04DFD2DE0787858BB16F0D6FA42
:2016F000814616F0CFFA804616F0C8FA8DF8080010214A46022009F041F803201021424638
:2017100009F03CF80499042002AA09F037F89DF80800012803D09DF8080003280AD104981F
:2017300013F0F2FD02460620014609F027F801E0049EB2465646049674E03879002871D1BA
:201750007888F9883A8910F019FE6BE03D462879401E2BD0083802D0743856D05DE0687855
:201770001A284ED06888804614F0ECFB801E0ED0401E52D1388901284FD1788903284CD108
:20179000F86882780421404611F033F845E02889012842D1688903283FD1E868807800285A
:2017B0003BD16888049A10218046ECE7297A688805F108060829814623D114F0C3FB801ED2
:2017D00002D0401E18D01CE068891021002211F010F8484612F0F4FB98B141460F7847B9C2
:2017F000417901F00102811D1046049A15F0D2F807E00498A07304E070880421002210F011
:20181000F8FF688811F010FF07E06C88204614F099FB0146204614F0DFFF297905F10800B9
:2018300016F028FA049838B909480078FF2806D0039914F02FFE02E0039814F01BFE8BF437
:20185000004B1FFA8BF005B0BDE8F08FD7120020811900202DE9F843040014D1002014F09F
:20187000D7FF10E0204610F0EFFF012808D063E08A0740F1628101F0FD0101700020B071B4
:20189000204610F057FE04F16605687D002853D0697CDFF8C894022904F1EC0704F59E78B3
:2018B00004F5B07604F5C67035D0042947D005295DD0062900F08D800729D3D0092900F005
:2018D000FA800B2900F0C5800C2900F016810D2900F0D5800E2900F0F8800F2900F0358161
:2018F000102900F04F81112900F06781122900F01C81142900F09281162900F0668117296F
:2019100000F08181FC2917D0FD2900F0A081FE2900F0AD81A2E7287C012809D199F8030079
:20193000002813D01621204614F081FC012004E0204610F0E2F828740020BDE8F283287CAF
:20195000012840F0B08199F80200002800F0F5800021A971FF22FC2120460DF0BBFEA0791F
:2019700004F1B80204F1B00116F080F98BE7287C012811D199F8020028B1012184F89410B4
:20199000002038607860B87A01286BD1FF22062120460DF09FFE76E704F1E70630780128B8
:2019B00009D1204612F0E1FE0128C5D10020B87201212974C0E770780028BDD004F1C7022C
:2019D00004F1A00104F1D70016F04CF90120307059E7297C012940F06A8199F802000028A4
:2019F00040D0608CE083204610F0A4FD01202870204612F0A3F90121A971397A787C0129A7
:201A100010D1C00609D5002188F80510D8F8001098F8060049080FF079FBA079002116F001
:201A30001DF910E0C00609D5D8F80020DFF8300304F5A1735208214615F094FCA079012253
:201A5000002116F007F9002038723873F872B87219E7287C012806D1F87A012804BFFF2223
:201A7000FC2195D069E020460FF0E8FA012821D10020F87284F894000120287403E7287C44
:201A9000012811D199F8020048B1002184F8941001202870204612F051F90121A97199F826
:201AB0000300002810D148E0204612F009FB2874E88A288340E7287C012840F0FC8099F88C
:201AD0000200D0B3608CE083DAE6287C012840F0F680387C022804F1FD0204D1A17900200E
:201AF00016F0B4F8CCE6032840F0F280A1791A2016F0ACF800203874C2E6287C012804F270
:201B10000D1140F0F0800878012804F5897240F0F0804878012807D15088009000201388D6
:201B3000CA78A17916F08EF8AAE6287C012840F0EF8099F802000028F6D1288B401E288373
:201B500080B20028B6D12221EDE6287C012840F0E38098F80900012802D131780F291BE0AD
:201B700098F80800012826D1002188F80810288D000900901A20AA8CEB8CA179520816F035
:201B90005DF87DE6287C012840F0CA8098F80900012810D1317810291CBF002014F038FE7C
:201BB000002088F80900298D09090091AA8CEB8CA1797078E2E7287F73E7287C01283FF49A
:201BD00061AF20460FF07CFE71E7297C012940F0AB80017B4A061DD4CB0709D501F0FE0127
:201BF00001730123A179707801220AF021FD47E68A0740F19E8001F0FD0101730123A17952
:201C100001221A20F1E7297C012940F09F80017B4A0692D501F0BF01017331E6297C012923
:201C300040F0968001788A067FF522AE01F0DF010A0701700AD501F0F7010170F08B00906A
:201C5000738BB28B318BA079FEF722FE16E6A97EFF2220460DF03EFD0EE7FF2220460DF0F4
:201C700039FD012067E6002014F0D2FD64E6A97E0C2918BF0E29F0D00F2902D01429ECD046
:201C9000F1E7FF22FC2120460DF024FDB8F812000090B8F81030B8F80E20B8F80C10A07995
:201CB000FEF7EEFD48E620460CF00BFCFFE6204611F004F9FBE620460EF04AFFF7E6204683
:201CD0000EF010FF28740121E88A2883397433E6288B401E288380B20028F8D1A17922200B
:201CF00015F0B4FF2FE70120887020460EF0B2F8DDE6288B401E288380B20028E7D1508876
:201D1000009022201388CA78A17915F09BFF1AE7204611F072F9CAE620460BF001FBC6E6BF
:201D300020460BF04FFBC2E6162120460BF0B0F8BDE6288B401E288380B20028C7D1A17995
:201D50000123012222200AF073FCFCE61721ECE7142120460DF0B6F8A9E600BF5C4D002037
:201D7000F1FD00002DE9F04F0F46CC4C0168E16241688068ADF11C0DE060C448A16080478B
:201D9000C348E16A0160A168DFF80CA34160E168DFF800938160CD49002FA346C1606FD02A
:201DB0003D68E8788DF80C0028798DF80D0003A815F040FFA86808B1C5490160E86808B11A
:201DD000C4490160C44C2878207068786070A878BE68A0703178E170736863607269626109
:201DF000B168A160F168E16031692A6A21617B68A2632E69E6621868A06168692063A869C2
:201E10006063786886681EB9002014F001FD00E026627868C06818B9002014F0F9FC00E0EE
:201E300060627868006918B9002014F0F1FC00E0A0627868406818B9002014F0E9FC00E081
:201E5000E0612869E062F86881680E6806B9D14ECF494FF001084E60C66881F8018036B99C
:201E7000002014F0D5FC4D462E68F86801E04D462E6000685446FB68A0615868E06107E084
:201E9000002014F0C5FC4D462E684FF001085446361DC6493668621C04F114035020B04751
:201EB00010B1286880688047DBF808008047C14E002781463B46BE487770694620610422AF
:201ED0003370384613F060F90098B0F5801F0CD020B913F09FFC07F0CBFE08E012F010F894
:201EF00014F0E0FF0420708001E013F093FC3846B94EA0602B68B760986980477060AE48AB
:201F100080F8008039464180142015F0F3F8FF211422A06215F0F9FAE01CFF21022215F0C0
:201F3000F4FA142015F0E6F8A44F386038680021142215F0EAFA002002F0ECF8404612F0A3
:201F5000E9FA9F480188FF2906D1022101807822001D002115F0D9FA032015F067FE04201A
:201F700015F060FE052015F059FE062015F052FE07200FF02FFA934E0820307006F12C00D7
:201F900015F0AEF93178062012F0AEFF11F0E0FA263605200621324614F066FB38B100209E
:201FB000C0F10501401C06F8011B0628F8DB2B6885495E6809200DF10E02087001AB102031
:201FD0000021B047A06AE1690A260A309DF80E20761E00F8012BF9D1891EE161DBF80C10FE
:201FF0004846884704F120002B68626A059040461E69DFF8D88104F120034146B04710B1D7
:20201000286880688047B84613F0BCFE5FEA000903D00BF061FC4FF0FF39002642E00298E0
:20203000216910F8062CA0F10C07032A03D1002938D0884736E0A16A9DF810C00A223046FF
:20205000491E11F8013F9C4506D0521E00F10100F7D14FF0FF0A01E05FFA80FA2868BAF1A8
:20207000FF0F00F108001BD0387912F05DFDB979012904D0022904BF0299887001E0029924
:2020900008700299504614F005FA0BE041490010F84400205C1900203C17002090130020D8
:2020B000006880472868C36904A902AA0DF10F0098470028B3D0D8F800007700C35B6BB9AC
:2020D000761CF6B20A2EF8DB2BE0C046B47C0100F95701002D6B0100381600200A2E20DADF
:2020F000DBF808008047D8F80010002231F807A0CA53DBF80C108847354850F826202670E0
:202110005146304690470646FF202070DBF808008047D8F800107A5A16437E52DBF80C1062
:20213000884713F02FFE0746B9451AD007B9294FE069B84238BF071CDBF80800804781465D
:202150002868016A206A8847626A28681F49059B521C6262C6683846B047DBF80C10484665
:202170008847A768296860691431AFB9D8F800000A270026835B33B10969606988472968E6
:20219000D8F8000014317F1E06F10206F2D107E0B81800205BEF0000096988472968143183
:2021B00009684FF0FF3088472EE7C046BD600100A56B010058190020AC1500205824002009
:2021D0002C140020B812002075240020714B0100688901008EC2F528D42300202DE9F84F5C
:2021F000DFF84044A178FF2904BF002014F010FBA07814F039FE044604F1680604F5C9750A
:202210003168086804F1900710B10021E18310E0B07B002804BFB07E00280AD139780029C2
:2022300004BF2878002804D1207F012804BF608CE0832189E08B4118491C6181204614F035
:2022500018F801281EBFDFF8E0030178012904D121890020491CE08361814FF6FF78B07EC8
:2022700001280DD1B28B6189208915F0CFFC38B1218960894A1C93B298422CD0B08B20E06F
:20229000387801280DD17A886189208915F0BEFC38B1218960894A1C93B298421BD0788837
:2022B0000FE02878012816D16A886189208915F0ADFC80B1218960894A1C93B298420AD019
:2022D000688892B2904206D04044608180B215F099FC4044E083287801280DD121896888B9
:2022F000491C89B2884207D16A792A71002028701346A1790AF09CF904F59A71087920B1FE
:2023100020890021401CE183608104F12E07B07E01283ED12289B08B521C92B2904238D13F
:20233000608104F18601204614F064F8B08C608400212177E183E08961894118A181B08B24
:20235000218915F05FFC8046B988308C728C01FB0808F08C8A4204BF3989884202BFB38CFF
:20237000F9888B4207D000090090B38CA1795208002015F063FCB07F3870718CB980B08C0F
:20239000F8802046F18C398114F06CFA0220B07601E0B7F80480E28BDFF890C2DFF89092C3
:2023B000501C00FB08F040F6C41808FB00F100912368D3F80CE07144D960DCF800E09D494D
:2023D0009EF800A00B884FEA9A1ABAF1030F15D199F80FC05FEACC7E48BF00230ED45B1C1E
:2023F0001FFA83FCBCF1010F11BFB4F812C004F59A7EBEF806C00CF2DC5C01E0B4F812C008
:202410000CFB00FC4FF4C87EBCFBFEFCDFF828A20CF1010CC4F814C00B8084F820204FF0AE
:202430001C0BA379A0610BFB03F3DAF80010226801F1080001F1080EC0581061A379D2F86F
:202450000CC060690BFB03F3ACEB00004EF8030001F10803A0790BFB00FC53F80C0090609C
:2024700001F10C02A0790BFB00F00C31135C03F0F00343F002030B54DAF80000A179821C8A
:202490000BFB01F100235352287908B914F0C0F9DAF80000A27900F1100128790BFB02F2C3
:2024B00040088854A079DAF800100BFB00F00844002141742879042814D1A079DAF8001028
:2024D0000BFB00F001F110021031135C2A7A43EA82030B54A279DAF800000BFB02F2024460
:2024F00020205074DAF80000A27900F112010BFB02F200238B525149A2790968520101F172
:202510001403D4F814E053F802C00CEB4E0C43F802C0B27E022A08D1A27952019E583B782D
:2025300008FB036601F114039E5099F80F20D30749D5A2790BFB02F200F1080308309E5831
:20255000A6F5A8669E5001F11406A27923680BFB02F282589A600098121A1A6101F114020D
:20257000A0794001135803F5F66333502879042807D1A079400101F11405135803F5616381
:202590002B5001F11400A27952018058C4F834012B4ABE88176B3868A57946436420B6FBBA
:2025B000F0F601F11C036D0108FB06F0A0F596605851A07901EB401022490B78012B1CD11D
:2025D0000121C1721CE02879A37904280CBF4FF4AA504FF4E66001F114025B01D258BB884F
:2025F00008FB03F3101AA3F516739842D0D30821204613F01CFE012011E0916A4A78C2725B
:20261000A179DAF800000BFB01F281182268516007200D490870204611F030FE0020BDE8A2
:20263000F28F00BF684E0020784F0020084F00205C4D0020642400203024002034240020B9
:20265000D09A0100734F00206F4F00202DE9F84F040004BF002014F0DBF804F1500941F69F
:202670002300D9F8006030800021718015F0C6FA00F57A60B0600221822030737173B0682C
:20269000217E2061B1730020F073D9F80410087D022804BF002014F0BBF8D9F80400007DE3
:2026B000012802D10020002104E083280CBF0620022020213074717404F1240BD9F8040068
:2026D000DFF878834178480615D5D8F83410486902689BF80500511C00EB4000095A718272
:2026F000607DC10604D5E07F40F04000E07702E040F04000607506F158050020287104F1FE
:2027100030009BF81A10890001F00401297128614FF01E0A607DC10644D506F1300030623D
:20273000D9F8040041788A060BD5617D01F0FE016175407810F0030F03D1E07F00F0FE00FC
:20275000E077607D12F007FD0246A275521C307CC0F38001002392B200F0030011F016FF12
:20277000A0831E23A08BE27D00F5FA7100F5FA7090FBF3F34A430AFB13006283C0B208B176
:20279000C0F11E008018A183608380B2B168C03001EB8001A9600220E871E17F41F00801F5
:2027B000E17714E000203062607D40F001006075D9F804104A78510744BF40F0020060751F
:2027D000607D12F0C8FCA0750020A860E871A07D217D60F3050106F18800217501700321F2
:2027F000627D8170427006F128079BF81A10890001F0040141F0030181709BF81B20D2001F
:2028100002F00802114381700021C1708160BBF81C00C0F30B00ABF81C00D9F80410CA7DBC
:2028300040EA0230ABF81C000022617D01F0FE01204609F00BFA40F61200B0830021F18309
:20285000A020706207213970607DC1064CBF00200220787041F62401E07D788039810020A1
:202870007881B168608B01EB800139610220822139757875002094F8211001F03F01B975A8
:20289000F875D9F80410887D012818BF022804D100F07F00401E002104E083280CBF062064
:2028B0000220202179763876D8F8340041690A689BF80510501C01EB4101405A78830021F0
:2028D0006961D9F80400417811F0030F1BD012F0E3FF6861D8F818000078C1074CBF102181
:2028F000002182074CBF2022002243074CBF4023002300074CBF802000201143194301430E
:2029100041F00F01297600206876D9F80410887C00F0030068769BF81A10890001F00401D3
:20293000084368769BF81B10C90001F0080141F01001084368764249087838B1687E40F068
:2029500040006876287E00F0FE002876E07F12F002FC84F82000204609F0D0FBE07FC106CC
:202970003AD5D9F8040094F820204178521C88074EBFD21E9BF81F008218387EC0F38001AE
:202990000023D2B200F0030011F000FEABF80000BBF8000000F59671C1F11E0291FBFAF1F3
:2029B0000AFB012A8BF804A0D9F8042051788A074CBF00214FF4FA710818ABF80000ABF821
:2029D0000200BBF800209BF8040039698218C03201EB8201022001E000210020E961E876F2
:2029F00004F13000A862D9F804104A78687E510747BF04F1380140F02000124900F0DF0005
:202A1000E9626876022294F82000A17F60F30501A17740F60B00B8840021F984F96229700D
:202A30006A7094F845006880D9F804104878810744BF012068800020BDE8F28FD09A010009
:202A5000784E0020D04700202DE9F84F0E46700688B026D5DFF848231078002109F028F8EB
:202A700004001ED0DFF83C0301688847054614F039FB6168884204BF40F2014015F0BAF803
:202A900000202072201D0EF04BFFC7490A6828469047204614F041F9FF22432120460FF09A
:202AB000C5FCF0070BD514F01DFB28B100218160BE48006800B1804786F001006CE1B00716
:202AD0000FD500210023069105910491039302910191009101223C2015F088F886F0020034
:202AF0005AE11E277007DFF8C88240F19F80B1480078002107918B4608F0DAFF0446AE4852
:202B10008178FF2904BF002013F082FEA07A14F0ABF90546606D807A95F82E91022818BFFD
:202B3000032805F5947A06D108F10D0015F05AF808B908F1070B5146484615F04FF888B3A6
:202B5000606D807C002818BF012804D14146504612F026FD04E05246494640460EF070FB63
:202B7000FF283ED007FB00F908EB090706225146F81D14F033F818F8090040F00209F81DA6
:202B900007900622616DC87A00F0010085F82E0107F1010A606D00F10C0105F5947014F0E9
:202BB0001DF81EE05146484614F0CDF8C8B15246494640460EF044FBFF2812D0474308EB1B
:202BD000070404F10D0015F00DF840B904F10D0015F008F8002804BF607F012801D149F0D0
:202BF000020905F12C004B46017806914289120905920122698C0491C0880799029140080A
:202C10000390CDF804B0CDF800A00020A97914F0EDFFD5F89C0169498842A8790CBF00210E
:202C300001210CF00BF986F00400B5E030060FD50021002306910591049103930291019178
:202C5000009101223B2014F0D1FF86F08000A3E0F0045BD55A490C6808F10D0014F0C2FF02
:202C7000002842D108F1070108F10D0014F0B2FF3BE0606D4178480704F13E0523D528788D
:202C900002281EBF0328687801282DD1697804F1380240460EF0D4FAFF2814D0784308EBD0
:202CB000000909F10D0014F09DFF60B909F1070109F10D0014F08EFF062209F1070104F182
:202CD000380013F08BFF2878022818BF03280BD108F10D0014F086FF30B9062208F10701D6
:202CF00004F1300013F07AFF2468002CC1D135484268354800784FF4805110F0B9FF10B130
:202D10008E200CF0A9FC86F4805045E0B00505D514F09DFA2D4901200860FEE7700504D589
:202D300009F04DFA86F4806036E0700405D581200CF092FC86F480402EE0B1042BD5244CED
:202D5000206810B1002013F063FD4FF0FF3020600020204C0DF090FE216851F8202F6846C3
:202D700090471D49086B4A6B24681C4B0090019202936B46C86A1A4A0392ADF81000256815
:202D9000184A19491948A8471949086004F02AFD86F4005000E0002009B0BDE8F08F00BFC4
:202DB00070240020981300209C130020204F00205420002072240020684E00206F20010076
:202DD0004C240020784E00206E4F0020FC002043044F0020F04E002038160020D5700100AC
:202DF000E5700100182300206818002088490020EC4E00202DE9FC47B44CB54D2678DFF857
:202E1000D482B54FB549002E4FF4A05900F01F81072E14D0092E18BF0A2E00F01A810B2E2D
:202E300018BF0C2E00F029810D2E00F0EC80112E5CD1AB4A1078002108F03AFE002878D096
:202E5000C5F80080426D5378016DA64CDFF89882DB065ED50B4641F2044EB3F802C0F445CA
:202E70001FBF5E8B7645B3F832A0F24506D041F20A4EF4451CBF7645F24502D1A7F800E053
:202E90004FE0002440F2FE364FF0180C0CFB04FC03F1020E3EF80CE0A7F800E0BEF1010F9B
:202EB000F2D0BEF1000F12D0AEF1020EBEF1010F0DD9BEEB060E1AD04FF48066BEEB0604C9
:202ED00012D04FF44066A41B01D0A41E012C40F2DE80241FFBD040F2FA36A41B00F0F18078
:202EF000641E00F0E680E11E00F0D980A7E0B3F800C040F6010EF44540F0C980641C022C0B
:202F1000C2DD57E0981C20F80C900FE001680A710CE0488E388041F20441401A01D0801FD4
:202F300001D12C6046E041F206403880C5F8008040E06E498978FF2911D0C5F80080084623
:202F50001C226B4B50431A68941C235A3B8013F47F4FF4D040F204441B1B012B654976D9FE
:202F70004FF47F741B1B15D00A3B012B17D940F6F6341B1B032B84BF5B1F012B12D99B1E3E
:202F9000012B64D940F2FD341B1B0BD05B1E012B05D909E0921C41F20143135202E0941CBC
:202FB00024F80090296005E0002013F031FC8520FDF7F2FFBDE8FC474F480078012109F0FB
:202FD000FFB84E4C4E4A25684E4800680023CDE9002355F8089F4C4B0222C8474B49088097
:202FF00035E0092E4ED14A490A685089002849D0484908780FF0CAFA0021002014F0E6FD3B
:203010000020207023E04888388002280DD940F20442801A1BD040F6FC72801A05D0083805
:2030300015D04FF47F72801A2CD1887B801CC2B2B52AA8BF662088730020488007E0002007
:2030500013F0E6FB8420BDE8F647FDF7A5BFBDE8F3874888388010F47F4FFAD040F20442E3
:20307000801AF4D040F6FC72801ABAD00838EED04FF47F72801AA4D004E04888388010F46A
:203090007F4FFAD0002013F0C3FB8520DBE7807B012818BF042801D0A7F8009046E7807BF1
:2030B00001287FF42FAF981C41F2024120F80C103CE75278D00647BF0022886D0022C86EF0
:2030D00024E7002013F0A4FB8320BCE76F4F0020204F002083740100504F00205C2300200A
:2030F00070240020A9080000815F0000684E002030240020114600006E4F0020F04E00209F
:2031100002000080EC4E0020C9200100424F00203C240020714F00202DE9F04F09AFADF11D
:203130003C0D08900A92388809911E46ADF81800101C08BF002000F07581017800274FF0AF
:20315000010B401C4FF0FF39B846DA460A9061E1252940F056810178401C0A902D2918BF95
:20317000ADF8068004D10178ADF806B0401C0A9030291CBF4246434604D10178401C5A46E6
:203190005B460A902A29CDF800804D4617D1049330680A9BCDF80890C01C20F00300001D94
:2031B000306050F8044C1978002C009403F101000A9018D5ADF806A06442009413E0444608
:2031D0000AE0600000EBC4004018A0F130040A9801780094401C0A90302901DB3A29F0DBC1
:2031F000CDF8089004932E2929D10178401C2A290A9011D13168CDF80880C91C21F00301F6
:20321000091D316051F8045C002D48BF454601782B46401C0A9011E0454643460AE0680048
:2032300000EBC5004018A0F130050A9801782B46401C0A90302901DB3A29F0DB02930AB17B
:20325000224604926C2904D04C2918BFADF8048004D10178ADF804A0401C0A900BA8CDF87D
:203270000C800FAB07906429059300F0828069297FD0BDF818C075296DD0782969D06F298F
:2032900065D070294ED063293ED0732922D00A98401E0A90099801281AD966490C68B5F1EA
:2032B000FF3F03D0A84288BF6D1C05D86FF00041814294BF0D1C099D029508A80AA932465F
:2032D0006B46A04709993F18091A0398099165E0454617E03068C01C20F00300001D3060FA
:2032F00050F8040CBCF1010F014608B94FA00146079113F0E1FD0390B5F1FF3F4FD0A84272
:203310004DD9039528464AE03068C01C20F00300001D306010F8040C8DF82C005D4603950F
:2033300058463CE0082035680490E81C20F00300001D306050F8041C082210230FA80DF02D
:2033500011F9401E079040210170079823E0082302E0102300E00A233068C01C20F0030016
:20337000001D306050F8041CAA42BCBF2A1C04920DE03068C01C20F00300001D306050F87C
:20339000041CAA42BCBF2A1C04926FF009030FA80DF0E8F807900599081A0390009C241AF7
:2033B000BDF8065000945DB906E008A8202109AA12F064FB7F1C009C641E0094F5D50398AB
:2033D000401EB0F1FF3F03900FD1BDF8060001281CD10098401E009018D408A8202109AA46
:2033F00012F04CFB00987F1CF4E70798017809AA08A812F043FB0798401C079003987F1CE3
:20341000DEE708A809AA12F039FB7F1C0A980178401C0A9000297FF49BAE089808B14146CD
:20343000017038460FB0BDE8F08FC046286E756C6C2900C0C08C0100BB482DE9F84F002506
:20345000BA4CB849056094F8E200002800F06581012800F02F81B64E02283CD0032840F026
:203470005C8151F8250CD4F8B8100029A0F5C060C4F8D400B8BF49420028B8BF40428142FD
:2034900026DA4FF08057D7F8A4014568B4F8BC0030214FF47F42082300903046A847D7F839
:2034B000A4014568B4F8C00004214FF4F802122300903046A847D7F8A401B4F8D0704568A5
:2034D00020214FF440620A2330460097A847012584F8D8501CE151F8258C13F0B8FE2F469E
:2034F00000B901273946934F38680028FCD0B146012609F10409D9F82CA03E6009B113F0C9
:20351000ACFECAF30720C4F8BC0013F0A0FEAA4600B9B2463B68002BFCD0D9F800B0BAF18D
:20353000000F3E6001D013F098FECBF38440C4F8C00013F08CFEAA4600B9B2463B68002B6A
:20355000FCD0D9F81C90BAF1000F3E6001D013F084FEC9F38120C4F8D000B8F5C061C4F8F1
:20357000B81000F09C8094F8D80068B9C4F8D410D4F8C000C4F8C800D4F8BC70C4F8C4704A
:20359000D4F8D030C4F8CC30D4F8D400D4F8BC30002854BF02226FF0010204F1C8010F6849
:2035B00000EB40008018421000EB927207EBA2000860D4F8C810C4F8C43000291CDD1E293E
:2035D0003CDDD4F8CC0030B93429B4BF15391E21C4F8C81025E02A29BABFD4F8C8000B38A8
:2035F0001E20C4F8C800D4F8C4003F28B4BF401C3F20C4F8C4001FE0D4F8CC00032812D0B0
:2036100011F10B0FC6BFD4F8C8000B30301CC4F8C800D4F8C4000028C4BF401E051CC4F8E4
:20363000C450032508E011F1150FC6BFD4F8C8001530301CC4F8C800C4F8CC504FF0805714
:20365000D7F8A401B4F8C43030214FF47F424568374800930823A847D7F8A40104214FF43C
:2036700000321123456832480096A847B4F8C860D7F8A40104214FF4F802122345682C4828
:203690000096A847D7F8A40120214FF440620A23B4F8CC60456826480096A84701E084F8F9
:2036B000D85040F2FF50404502D8801C40452FD2082030E051F8251C1F4F4BF2F5204843C3
:2036D000060A3868C0F3814001280CD11B4800680068804710F010FE13F0C5FD3111C010D1
:2036F000484306EBE03694F8E50030B91448006820F07F403618760801E084F8E550114884
:20371000310C0660012741600F4D8760287808B90B2000E0052084F8E40004F07FFCBDE8E5
:20373000F88FC0462D400C402C500C40A411002000A00C4000800C40B43F0050EC0100109E
:20375000102009403C600C40558B0100C2480278112A00D070472DE9F047C04A10780021D1
:2037700008F0A6F904000AD1002013F051F8002013F04EF8BDE8F047FF20FDF70DBC04F141
:203790004C0898F8000008B90121E172451C88F80050E9B2E07DD8F80490814209F1400A6B
:2037B00024D299F80E00401C89F80E00D8F808104A7AD9F80810520802F0010282F0010220
:2037D000101889F80E00A08B01EB8001C9F80810627DD30609D5628B98F8003000FB132040
:2037F000C03001EB8001CAF8201032E104F1280609F174074ED1A07F3875E17F7975D8F8B6
:2038100008205278930710D5E27FD30604D5C01E387501F0EF0179750020386089F873000E
:203830000022797D01F0FE010EE1910607D4F08B00B1F07EF875F08B00B1306AF861D8F819
:2038500008004178C8070BD5F18B00291CBF306A002805D0F861B07E884238BF0146F975D4
:20387000E07FC1060CD5D9F83800317800EB8100C9F83800A18CC03100EB8100022101E08C
:2038900000200021386089F873100022E17F01F0FC01D9E0D8F808104978CA0716D5787DB8
:2038B000397D00F0F700891E01F03F0182075CBF891D40F00200420644BF491E00F0BF00A6
:2038D000787539750020F861F875C2E0A28C2D1AD9F838008907EDB200EB820075D5012D23
:2038F00041D1C9F83800A07F00F03F00A0773875801EE17F7975387501F0F7017975D8F85B
:20391000082053785A0704D5801F387501F0FD01797500233A7DF17E9AF8000002F03F0233
:203930008A18521CC0F3800192B200F0030010F02DFE00F5FA70A0841E21A08C90FBF1F176
:203950008AB2797D01F0FE01204608F07FF9002189F87310F08B00B1F07EF875F08B00B107
:20397000306AF86175E0022DC9F8380026D1E07FC10706D5387D811F3975787D00F0FE00E8
:20399000787500233A7DF17E9AF8000002F03F028A18521CC0F3800192B200F0030010F0A1
:2039B000F5FD00F5FA70A0840022797D01F0FE01204608F04BF9707FAAF81A00707F401CE2
:2039D000451BE8B2012812DD07E0C9F83800E17F707F451BCA06E8B209D5A28CD9F83810A7
:2039F000C03201EB82013960022189F8731080B3F969F27EE37FA57F0A445908FA614FEAC8
:203A1000410AD8F8081049784A0748BF2AF0020A890748BF2AF0080A012807D1307FF87544
:203A3000002139602AF0100A89F87310504611F092FB05F0C00500F03F0005433D7587F8FE
:203A500015A000220AF0FC012046BDE8F04708F0FDB8BDE8F08700BF6F4F0020702400202C
:203A70002DE9F047ADF1180D14F0ACF80FF03AFB071C0CD012F074FFAE4C002680460621C9
:203A900034F80C0F28B1491E06F10106F8D113F030FD4FF6F87AA4F800A067600025A560B4
:203AB000A54C26707868A060404613F0E9F804F118063046294614F081F8E6600FF036F93C
:203AD0009E4904F1340015232A460090102004F06DFB9B49102002232A4604F067FB994822
:203AF000994B0321102211F02FFF11F0DFF897490246102004F05AFB11F0D8F894490246DE
:203B1000102004F053FB93491020FB2240F6480304F04CFB9049102004F048FB11F0C6F83F
:203B3000A84603468D49CDF8008004221020CDF8048004F03BFB606829462A465CA311F0B3
:203B5000C9FF0AF1070ADFF81892A06841464FF040424FF0FF3314F02DF8071CF5D0CDF869
:203B7000088004A805A902AA0DF03AFF002849D19DF810000DF1120111F0CCF800283ED17D
:203B9000BDF81200ADF8100012F08CFDBDF81000102832D120789DF8141088422DD102995A
:203BB0000888824529D0087891381BD01F3802D020381FD021E00D4660682A797E2A04D0C6
:203BD0007F2A09D1098940A301E0297A42A300914246012111F07EFF297905F1080014F017
:203BF00049F80AE04878102807D10820414603F043FC02E0084601F069FD029810B102985D
:203C100013F019FCF80FA0D3E06813F0CFFF00289BD1E068054613F0C5FF854208BF4546E2
:203C300002D0856811F05CF8002DEDD02878C01E08D0401F33D03D382AD0401E25D0401E9E
:203C500016D027E06E68606837687F1E03D07F1E06D125A300E02EA30421424611F03AFFE6
:203C70003068B0F1004F15D0706811F039F811E0CDF80C804A46116803A80160516841600C
:203C900012F0BCFE0CF0E8FA02E012F0B7FE01E012F000FB686838B111F022F804E068687B
:203CB000B0F801000EF050FE284611F019F8ABE73D3D3D3D3D3D3D3D3D3D3D3D3D3D3D3D1D
:203CD0003D3D3D3D00C046C04D54552053697A653A20256400C046C046432056696F6C611C
:203CF0007465643A202564004164766572746973656D656E747320737563636573736675D2
:203D10006C6C79207475726E6564206F666600C04164766572746973656D656E7473207314
:203D300075636365737366756C6C79207374617274656400D8130020D00A0020A51E0100E1
:203D5000F94E0100600E0020B88A0100518801103181011021B1001019E70000C972000070
:203D7000B01400202DE9F84306460D46707801071DD4D6F80310B44821F07F4120398142B4
:203D90003FBFD6F8061021F07F412039814228BF112033D2B01DF11C88425CD3B07A002802
:203DB00018BF012803D0022818BF032853D1B07C002818BF012803D0022818BF03284AD162
:203DD000307D012818BF022803D0832818BF032841D1707A10F0070070723CD030780121C1
:203DF00007F066FE04000AD100200FF0FDFE044613F081FB844214BF07200D2021E104F1B2
:203E1000540100200E606072227A012A08BF0C20F4D0E075727A012383401A4208D0E27DA4
:203E3000521CE275D2B2012A04BF00F125022276401C0328EEDB7078C20619D5317D0129C5
:203E500009D1102811D012280CD0132804D0152804D01D2804D09FE0002007E0042102E083
:203E7000012003E00221A17360E00320A0735DE0FF22A273307D02281EBF727802F003007B
:203E90000328E8D01307E6D408B19006E3D4520707D516F10C00DED0F07A002818BF0128CD
:203EB0007AD100206075E077707810F0030F26D1207D00F03F0020757078820605D4486810
:203ED000002804BF8868002801D018216175707881060DD4307D832818BF032804D1182038
:203EF00001216075E17703E0607D40F0010060757078410716D5E07F40F0020011E0217D62
:203F1000C0074CBF0120022001F03F0141EA80112175182060750921E1777078410701D564
:203F30000B20E077207D00F0C000A07796F913007F2806BF454800780EF0A4FA04F12907B7
:203F5000387045B14248416B48693978026801EB4101505C2870B07ADFF8F880DFF8F89067
:203F70003E4D002818BF012809D17875B07AC10758BFC8460622414604F130002FE005F1C7
:203F90000D0013F02FFEB8B1B07AC10754BF4946414612F0D8FE08B9122052E0B07AC10761
:203FB00054BF49464146062204F1300012F016FEB07A00F0010006E00622E91D04F1300011
:203FD00012F00CFE03207875B07A00F001002870B17AC80758BFC84606224146681C12F0AE
:203FF000FDFD7078410729D5B07A022818BF03281BD1F17A06F10C0201F0010128460DF079
:204010001FF9FF2811D01E214843054405F10D0013F0E8FD48B9E91D05F10D0013F0DAFD8E
:204030000120B8750622E91D04E0F07AB875062206F10C0104F1380012F0D0FD012060725E
:204050000020BDE8F28300BFE0FFFF00714F0020D09A0100344E00202C4E0020542000205E
:2040700010B54FF4DF622349234809F00DFE2348002101700122022302724376032220490C
:2040900004230A70CB700521417707231D491E480B7008240C72062209210270017210BD37
:2040B0002DE9F041194A1A493820136854689568D6681769D2F814C0D2F818E0D2F81C80D3
:2040D0000B604C608D60CE600F61C1F814C0C1F818E0C1F81C8020322031401EE5D110686C
:2040F00053689468D26808604B608C60CA60BDE8F0810000D8930100480400215103002132
:20411000C10300219803002174030021C88C010000C000212DE9F047DFF8AC916B496C4E51
:2041300089F800000922002008600D2369484FF48D7102704380818067480660B77E6748EA
:204150000770FF2FF17E417008BFFF29327F8270737FC370B57F0571F67F467114D1FF2AEF
:2041700008BFFF2B10D1FF2D08BFFF2E0CD15C490A7802704B7843708A788270CB78C370E7
:204190000A7902714979417156490278564D574EDFF85C810A7043784B7082788A70C37871
:2041B000CB700279534B0A7140794871FF2028706870A870E8702871687100204E490880FE
:2041D000776B4E49787808703A784D491A70B87808707A6910794B4A411E1170F8784A4990
:2041F00088F80000B869086008B912F011FBF869464C206008B912F00BFB2068DFF810A18B
:2042100001688847226852F8041F5046884741484149CAF82000CAF82410386A3F4908607D
:2042300008B912F0F5FA786A3D4C206008B912F0EFFAB86A3B49086008B912F0E9FA04F07D
:2042500097FA07280CD107F02FFE99F800004FF4804107F0B5FFBDE8F047002012F0D8BABD
:204270003148016888472268074610688047216851F8042F00209047F16898F800000A88F0
:204290002A4B2B4902431A8038460A6890470C21284813F083FC284800680E2112F002FF56
:2042B000284613F077FC13F071FC4FF6FF7223488280002101604FF4005199F80000BDE82B
:2042D000F04707F07DBF00BF6E4F0020044F0020B63F0050604E0020084F00202C4E002031
:2042F000E81200503C4E0020344E0020D09A01006C4F00207B4F00200C4F00206D4F002091
:204310006B4F0020724F0020F04E0020F44E00207C4B00200571010025710100F84E0020B7
:20433000FC4E00203824002098130020544F00209C130020F84D0020502400200C240020E1
:204350002DE9F84FDFF8B4920F460446F80B80F00981A54EDFF88482B80F80F0BA80B80836
:2043700080F0AE803809C0F02F81082012F08EFF002840F0A080802012F088FF002840F03E
:204390009A80684609F048FB012803D10098002800F0918090480078002840F08C80002572
:2043B0000124E8B212F04CFD48B1837A3BB1847290F9090004FA00F0C0B210F013FD6D1C80
:2043D000032DEED345460320287405F1AC0013F068F883480168002398461A46036050F84D
:2043F000081C804940F8088C05F1340013F065F8404606F04CFE3068006B8047A968401A6F
:20441000010BA869C1F1FF3282422CBF08444FF0FF30A861287F20B1E868A969B1EBC02FB5
:2044300025D911F097FF414600B12146081C1BD06E4840F60901018043464380417B04F0B6
:204450000F0221F00F010A434273017B03F00F0621F00F0146EA01020273436012F0D2FD57
:20447000418811F4406FFBD02C774346AB610FF061FF5F48444641460460022011F01AFDF7
:20449000022010F07BFC112007F0B8FF287818B96868383013F01DF85648007810B90E20C6
:2044B00007F0ACFF687F18B16C77052010F066FC514868612C740DF0B3F827F0080783E0FD
:2044D00006F0E4F845467435286808B927F002077AE012F0ECFFB3468246DBF854000168BD
:2044F00004208847D8B1207CC8B1454608352868A8B10646DBF80000E568006B8047801B31
:20451000E060000BE060A84202D240194008E06040F6C41181422CBFB0F5FA7FE1605046B3
:2045300013F030FB10F094F990B1A56920466FF4807100224FF00073A847464606F16C05F0
:204550002868002808BF47F0020701D00DF068F82046646900214FF080630A46A04727F09A
:20457000005731E012F0A3FF49460E6846B306F1280106C90A234FF0E0450B40154008BF3A
:20459000002B1DD106F1280191E8300006F1280393E8060006F12803AA43A14383E8060022
:2045B00013F0F0FAB16869B1002D08BF002C09D030692246B6F93C10B4682B46A04701E081
:2045D00013F0E0FA27F4804727B148463946503012F087FFBDE8F88F211B002088190020D6
:2045F00014100440351D01008C0100107823002000000460268C010021B90000081A002065
:20461000A2488078FF2800D170472DE9F84F12F02BFC054605F217100178012908BF4178E7
:2046300000F0A78005F17400817B022903D105F174010020887305F59274E18911B1207BA1
:2046500007F0BEFD6889DFF848C2DFF8489228819CF807209CF80A009CF80C109CF80B7054
:204670009CF80D3000EB02088844B84405F58D779844BB885B1CBB803E8846443E80B7F810
:2046900002E08644A7F802E04FF01C0E2368E3B1D9F8006095F806B006F10E0A0EFB0BFBC3
:2046B0000E361AF80BA033F81AB0C34423F81AB095F806A00EFB0AFA16F80AB003EB4B06C1
:2046D000B6F84AA08244A6F84AA0002A04BF9CF80B20002A05D1002904BF9CF80D10002972
:2046F00026D02989E88941180026A9812E74287F012804BF688CE8839CF8010068B1012184
:20471000297705F174018878002804BF887B002803D1087F08B9688CE883207D002832D026
:20473000022804BF9CF80B00002827D1002129E0EA8340B1297F012600200129287406D1A9
:20475000688CE88303E0F888401C0226F880A8892989814206D08842CED2081A41F2AB02A3
:204770009042C9DA287C08B1052901D0082100E03E212846BDE8F44F11F059BD9CF80900E6
:2047900008B10221217544489CF80F2001682868D30709D5DCF81020C26001F11400A97949
:2047B00049010022425010E0AA791431520189582161D9F80020A97902F108030EFB01F1D1
:2047D0005A58C2600020E8832877344841690A78900703D59CF80E00802800D1812005F102
:2047F000740A8AF800002846FDF734F801284AD0012128460BF01AF9284611F012FBFDF7CA
:20481000EDFC01283FD000F041FEDFF89490D9F80000C0B3B9F80400AA7990421CBF4FF62F
:20483000FD7188422FD11F48007A12F06BFC040029D02670A879608095F83910217195F85D
:20485000960160719AF90010A171A4F808807888608112F047FC050005D1FF204FF0FF3178
:204870002073216109E02878207313F0C7F90146A86813F083F9800820612046D9F800100E
:20489000BDE8F44F0847BDE8F18F00BF684E00205C4D00203024002034240020D09A0100F7
:2048B0000C240020881800202DE9F84F050046D0DFF8509299F80000092818BF0A2804D008
:2048D0000B281CBF0C280D2801D1212018E1A878002107F0EDF8040008BF4220F6D0A87815
:2048F0008949087004F14807F868417801F01201022902BF786900280C2012D0607AF0B17F
:20491000A07B012804D1B5F8030008B1812816DA6878402813DA204609F004FAB86808B9F9
:204930000720EDE0BD61287801281BD1A07B00281CBF0128042815D17448007808B9122020
:20495000DEE073494A78824208BF0920F8D004F1220004F13801427F802005F029FC08B116
:204970000B20CDE0687808B91120C9E02878694EDFF8A4A1DFF8A4B1012840F08980207A39
:204990000021012821734FF00A0811D19BF80000402110F001F9B5F8030008FB00F1402004
:2049B00011F03CFB0100E0D1B96968794871A6E001202072E172617308F0A8FD6060DAF8B2
:2049D00000008047564A0146106802E06268426000680028FAD108463168884761685148E0
:2049F0004861F8684178C80605D5204601F0CCFC01000BD084E00020608412F04BFB84F816
:204A100021002046FDF722FE010079D1F8684178C8071CD504F14206B18800291CBF3868AD
:204A3000002814D032788A4211D20F2011F00CFF68B1F86801788DF80010B088ADF8010061
:204A50000F2031788DF80310694611F0C3FC99F80000002853D13449087800281EBFF86828
:204A7000417811F0030F1CBF304811F063F9112089F8000001212172B5F8030008FB00F19F
:204A9000402011F0CBFA01003AD100F0FFFC36E0207AA8B3DAF80000804705469BF8000067
:204AB000402110F079F80020207212F03DFC012804D012F017FB6168884217D11C4A1D48D0
:204AD0001368006853F8384F0021A04740F2014013F090F818491948086001219BF800002C
:204AF00007F06EFB31682846884708E0204610F0FFFE316828468847204612F00EF90020C0
:204B1000BDE8F28F6F4F0020712400207B4F0020684E00209C130020981300206E4F002095
:204B30004C240020655D0000784E0020CC470020F04E0020EC4E0020204F0020815F0000D3
:204B50002DE9F04F8246DAF80070DAF804600C465FEA0208ADF11C0D14BF00214FF0FF31E1
:204B7000DFF84092484612F0E1F9002818BF0B2040F0158100258F488C4905708A48FC60AE
:204B9000524612F09AFC317B272012F098FCB8F1010F07D06570022010F056FB062010F04E
:204BB00053FB01E0012060702078012840F2AA80801E012868D9801E012833D9801E012806
:204BD00000F2DE8012F073FC83464FF0805000F5EE77D0F8DC01A378466A009321782846C8
:204BF000062908BF0120019001200290A068228AE1686368B0478146584612F0C3FFB9F1B8
:204C1000000F40F0BF80B8F1000F02D011F092FF02E0504610F034F9002800F0A38038686A
:204C3000806A2AE012F043FC83464FF0805000F5EE77D0F8DC01012306680093A168A27810
:204C500060682478AC46042C08BF9C466346B0478146584612F096FFB9F1000F40F092807E
:204C7000B8F1000F02D011F065FF02E0504610F007F9002876D03868406880474C49C1F8F2
:204C9000B0510D6081467DE012F011FC83464FF0805000F5EE77D0F8DC01E38A866900939D
:204CB000E0680190208B0290A0780390207D04900121059122782846022A08BF081CE178C2
:204CD0006268A368B0478146584612F05BFFB9F1000F57D1B8F1000F02D011F02BFF02E0BF
:204CF000504610F0CDF800283CD03868006A80475FEA000946D1E078A168E28A23690AF088
:204D100025F9BFE712F0D3FB83464FF0805000F5EE76D0F8DC01E38AC7680093E068019011
:204D3000208B0290A0780390207D2946049001200590257805B9014608466268A368E17807
:204D5000B8478146584612F01DFFB9F1000F19D1B8F1000F02D011F0EDFE02E0504610F030
:204D70008FF808B914201AE03068406980475FEA000907D1306802692169E078904781E757
:204D90004FF0FF39B8F1010F05D002200FF0F6FF06200FF0F3FF034812F09BFB484607B0A9
:204DB000BDE8F08F0C15002044150020655B010050450240672400202DE9F24F054684B0EC
:204DD0002868D0F80490D9F8080012F0D3FE002805F59A7B40F0058128680169049812F0A6
:204DF000CDFE05F1820680463078002805F12E0440F6C41A00F0878070882989401E80B257
:204E100012F000FF0746307802280CBFBBF83000A088784300902868016900980AFB001199
:204E3000049812F0A7FE002868D07F1C03973078009F039A02280CBFBBF83000A088C719C6
:204E500000230AFB07F0029201930090296809694118049812F08EFE90B100983189A8EBBF
:204E700000080AFB01F0B8FBF0F200FB1288B8F1000F18BF521C514301910399521802923D
:204E90002989029841186981F18801983278CF19C719012A48D105F18601284611F0AAFA1B
:204EB0007089688400212977E983E88969894118A9813289A188B0898A4204BF23899842B8
:204ED00002BF7189E388994207D0000900907389A9795208002012F0B1FEA088ABF830000D
:204EF000317921703089A0807189E180B0892081284611F0B7FC0220307015E031780129AD
:204F100018BF11F085FCA08829890AFB00F0B8FBF0F700FB1788B8F1000F18BF7F1C79186A
:204F30006981BFB2A08847432968344A08690AFB0700C9F808000B78802B10D1C860D2F8FE
:204F50003080A388D8F8000043436420B3FBF0F3D9F814000AFB03F3A3F5966343610B7863
:204F7000402B36D1AF614FF4C873688A4743B7FBF3F0401C6861D9F80830181AC9F80800E7
:204F90006B69DBF8000000EB4300D9F8143058611B4833780068022B0CD1AB795B0100F16D
:204FB000140656F803C026780AFB06CC00F1140646F803C0AB79126B00EB4316A3881068AD
:204FD00043436420B3FBF0F30AFB03F0A0F59660F061D9F8080088602846E17AA1720FF0B6
:204FF0004DF96989A88912F00DFEE989814238BF0120ABF82E0005B0BDE8F08FD09A0100C9
:20501000342400202DE9FE4F8A4C617811B9002011F0FEFB12F0F2FD06464FF0000806F692
:20503000C4160027844DDFF8149211E0384611F01BFF417951B12A68817902F8081008F134
:2050500001015FFA81F83146FFF7B6FE7F1CFFB299F800008742E9DB6178884505D0002046
:2050700011F0D6FB8220FBF797FF6078012840F0C380002701E07F1CFFB299F80000874202
:2050900080F2B480384611F0EFFE064670790028F1D02968B0790A7890421CBF002011F0C6
:2050B000B7FBB079A0E0286810F8090011F0DCFE00684268DAF808109068814204BF3E460B
:2050D00009F1010900F0A680A8E0286890F800B001224FF4D0710FE0636803F5B176835CF7
:2050F00001FB03F901FB0BFE36F809C036F80E60B44538BF9B46521CFBB29A42ECDB4FF63C
:20511000FF700AF00BFD0646584611F0ADFE4C490068D0F804A00868D94630F81920606857
:205130004FF4D07300F10E0103FB09F3C85AB2EBD00F52D2720840F6C4104243009200275B
:20515000404A0190029217E0584611F08DFE01680A78802A03D1DAF81430009A5A6109781A
:20517000402908D1029980790A6802EB4011009800F5A060C8617F1C47452EDA2868C05D07
:205190008345F8D001464FF4D073594363685A1803F5B173D289595A53088B4202D2521A37
:2051B0009045E8DA11F060FE01684A68019B9168DAF808207008A1F6C41103FB002012F03B
:2051D000D9FC0028C0D01E48006830F81910491C20F81910286810F807B019480268002132
:2051F0005B4622F813105846BDE8FE8F002011F00FFB8220FBF7D0FE617828680BF0EDFF14
:205210002868007811F030FE00260068D0F804A04FF00109771CC145FFF645AFF6B2002EAC
:205230001CBFF8B200287FF450AF286890F800B065E700BF684E0020004F00207B4F00203D
:2052500044240020342400202DE9FE4F8648DFF81C920278002A41D0D21F012A4ED90A3A4C
:2052700040F0FA80824C2078002106F021FC04001EBF606D407810F00C0F2FD0C00603D5BC
:20529000216D886D026802E0206DC16E0A6802F108050622A91C684611F0A0FC287800F039
:2052B0000F0105291AD16946C0F3801012F096FC002813D04946684610F072F905464946A2
:2052D00004F1380010F06CF985420DD0606D4178C80604D440F2014012F08CFCC2E0607BE2
:2052F00040F002006073BDE01E20454309EB050006226946C01D11F071FCB3E0DFF874B18C
:205310009BF80200FF28F8D011F0AEFD804608F16C06706812F02AFC00900179032907D10E
:205330008068047814F0030403D1706812F01AFC98E04578032C00F1020A08F2171706D1CA
:2053500098F8940000284AD0042D11DD1CE0A5B1307868B108F1F400017801290DD1424AAB
:205370001178072904D0082904BFC078012804D13D2179700120387074E03F490A78012ACD
:2053900070D098F8940050B32D1FEDB253462A462146404609F0DEF838B93D20787001218E
:2053B0003970484610F013F95CE0344801688847814698F80610DBF804204FF4D07041433F
:2053D0005018002280F8412108F59E700168807949080BF09BFE2A490A6848469047009924
:2053F0000020032C886016D0264841690878820707D5C0074CBF0320002040191AF8000003
:2054100000E08120307223469BF802002A46514603F000FB18E09AF800001A2803D21A4A61
:20543000115C8D4205D0B870072140460BF0EEFA07E00D480178082903D051464046FAF7CB
:20545000F5FD50460DF0A4FF706812F08BFB009940460FF089FA05E0002011F0D9F9862095
:20547000FBF79AFDBDE8F78F6F4F00205420002070240020684E0020794F002098130020B9
:205490009C130020D09A0100089B01002DE9F84F894E716884B0009121B905B0BDE8F04FD9
:2054B00012F05CBB0978DFF81492DFF81482854FDFF814B201291CBF0229042941F64C5AAD
:2054D00004D0402918BF802970D0EBE011F02CFF0028FAD00098007804F0AAFA054611F0E2
:2054F0009CFE04469BF80100002841D0FFF78AFD11F0BAFC0290016800914968019194B1A3
:20551000009928460BF05AFB02280CD029780129DBD118B912F072FB5044A0600120B07092
:2055300011213970B8E00098017880290BD108203870019998F800204869012A0BD0D9F8B0
:2055500028100A780DE007203870019998F800204869012A02D10121C17203E0D9F828108B
:205570004A78C2720298817900988BF8021094E0002DAAD000992878A94208D1012802D150
:20559000002C03D194E0002011F042F984E001289BD1002CF6D012F031FB00F5C241A06812
:2055B000A83112F0E7FA002872D16DE09BF80100002859D0FFF726FD11F056FC0446206844
:2055D000019045689BF8020011F04EFC039011F0B1FE10F0070F21D0B07804F029FA009084
:2055F00011F01BFE0290C8B1019900980BF0E6FA022813D000990A78012A0CD128B912F056
:20561000FDFA82440298C0F808A0112139700120B070009841E0002011F0FAF80398A0425E
:2056300020D00199087880280DD10821397098F800206869012A02D10121C1720FE0D9F864
:2056500028100A780AE00720387098F80010686901290EBF0122D9F828104A78C272A07924
:205670008BF80200019818E011F064FE10F0070F1ED0B07804F0DCF9054611F0CEFD04464B
:205690002878012814D19CB112F0B8FA5044A060112038700121B170284605B0BDE8F04F94
:2056B00009F07AB805B0BDE8F04F002011F0B0B805B0BDE8F08F00BFE0230020D09A010067
:2056D000734F00206F4F0020684E0020F0B50146844C88786568ADF1240D00282A466DD0F7
:2056F000401F5BD0401E4CD0401E1DD00A3840F0AE804F898888ADF8080067B9ADF80E70D3
:20571000C888ADF80A000E89ADF80C608D89ADF81050012000E0002073498DF8130002AA96
:20573000102002F043FD97E0704B8A880D461020194602AB02F03AFDE87838B966680DF1DE
:205750000A000DF02BF945A3009008E066680DF10A000DF023F9A978009146A3019030461D
:205770000221002210F0B6F904F1100010F01BFD041C71D020890DF0E7F820460FF0B0FA13
:205790006AE028460121002243A310F0A3F958480078002860D010F07DFD5DE04F78002F5E
:2057B0005AD1081D0DF0FAF800900121002240A3284610F08FF911F021F94DE00D46687872
:2057D000002849D1104601213FA3002210F082F94849CCC902A8CCC00EC9671C80E80E0054
:2057F00002AB10204449454A009702F0DFFCC6B20EB111F0BEFA0AF02FFD0EB111F0B9FAB3
:20581000102604F1240000963E49019062780123304602F0CBFCC0B208B111F0AAFA3849FD
:2058300062783046922302F0C1FCC0B208B111F0A0FA6468A81D0DF0B1F829A1009100222A
:2058500024A306210190204610F044F904E028460121022211F0EFFC09B0F0BD4C696E6B9E
:2058700020506172616D20557064617465643A20257300C04C696E6B20506172616D20555A
:205890007064617465204661696C656420307825783A20257300C046446576696365204474
:2058B0006973636F6E6E65637465642100C046C0436F6E6E656374656420746F206465766D
:2058D0006963653A20257300496E697469616C697A656400257320416464723A20257300FA
:2058F00044657600D00A002091C20000C9360100580E0020D48A0100957E00000D5E0100C8
:20591000D9310100B19F00002DE9FE4F05467B48002400680094C00905D37948007810B9E8
:2059300020200FF097FB012D40F0E280DFF80092D9F8DC00012840F0D8800220C9F8DC0040
:2059500011F080F801200FF085FB5FEA000805D00120C9F8DC0011F081F8CBE011F0BDFD5A
:20597000A34602906748684DC0F800B0A86A016801208847012804D158460AF039FF012076
:2059900000906248624FC0F800B03868112011F077FC00B10124102011F072FC08B144F0FD
:2059B00002040F2011F06CFC08B144F004040B2011F066FC20B12868564E016B30888847BE
:2059D0000A2011F05DFC20B12868534E016B308888475248012606602868816944F0200049
:2059F00088474F48066011F045FC00F001010191400814D2286A81684A4888478246BAF188
:205A1000040FF7D0BAF1010F04D1286A42684548032190474449086820F003000860584632
:205A300000F088F82B683868986B8047019801280CD0BAF1010F04D1286A42683948314687
:205A500090473949086840F0030008602F48066028684169204688470B2011F011FC20B17C
:205A700028682C4BC16A188888470A2011F008FC20B12868284BC16A188888472748066003
:205A90000322C9F8DC20264BC3F800B02868416B204688470128F9D1386804200FF0DAFA3D
:205AB0000446184806603868144800688009FBD30098012802D130460AF09AFE11F0CDFBA6
:205AD00008200FF0C7FA07460298C9F8DC6012F041F8164800880AF087FB10F0BFFF57EA4E
:205AF000040018BF4FF0FF3804E06FF0040801E06FF001084046BDE8FE8FC0461410094082
:205B10008C1200200C400940B8010010000222432C2009407A8701007687010028200860AD
:205B3000800104430040034024220840508B0100A41100202DE9F84FDFF804B20746ABF1F8
:205B50003500DFF8F0810068800880F0E28075480068006880477E490831D1F80090002524
:205B70004FEA29715FEA995201F101010AD2C0F13E0210F10A0F4FEAE202D8BF0822914282
:205B9000B8BF111C684BD3F87C21C2F30462162AA8BF203A1B68C3F30443162BA8BF203B97
:205BB0009A465218162A05DA12F10A0FB8BF6FF0090200E015225D4B5D4E02F01F0141F4BE
:205BD000F8511980316811F0030F18BF0125C90828BF45F002050FB145F00405434693F923
:205BF0000710411A052904DA9979A94208BF99886FD0DFF844E10F28A0F10F0829DB08EB21
:205C10000011A1F1F0084FEA28210091072984BF07210091062988BF06215EF821600424FE
:205C3000774604EB81043C594FEA950CA41BEE0804F0FF0124BFC4F3072631446F08AE08A2
:205C500024BFC4F3074631446E0828BF01EB146104E000214FEA950C6F080091009C5EF841
:205C700024E05FEA5C060EF0FF0424BFCEF3072634447E0824BFCEF3074634446E0828BFCF
:205C900004EB1E64009E89B2A8EB06267143803104EB1124AAEB02010029D8BF0121342292
:205CB00009F0FF074A4391B24FF6FF727943B1FBF4F18A4238BF111C802889B205DA10F14F
:205CD000800FB8BF6FF07F0000E07F209980D8719D711A4800681F2918604FF0000008D33D
:205CF00040F2FF128A4206D24908401C8A42FBD301E01F219980134F0F39090940EAC10085
:205D100047EA0001CBF8FB1F0026CBF8FF6FBDE8F88F0D490D4F434608200F609B1D1870CF
:205D3000BDE8F88FEC0100103C1100506E62084024220840142400209C130050082009401F
:205D50003500094000E7A48030100940FDFDA400AC3F00502DE9F84F824A834610780021AD
:205D700005F0A6FE9BF80010044601291CBF002010F04EFD14B9002010F04AFD04F14C06A2
:205D90004FF47A67B0684178D6F804A0C8064FF00B0841F64C592CD50AF17800002101807A
:205DB0008170C17001714171C18001818172C172C160A07B01281BD011F020FF0AF108052C
:205DD0004844296811F0D6FE002811D011F016FF4844286011F0BAFE0B2290FBF2F22968A8
:205DF00008FB12081FFA88F007FB00172F60276183E00AF174010020088400220AF1960083
:205E1000027042708270C2708280C28002724272CAF8A0200AF1080511F0F0FE2968484428
:205E300011F0A8FE88B111F0E9FE4844286011F08DFE0B2290FBF2F2296808FB12081FFA87
:205E500088F007FB00172F6027610AF14007607DC1064FD5287AA27D521CC0F380010023FA
:205E700092B200F003000EF091FBA0831E20A28B02F5FA731E2193FBF0F001FB1030C0B204
:205E900008B1C0F11E009BB28C46801893FBFCFC00F5FA7002F5FA7201FB1C316083A2831A
:205EB000C9B209B1C1F11E018A18A28380B2E17D491E92B202FB01026283608B2A68C03078
:205ED00002EB800139620220F877618B02EB81022A63287A18B9397809B120322A63A18C45
:205EF000286BC03100EB8100CAF8740002208AF8730002E000213962F977616870681A4A42
:205F10008A614860B2685078C3065CBF102088615078830703D5886940F4002088615078DF
:205F3000430704D5886940F40000886188610F4B187800281CBF507810F0030F03D08869AC
:205F500040F4802088610020B1683070087E10F0300F04D05846BDE8F24F0DF019BCBDE807
:205F7000F18F00BF7024002002000080784E00202DE9F84FDFF8F4A19AF80000002105F045
:205F900097FD040004F1500602D110F041FCDEE0207A30B920460FF0ABFC204610F0BDFE90
:205FB0001EE0207BDFF8C881401C20730121E17230694079C0B1217B814215D198F800001C
:205FD00040210EF0E9FD0020207220460FF090FC204610F0A2FEFF22432120460CF026FABC
:205FF000BDE8F14FFFF752BA04F14509002089F8070011F0ABFDD6F804C027690146DCF8D9
:2060100003004FF00B0E20F07F4040F6C41391FBFEFE0B2203FB007702FB1E1189B24FF465
:206030007A604143306889B200F10805C9192960216104F122079CF80110CA0618D5A17B98
:2060500001290AD10020207220460FF051FC98F80000022106F0B4F865E090F8731001F031
:20607000E00141F0860180F87310424941675AE080460020A8F8020008F1600B217EA9716A
:20609000607DC10606D5618B2868C03100EB8100CBF8000008F18800217D01700021627D45
:2060B0004270C17081603888401C388080B210F0F1FF84F821000022617D01F0FE01204623
:2060D00005F0C4FD0020E882E17D6984688508F13E0094F8211001F03F0101702A68618B24
:2060F00002EB81022A630022028299F800108183726851788A0709D5B98879800121A27FB9
:2061100002F03F0242F08002A2778183E07FC10609D57988286BC03100EB8100CBF814009F
:2061300002208BF813001449087880B1387F022818BF03280BD1114F07F10D0011F052FD15
:2061500028B90622F91D04F1300010F047FDFFF79DF94CB17068017E480605D55146BDE863
:20617000F44F032010F036B9BDE8F18F702400206E4F002000204E00784E0020542000201C
:20619000F8B57F4F04463868C16E0025002940F0F380102010F0AEFF39680028C86600F0A6
:2061B000E9808E6E1022214610F018FD39680878002840F09080C86E00F10C02D6F8980098
:2061D00092F800C000F001030CF0010C634518BF0023400843EA4000C6F89800C0F34003C5
:2061F000D2F800C0CCF3400C634506BF430803F00103002320F0020040EA4300C6F8980053
:20621000C0F38003D2F800C0CCF3800C634506BF830803F00103002320F0040040EA830090
:20623000C6F89800C0F3C003D2F800C0CCF3C00C634506BFC30803F00103002320F0080003
:2062500040EAC300C6F89800C0F30023D2F800C0CCF3002C634506BF030A03F0010300230C
:2062700020F4807040EA0320C6F89800C0F34023D2F800C0CCF3402C634506BF430A03F0EF
:206290000103002320F4007040EA4320C6F89800C0F38023D2F800C0CCF3802C634506BFA8
:2062B000830A03F00103002320F4806040EA8320C6F89800C0F3C0231268C2F3C022934294
:2062D00006BFC20A02F00102002220F4006040EAC220C6F898008A6E92F89500030718D522
:2062F000C86E4368C3F3C00098B1C87840F00800C870D6F8981023480140C6F898103A6814
:20631000D06EC16821F48071C16049084900C16003E092F8330001282AD0607800281CBF86
:206330007178002908D13968CA78130708D5002804BF7078002803D03868052101711CE086
:206350006068C0F3800040B996F8950010F0040002D10120087110E00AD00878002819BF5B
:20637000307821783178207811F0ECFB054604E0182502E0132500E011252846F2BD00BF2B
:20639000304F0020FEFEFFFF2DE9F0475FEA000A04BF002010F03CFA0AF1500700243E687F
:2063B000DFF8C881DFF8C89179684A7A1820604301233518A3401A420AD09AF80E1039F892
:2063D00011002880002118F80420AA73E97302E040F6010028800021698005F11800686085
:2063F000287B00F0EF00287340F0800028739AF80E1001290ED141F28830A860297B01F0E4
:20641000F00141F005012973687B00F0F00040F0020017E0002C0CBF0221002100F0F000A1
:206430000843287324B911F0E9FB00F57A6000E00020A860022C697B0CBF0120022001F0BC
:20645000F00108436873641C06F15800286106F17801022C6961A7DD9AF80E0001280EBF3B
:20647000766300207063B068CAF810000FF014FAB065404881690878C2074CBF102200221A
:2064900081074CBF2023002341074CBF4024002400074CBF802000201A43224306F15C0130
:2064B000024342F00F020A70002048707A68907C00F0030048700AF13E004B78027862F38E
:2064D00082034B701A46407860F3C3024A7042F0100000228A70CA704A608A6048700AF1A3
:2064F00038020A619AF80E00012818BF042813D0B86830B1B0F803008870BA68D2F80500A3
:206510004860F86830B1B0F80300C870FA68D2F805008860184808610AF13002C87D174BE9
:20653000CA6000F0EF00C87540F08000C87500F0F00040F00600C875114A8A61187838B106
:2065500048780A7840F0400002F0FE0248700A700C4A937848785A064CBF40F0200000F089
:20657000DF0048700020BDE8F08700BF409A0110109A0110D09A0100D0470020784E00204B
:2065900000204E008C2300202DE9FE4F0E468246307AC10693461F464FF000090CD55846B9
:2065B00011F0CCFA030000F0E8800A223146504698475FEA00094DD130780C9D0D9CDDF852
:2065D000388002281AD170680178407801EB002189B24FF42052891A012910D9891E3AD071
:2065F000491E14D0FD397AD0491E00F08180491E6DD0491E73D0491E00F09580ABE0002CF7
:206610002AD1F068017829800278416887E0002C22D101202880F1680A783A7000217089E4
:20663000401C80B211F086FA298860B10278921C51182980418979704289120ABA704168D2
:206650000278F81C6CE0091D298004220021781C10F05BFF93E0002C66D1F068068804216B
:2066700029803E70320A7A700DF10201304611F061FA040021D0D4F80C80BDF802204FF651
:20669000FF766B46314611F051FA40B9237862683C48022111F046FA08B9ADF8006098F865
:2066B000000002280BD1D8F804100222381D10F095FA2888801C288001E0ADF80060BDF849
:2066D0000000B870BDF80010090AF97057E0002C2AD1F0680168504610F04BFC02E01CBB8C
:2066F000F0680088022129803870000A787046E0F06810F00CFF80B2A042B8BF4FF00709E1
:206710003DDB844208BF002205D008EB04028242B4BF4246021B2A8092B2F068011938461A
:2067300010F05CFA2BE014B14FF00B0927E0F0680721298002783A7043787B704188B970E4
:206750004288120AFA7001793971C2887A71C088000AB87113E0584611F0E0F95FEA000948
:206770000BD00F980290CDF8048000942B463A4631465046C847814601E04FF00E0948467F
:20679000BDE8FE8F4C9B01002DE9FE4F704E3078002804D0401E03280CD9801F012840F2A2
